{
	"contracts/Gluttony.sol": {
		"Gluttony": {
			"abi": [
				{
					"inputs": [
						{
							"internalType": "uint256",
							"name": "price",
							"type": "uint256"
						},
						{
							"internalType": "uint256",
							"name": "maxSupply",
							"type": "uint256"
						},
						{
							"internalType": "string",
							"name": "baseUri",
							"type": "string"
						},
						{
							"internalType": "uint256",
							"name": "freeMintAllowance",
							"type": "uint256"
						},
						{
							"internalType": "uint256",
							"name": "maxMintPerTx",
							"type": "uint256"
						},
						{
							"internalType": "bool",
							"name": "isSaleActive",
							"type": "bool"
						},
						{
							"internalType": "uint256",
							"name": "freeMintIsAllowedUntil",
							"type": "uint256"
						}
					],
					"stateMutability": "nonpayable",
					"type": "constructor"
				},
				{
					"anonymous": false,
					"inputs": [
						{
							"indexed": true,
							"internalType": "address",
							"name": "owner",
							"type": "address"
						},
						{
							"indexed": true,
							"internalType": "address",
							"name": "approved",
							"type": "address"
						},
						{
							"indexed": true,
							"internalType": "uint256",
							"name": "tokenId",
							"type": "uint256"
						}
					],
					"name": "Approval",
					"type": "event"
				},
				{
					"anonymous": false,
					"inputs": [
						{
							"indexed": true,
							"internalType": "address",
							"name": "owner",
							"type": "address"
						},
						{
							"indexed": true,
							"internalType": "address",
							"name": "operator",
							"type": "address"
						},
						{
							"indexed": false,
							"internalType": "bool",
							"name": "approved",
							"type": "bool"
						}
					],
					"name": "ApprovalForAll",
					"type": "event"
				},
				{
					"anonymous": false,
					"inputs": [
						{
							"indexed": true,
							"internalType": "address",
							"name": "previousOwner",
							"type": "address"
						},
						{
							"indexed": true,
							"internalType": "address",
							"name": "newOwner",
							"type": "address"
						}
					],
					"name": "OwnershipTransferred",
					"type": "event"
				},
				{
					"anonymous": false,
					"inputs": [
						{
							"indexed": true,
							"internalType": "address",
							"name": "from",
							"type": "address"
						},
						{
							"indexed": true,
							"internalType": "address",
							"name": "to",
							"type": "address"
						},
						{
							"indexed": true,
							"internalType": "uint256",
							"name": "tokenId",
							"type": "uint256"
						}
					],
					"name": "Transfer",
					"type": "event"
				},
				{
					"inputs": [],
					"name": "FREE_MINT_IS_ALLOWED_UNTIL",
					"outputs": [
						{
							"internalType": "uint256",
							"name": "",
							"type": "uint256"
						}
					],
					"stateMutability": "view",
					"type": "function"
				},
				{
					"inputs": [],
					"name": "FREE_MINT_LIMIT_PER_WALLET",
					"outputs": [
						{
							"internalType": "uint256",
							"name": "",
							"type": "uint256"
						}
					],
					"stateMutability": "view",
					"type": "function"
				},
				{
					"inputs": [],
					"name": "IS_SALE_ACTIVE",
					"outputs": [
						{
							"internalType": "bool",
							"name": "",
							"type": "bool"
						}
					],
					"stateMutability": "view",
					"type": "function"
				},
				{
					"inputs": [],
					"name": "MAX_MINT_AMOUNT_PER_TX",
					"outputs": [
						{
							"internalType": "uint256",
							"name": "",
							"type": "uint256"
						}
					],
					"stateMutability": "view",
					"type": "function"
				},
				{
					"inputs": [],
					"name": "MAX_SUPPLY",
					"outputs": [
						{
							"internalType": "uint256",
							"name": "",
							"type": "uint256"
						}
					],
					"stateMutability": "view",
					"type": "function"
				},
				{
					"inputs": [],
					"name": "METADATA_FROZEN",
					"outputs": [
						{
							"internalType": "bool",
							"name": "",
							"type": "bool"
						}
					],
					"stateMutability": "view",
					"type": "function"
				},
				{
					"inputs": [],
					"name": "PRICE",
					"outputs": [
						{
							"internalType": "uint256",
							"name": "",
							"type": "uint256"
						}
					],
					"stateMutability": "view",
					"type": "function"
				},
				{
					"inputs": [
						{
							"internalType": "address",
							"name": "to",
							"type": "address"
						},
						{
							"internalType": "uint256",
							"name": "tokenId",
							"type": "uint256"
						}
					],
					"name": "approve",
					"outputs": [],
					"stateMutability": "nonpayable",
					"type": "function"
				},
				{
					"inputs": [
						{
							"internalType": "address",
							"name": "owner",
							"type": "address"
						}
					],
					"name": "balanceOf",
					"outputs": [
						{
							"internalType": "uint256",
							"name": "",
							"type": "uint256"
						}
					],
					"stateMutability": "view",
					"type": "function"
				},
				{
					"inputs": [],
					"name": "freezeMetadata",
					"outputs": [],
					"stateMutability": "nonpayable",
					"type": "function"
				},
				{
					"inputs": [
						{
							"internalType": "uint256",
							"name": "tokenId",
							"type": "uint256"
						}
					],
					"name": "getApproved",
					"outputs": [
						{
							"internalType": "address",
							"name": "",
							"type": "address"
						}
					],
					"stateMutability": "view",
					"type": "function"
				},
				{
					"inputs": [
						{
							"internalType": "address",
							"name": "owner",
							"type": "address"
						},
						{
							"internalType": "address",
							"name": "operator",
							"type": "address"
						}
					],
					"name": "isApprovedForAll",
					"outputs": [
						{
							"internalType": "bool",
							"name": "",
							"type": "bool"
						}
					],
					"stateMutability": "view",
					"type": "function"
				},
				{
					"inputs": [
						{
							"internalType": "uint256",
							"name": "newMaxSupply",
							"type": "uint256"
						}
					],
					"name": "lowerMaxSupply",
					"outputs": [],
					"stateMutability": "nonpayable",
					"type": "function"
				},
				{
					"inputs": [
						{
							"internalType": "uint256",
							"name": "_mintAmount",
							"type": "uint256"
						}
					],
					"name": "mint",
					"outputs": [],
					"stateMutability": "payable",
					"type": "function"
				},
				{
					"inputs": [
						{
							"internalType": "address",
							"name": "_to",
							"type": "address"
						},
						{
							"internalType": "uint256",
							"name": "_mintAmount",
							"type": "uint256"
						}
					],
					"name": "mintOwner",
					"outputs": [],
					"stateMutability": "nonpayable",
					"type": "function"
				},
				{
					"inputs": [],
					"name": "name",
					"outputs": [
						{
							"internalType": "string",
							"name": "",
							"type": "string"
						}
					],
					"stateMutability": "view",
					"type": "function"
				},
				{
					"inputs": [],
					"name": "owner",
					"outputs": [
						{
							"internalType": "address",
							"name": "",
							"type": "address"
						}
					],
					"stateMutability": "view",
					"type": "function"
				},
				{
					"inputs": [
						{
							"internalType": "uint256",
							"name": "tokenId",
							"type": "uint256"
						}
					],
					"name": "ownerOf",
					"outputs": [
						{
							"internalType": "address",
							"name": "",
							"type": "address"
						}
					],
					"stateMutability": "view",
					"type": "function"
				},
				{
					"inputs": [],
					"name": "renounceOwnership",
					"outputs": [],
					"stateMutability": "nonpayable",
					"type": "function"
				},
				{
					"inputs": [
						{
							"internalType": "address",
							"name": "from",
							"type": "address"
						},
						{
							"internalType": "address",
							"name": "to",
							"type": "address"
						},
						{
							"internalType": "uint256",
							"name": "tokenId",
							"type": "uint256"
						}
					],
					"name": "safeTransferFrom",
					"outputs": [],
					"stateMutability": "nonpayable",
					"type": "function"
				},
				{
					"inputs": [
						{
							"internalType": "address",
							"name": "from",
							"type": "address"
						},
						{
							"internalType": "address",
							"name": "to",
							"type": "address"
						},
						{
							"internalType": "uint256",
							"name": "tokenId",
							"type": "uint256"
						},
						{
							"internalType": "bytes",
							"name": "_data",
							"type": "bytes"
						}
					],
					"name": "safeTransferFrom",
					"outputs": [],
					"stateMutability": "nonpayable",
					"type": "function"
				},
				{
					"inputs": [
						{
							"internalType": "address",
							"name": "operator",
							"type": "address"
						},
						{
							"internalType": "bool",
							"name": "approved",
							"type": "bool"
						}
					],
					"name": "setApprovalForAll",
					"outputs": [],
					"stateMutability": "nonpayable",
					"type": "function"
				},
				{
					"inputs": [
						{
							"internalType": "string",
							"name": "customBaseURI_",
							"type": "string"
						}
					],
					"name": "setBaseURI",
					"outputs": [],
					"stateMutability": "nonpayable",
					"type": "function"
				},
				{
					"inputs": [
						{
							"internalType": "uint256",
							"name": "freeMintAllowance",
							"type": "uint256"
						}
					],
					"name": "setFreeMintAllowance",
					"outputs": [],
					"stateMutability": "nonpayable",
					"type": "function"
				},
				{
					"inputs": [
						{
							"internalType": "uint256",
							"name": "freeMintIsAllowedUntil",
							"type": "uint256"
						}
					],
					"name": "setFreeMintAllowedUntil",
					"outputs": [],
					"stateMutability": "nonpayable",
					"type": "function"
				},
				{
					"inputs": [
						{
							"internalType": "uint256",
							"name": "maxMintPerTx",
							"type": "uint256"
						}
					],
					"name": "setMaxMintPerTx",
					"outputs": [],
					"stateMutability": "nonpayable",
					"type": "function"
				},
				{
					"inputs": [
						{
							"internalType": "uint256",
							"name": "customPrice",
							"type": "uint256"
						}
					],
					"name": "setPrice",
					"outputs": [],
					"stateMutability": "nonpayable",
					"type": "function"
				},
				{
					"inputs": [
						{
							"internalType": "bool",
							"name": "saleIsActive",
							"type": "bool"
						}
					],
					"name": "setSaleActive",
					"outputs": [],
					"stateMutability": "nonpayable",
					"type": "function"
				},
				{
					"inputs": [
						{
							"internalType": "bytes4",
							"name": "interfaceId",
							"type": "bytes4"
						}
					],
					"name": "supportsInterface",
					"outputs": [
						{
							"internalType": "bool",
							"name": "",
							"type": "bool"
						}
					],
					"stateMutability": "view",
					"type": "function"
				},
				{
					"inputs": [],
					"name": "symbol",
					"outputs": [
						{
							"internalType": "string",
							"name": "",
							"type": "string"
						}
					],
					"stateMutability": "view",
					"type": "function"
				},
				{
					"inputs": [
						{
							"internalType": "uint256",
							"name": "tokenId",
							"type": "uint256"
						}
					],
					"name": "tokenURI",
					"outputs": [
						{
							"internalType": "string",
							"name": "",
							"type": "string"
						}
					],
					"stateMutability": "view",
					"type": "function"
				},
				{
					"inputs": [],
					"name": "totalSupply",
					"outputs": [
						{
							"internalType": "uint256",
							"name": "",
							"type": "uint256"
						}
					],
					"stateMutability": "view",
					"type": "function"
				},
				{
					"inputs": [
						{
							"internalType": "address",
							"name": "from",
							"type": "address"
						},
						{
							"internalType": "address",
							"name": "to",
							"type": "address"
						},
						{
							"internalType": "uint256",
							"name": "tokenId",
							"type": "uint256"
						}
					],
					"name": "transferFrom",
					"outputs": [],
					"stateMutability": "nonpayable",
					"type": "function"
				},
				{
					"inputs": [
						{
							"internalType": "address",
							"name": "newOwner",
							"type": "address"
						}
					],
					"name": "transferOwnership",
					"outputs": [],
					"stateMutability": "nonpayable",
					"type": "function"
				},
				{
					"inputs": [],
					"name": "withdraw",
					"outputs": [],
					"stateMutability": "nonpayable",
					"type": "function"
				}
			],
			"devdoc": {
				"kind": "dev",
				"methods": {
					"approve(address,uint256)": {
						"details": "See {IERC721-approve}."
					},
					"balanceOf(address)": {
						"details": "See {IERC721-balanceOf}."
					},
					"getApproved(uint256)": {
						"details": "See {IERC721-getApproved}."
					},
					"isApprovedForAll(address,address)": {
						"details": "See {IERC721-isApprovedForAll}."
					},
					"name()": {
						"details": "See {IERC721Metadata-name}."
					},
					"owner()": {
						"details": "Returns the address of the current owner."
					},
					"ownerOf(uint256)": {
						"details": "See {IERC721-ownerOf}."
					},
					"renounceOwnership()": {
						"details": "Leaves the contract without owner. It will not be possible to call `onlyOwner` functions anymore. Can only be called by the current owner. NOTE: Renouncing ownership will leave the contract without an owner, thereby removing any functionality that is only available to the owner."
					},
					"safeTransferFrom(address,address,uint256)": {
						"details": "See {IERC721-safeTransferFrom}."
					},
					"safeTransferFrom(address,address,uint256,bytes)": {
						"details": "See {IERC721-safeTransferFrom}."
					},
					"setApprovalForAll(address,bool)": {
						"details": "See {IERC721-setApprovalForAll}."
					},
					"supportsInterface(bytes4)": {
						"details": "See {IERC165-supportsInterface}."
					},
					"symbol()": {
						"details": "See {IERC721Metadata-symbol}."
					},
					"tokenURI(uint256)": {
						"details": "See {IERC721Metadata-tokenURI}."
					},
					"transferFrom(address,address,uint256)": {
						"details": "See {IERC721-transferFrom}."
					},
					"transferOwnership(address)": {
						"details": "Transfers ownership of the contract to a new account (`newOwner`). Can only be called by the current owner."
					}
				},
				"version": 1
			},
			"evm": {
				"assembly": "    /* \"contracts/Gluttony.sol\":207:4328  contract Gluttony is ERC721A, Ownable, ReentrancyGuard {... */\n  mstore(0x40, 0x80)\n    /* \"contracts/Gluttony.sol\":699:1200  constructor(uint256 price, uint256 maxSupply, string memory baseUri, uint256 freeMintAllowance, uint256 maxMintPerTx, bool isSaleActive, uint256 freeMintIsAllowedUntil) ERC721A(\"Gluttony\", \"GLT-7DS\") {... */\n  callvalue\n  dup1\n  iszero\n  tag_1\n  jumpi\n  0x00\n  dup1\n  revert\ntag_1:\n  pop\n  mload(0x40)\n  sub(codesize, bytecodeSize)\n  dup1\n  bytecodeSize\n  dup4\n  codecopy\n  dup2\n  add\n  0x40\n  dup2\n  swap1\n  mstore\n  tag_2\n  swap2\n  tag_3\n  jump\t// in\ntag_2:\n    /* \"contracts/ERC721A.sol\":2002:2118  constructor(string memory name_, string memory symbol_) {... */\n  mload(0x40)\n  dup1\n  0x40\n  add\n  0x40\n  mstore\n  dup1\n  0x08\n  dup2\n  mstore\n  0x20\n  add\n  shl(0xc0, 0x476c7574746f6e79)\n  dup2\n  mstore\n  pop\n  mload(0x40)\n  dup1\n  0x40\n  add\n  0x40\n  mstore\n  dup1\n  0x07\n  dup2\n  mstore\n  0x20\n  add\n  shl(0xc8, 0x474c542d374453)\n  dup2\n  mstore\n  pop\n    /* \"contracts/ERC721A.sol\":2077:2082  name_ */\n  dup2\n    /* \"contracts/ERC721A.sol\":2069:2074  _name */\n  0x01\n    /* \"contracts/ERC721A.sol\":2069:2082  _name = name_ */\n  swap1\n  dup2\n  tag_9\n  swap2\n  swap1\n  tag_10\n  jump\t// in\ntag_9:\n  pop\n    /* \"contracts/ERC721A.sol\":2093:2100  _symbol */\n  0x02\n    /* \"contracts/ERC721A.sol\":2093:2110  _symbol = symbol_ */\n  tag_11\n    /* \"contracts/ERC721A.sol\":2103:2110  symbol_ */\n  dup3\n    /* \"contracts/ERC721A.sol\":2093:2100  _symbol */\n  dup3\n    /* \"contracts/ERC721A.sol\":2093:2110  _symbol = symbol_ */\n  tag_10\n  jump\t// in\ntag_11:\n  pop\n    /* \"contracts/ERC721A.sol\":2002:2118  constructor(string memory name_, string memory symbol_) {... */\n  pop\n  pop\n    /* \"@openzeppelin/contracts/access/Ownable.sol\":936:968  _transferOwnership(_msgSender()) */\n  tag_13\n    /* \"@openzeppelin/contracts/access/Ownable.sol\":955:967  _msgSender() */\n  tag_14\n    /* \"@openzeppelin/contracts/access/Ownable.sol\":955:965  _msgSender */\n  shl(0x20, tag_15)\n    /* \"@openzeppelin/contracts/access/Ownable.sol\":955:967  _msgSender() */\n  0x20\n  shr\n  jump\t// in\ntag_14:\n    /* \"@openzeppelin/contracts/access/Ownable.sol\":936:954  _transferOwnership */\n  tag_16\n    /* \"@openzeppelin/contracts/access/Ownable.sol\":936:968  _transferOwnership(_msgSender()) */\n  jump\t// in\ntag_13:\n    /* \"@openzeppelin/contracts/security/ReentrancyGuard.sol\":1701:1702  1 */\n  0x01\n    /* \"@openzeppelin/contracts/security/ReentrancyGuard.sol\":1806:1813  _status */\n  0x08\n    /* \"@openzeppelin/contracts/security/ReentrancyGuard.sol\":1806:1828  _status = _NOT_ENTERED */\n  sstore\n    /* \"contracts/Gluttony.sol\":910:915  PRICE */\n  0x09\n    /* \"contracts/Gluttony.sol\":910:923  PRICE = price */\n  dup8\n  swap1\n  sstore\n    /* \"contracts/Gluttony.sol\":934:944  MAX_SUPPLY */\n  0x0a\n    /* \"contracts/Gluttony.sol\":934:956  MAX_SUPPLY = maxSupply */\n  dup7\n  swap1\n  sstore\n    /* \"contracts/Gluttony.sol\":967:975  BASE_URI */\n  0x0b\n    /* \"contracts/Gluttony.sol\":967:985  BASE_URI = baseUri */\n  tag_19\n    /* \"contracts/Gluttony.sol\":978:985  baseUri */\n  dup7\n    /* \"contracts/Gluttony.sol\":967:975  BASE_URI */\n  dup3\n    /* \"contracts/Gluttony.sol\":967:985  BASE_URI = baseUri */\n  tag_10\n  jump\t// in\ntag_19:\n  pop\n    /* \"contracts/Gluttony.sol\":996:1022  FREE_MINT_LIMIT_PER_WALLET */\n  0x0c\n    /* \"contracts/Gluttony.sol\":996:1042  FREE_MINT_LIMIT_PER_WALLET = freeMintAllowance */\n  swap4\n  swap1\n  swap4\n  sstore\n    /* \"contracts/Gluttony.sol\":1053:1075  MAX_MINT_AMOUNT_PER_TX */\n  0x0d\n    /* \"contracts/Gluttony.sol\":1053:1090  MAX_MINT_AMOUNT_PER_TX = maxMintPerTx */\n  swap2\n  swap1\n  swap2\n  sstore\n    /* \"contracts/Gluttony.sol\":1101:1115  IS_SALE_ACTIVE */\n  0x0e\n    /* \"contracts/Gluttony.sol\":1101:1130  IS_SALE_ACTIVE = isSaleActive */\n  dup1\n  sload\n  not(0xff)\n  and\n  swap2\n  iszero\n  iszero\n  swap2\n  swap1\n  swap2\n  or\n  swap1\n  sstore\n    /* \"contracts/Gluttony.sol\":1141:1167  FREE_MINT_IS_ALLOWED_UNTIL */\n  0x0f\n    /* \"contracts/Gluttony.sol\":1141:1192  FREE_MINT_IS_ALLOWED_UNTIL = freeMintIsAllowedUntil */\n  sstore\n  pop\n    /* \"contracts/Gluttony.sol\":207:4328  contract Gluttony is ERC721A, Ownable, ReentrancyGuard {... */\n  tag_29\n  swap2\n  pop\n  pop\n  jump\n    /* \"@openzeppelin/contracts/utils/Context.sol\":640:736  function _msgSender() internal view virtual returns (address) {... */\ntag_15:\n    /* \"@openzeppelin/contracts/utils/Context.sol\":719:729  msg.sender */\n  caller\n  swap1\n    /* \"@openzeppelin/contracts/utils/Context.sol\":640:736  function _msgSender() internal view virtual returns (address) {... */\n  jump\t// out\n    /* \"@openzeppelin/contracts/access/Ownable.sol\":2433:2620  function _transferOwnership(address newOwner) internal virtual {... */\ntag_16:\n    /* \"@openzeppelin/contracts/access/Ownable.sol\":2525:2531  _owner */\n  0x07\n  dup1\n  sload\n  sub(shl(0xa0, 0x01), 0x01)\n    /* \"@openzeppelin/contracts/access/Ownable.sol\":2541:2558  _owner = newOwner */\n  dup4\n  dup2\n  and\n  not(sub(shl(0xa0, 0x01), 0x01))\n  dup4\n  and\n  dup2\n  or\n  swap1\n  swap4\n  sstore\n    /* \"@openzeppelin/contracts/access/Ownable.sol\":2573:2613  OwnershipTransferred(oldOwner, newOwner) */\n  mload(0x40)\n    /* \"@openzeppelin/contracts/access/Ownable.sol\":2525:2531  _owner */\n  swap2\n  and\n  swap2\n    /* \"@openzeppelin/contracts/access/Ownable.sol\":2541:2558  _owner = newOwner */\n  swap1\n    /* \"@openzeppelin/contracts/access/Ownable.sol\":2525:2531  _owner */\n  dup3\n  swap1\n    /* \"@openzeppelin/contracts/access/Ownable.sol\":2573:2613  OwnershipTransferred(oldOwner, newOwner) */\n  0x8be0079c531659141344cd1fd0a4f28419497f9722a3daafe3b4186f6b6457e0\n  swap1\n    /* \"@openzeppelin/contracts/access/Ownable.sol\":2506:2522  address oldOwner */\n  0x00\n  swap1\n    /* \"@openzeppelin/contracts/access/Ownable.sol\":2573:2613  OwnershipTransferred(oldOwner, newOwner) */\n  log3\n    /* \"@openzeppelin/contracts/access/Ownable.sol\":2496:2620  {... */\n  pop\n    /* \"@openzeppelin/contracts/access/Ownable.sol\":2433:2620  function _transferOwnership(address newOwner) internal virtual {... */\n  pop\n  jump\t// out\n    /* \"#utility.yul\":14:141   */\ntag_23:\n    /* \"#utility.yul\":75:85   */\n  0x4e487b71\n    /* \"#utility.yul\":70:73   */\n  0xe0\n    /* \"#utility.yul\":66:86   */\n  shl\n    /* \"#utility.yul\":63:64   */\n  0x00\n    /* \"#utility.yul\":56:87   */\n  mstore\n    /* \"#utility.yul\":106:110   */\n  0x41\n    /* \"#utility.yul\":103:104   */\n  0x04\n    /* \"#utility.yul\":96:111   */\n  mstore\n    /* \"#utility.yul\":130:134   */\n  0x24\n    /* \"#utility.yul\":127:128   */\n  0x00\n    /* \"#utility.yul\":120:135   */\n  revert\n    /* \"#utility.yul\":146:310   */\ntag_24:\n    /* \"#utility.yul\":222:235   */\n  dup1\n  mload\n    /* \"#utility.yul\":271:284   */\n  dup1\n  iszero\n    /* \"#utility.yul\":264:285   */\n  iszero\n    /* \"#utility.yul\":254:286   */\n  dup2\n  eq\n    /* \"#utility.yul\":244:304   */\n  tag_32\n  jumpi\n    /* \"#utility.yul\":300:301   */\n  0x00\n    /* \"#utility.yul\":297:298   */\n  dup1\n    /* \"#utility.yul\":290:302   */\n  revert\n    /* \"#utility.yul\":244:304   */\ntag_32:\n    /* \"#utility.yul\":146:310   */\n  swap2\n  swap1\n  pop\n  jump\t// out\n    /* \"#utility.yul\":315:1745   */\ntag_3:\n    /* \"#utility.yul\":446:452   */\n  0x00\n    /* \"#utility.yul\":454:460   */\n  dup1\n    /* \"#utility.yul\":462:468   */\n  0x00\n    /* \"#utility.yul\":470:476   */\n  dup1\n    /* \"#utility.yul\":478:484   */\n  0x00\n    /* \"#utility.yul\":486:492   */\n  dup1\n    /* \"#utility.yul\":494:500   */\n  0x00\n    /* \"#utility.yul\":547:550   */\n  0xe0\n    /* \"#utility.yul\":535:544   */\n  dup9\n    /* \"#utility.yul\":526:533   */\n  dup11\n    /* \"#utility.yul\":522:545   */\n  sub\n    /* \"#utility.yul\":518:551   */\n  slt\n    /* \"#utility.yul\":515:568   */\n  iszero\n  tag_34\n  jumpi\n    /* \"#utility.yul\":564:565   */\n  0x00\n    /* \"#utility.yul\":561:562   */\n  dup1\n    /* \"#utility.yul\":554:566   */\n  revert\n    /* \"#utility.yul\":515:568   */\ntag_34:\n    /* \"#utility.yul\":587:603   */\n  dup8\n  mload\n    /* \"#utility.yul\":622:624   */\n  0x20\n    /* \"#utility.yul\":649:667   */\n  dup1\n  dup11\n  add\n    /* \"#utility.yul\":643:668   */\n  mload\n    /* \"#utility.yul\":712:714   */\n  0x40\n    /* \"#utility.yul\":697:715   */\n  dup12\n  add\n    /* \"#utility.yul\":691:716   */\n  mload\n    /* \"#utility.yul\":587:603   */\n  swap3\n  swap10\n  pop\n    /* \"#utility.yul\":643:668   */\n  swap8\n  pop\n    /* \"#utility.yul\":622:624   */\n  swap1\n  sub(shl(0x40, 0x01), 0x01)\n    /* \"#utility.yul\":765:779   */\n  dup1\n  dup3\n  gt\n    /* \"#utility.yul\":762:796   */\n  iszero\n  tag_35\n  jumpi\n    /* \"#utility.yul\":792:793   */\n  0x00\n    /* \"#utility.yul\":789:790   */\n  dup1\n    /* \"#utility.yul\":782:794   */\n  revert\n    /* \"#utility.yul\":762:796   */\ntag_35:\n    /* \"#utility.yul\":830:836   */\n  dup2\n    /* \"#utility.yul\":819:828   */\n  dup12\n    /* \"#utility.yul\":815:837   */\n  add\n    /* \"#utility.yul\":805:837   */\n  swap2\n  pop\n    /* \"#utility.yul\":875:882   */\n  dup12\n    /* \"#utility.yul\":868:872   */\n  0x1f\n    /* \"#utility.yul\":864:866   */\n  dup4\n    /* \"#utility.yul\":860:873   */\n  add\n    /* \"#utility.yul\":856:883   */\n  slt\n    /* \"#utility.yul\":846:901   */\n  tag_36\n  jumpi\n    /* \"#utility.yul\":897:898   */\n  0x00\n    /* \"#utility.yul\":894:895   */\n  dup1\n    /* \"#utility.yul\":887:899   */\n  revert\n    /* \"#utility.yul\":846:901   */\ntag_36:\n    /* \"#utility.yul\":926:928   */\n  dup2\n    /* \"#utility.yul\":920:929   */\n  mload\n    /* \"#utility.yul\":948:950   */\n  dup2\n    /* \"#utility.yul\":944:946   */\n  dup2\n    /* \"#utility.yul\":941:951   */\n  gt\n    /* \"#utility.yul\":938:974   */\n  iszero\n  tag_38\n  jumpi\n    /* \"#utility.yul\":954:972   */\n  tag_38\n  tag_23\n  jump\t// in\ntag_38:\n    /* \"#utility.yul\":1029:1031   */\n  0x40\n    /* \"#utility.yul\":1023:1032   */\n  mload\n    /* \"#utility.yul\":997:999   */\n  0x1f\n    /* \"#utility.yul\":1083:1096   */\n  dup3\n  add\n  not(0x1f)\n    /* \"#utility.yul\":1079:1101   */\n  swap1\n  dup2\n  and\n    /* \"#utility.yul\":1103:1105   */\n  0x3f\n    /* \"#utility.yul\":1075:1106   */\n  add\n    /* \"#utility.yul\":1071:1111   */\n  and\n    /* \"#utility.yul\":1059:1112   */\n  dup2\n  add\n  swap1\n    /* \"#utility.yul\":1127:1145   */\n  dup4\n  dup3\n  gt\n    /* \"#utility.yul\":1147:1169   */\n  dup2\n  dup4\n  lt\n    /* \"#utility.yul\":1124:1170   */\n  or\n    /* \"#utility.yul\":1121:1193   */\n  iszero\n  tag_40\n  jumpi\n    /* \"#utility.yul\":1173:1191   */\n  tag_40\n  tag_23\n  jump\t// in\ntag_40:\n    /* \"#utility.yul\":1213:1223   */\n  dup2\n    /* \"#utility.yul\":1209:1211   */\n  0x40\n    /* \"#utility.yul\":1202:1224   */\n  mstore\n    /* \"#utility.yul\":1248:1250   */\n  dup3\n    /* \"#utility.yul\":1240:1246   */\n  dup2\n    /* \"#utility.yul\":1233:1251   */\n  mstore\n    /* \"#utility.yul\":1288:1295   */\n  dup15\n    /* \"#utility.yul\":1283:1285   */\n  dup7\n    /* \"#utility.yul\":1278:1280   */\n  dup5\n    /* \"#utility.yul\":1274:1276   */\n  dup8\n    /* \"#utility.yul\":1270:1281   */\n  add\n    /* \"#utility.yul\":1266:1286   */\n  add\n    /* \"#utility.yul\":1263:1296   */\n  gt\n    /* \"#utility.yul\":1260:1313   */\n  iszero\n  tag_41\n  jumpi\n    /* \"#utility.yul\":1309:1310   */\n  0x00\n    /* \"#utility.yul\":1306:1307   */\n  dup1\n    /* \"#utility.yul\":1299:1311   */\n  revert\n    /* \"#utility.yul\":1260:1313   */\ntag_41:\n    /* \"#utility.yul\":1331:1332   */\n  0x00\n    /* \"#utility.yul\":1322:1332   */\n  swap4\n  pop\n    /* \"#utility.yul\":1341:1470   */\ntag_42:\n    /* \"#utility.yul\":1355:1357   */\n  dup3\n    /* \"#utility.yul\":1352:1353   */\n  dup5\n    /* \"#utility.yul\":1349:1358   */\n  lt\n    /* \"#utility.yul\":1341:1470   */\n  iszero\n  tag_44\n  jumpi\n    /* \"#utility.yul\":1443:1453   */\n  dup5\n  dup5\n  add\n    /* \"#utility.yul\":1439:1458   */\n  dup7\n  add\n    /* \"#utility.yul\":1433:1459   */\n  mload\n    /* \"#utility.yul\":1412:1426   */\n  dup2\n  dup6\n  add\n    /* \"#utility.yul\":1408:1431   */\n  dup8\n  add\n    /* \"#utility.yul\":1401:1460   */\n  mstore\n    /* \"#utility.yul\":1366:1376   */\n  swap3\n  dup6\n  add\n  swap3\n    /* \"#utility.yul\":1341:1470   */\n  jump(tag_42)\ntag_44:\n    /* \"#utility.yul\":1512:1513   */\n  0x00\n    /* \"#utility.yul\":1507:1509   */\n  dup7\n    /* \"#utility.yul\":1502:1504   */\n  dup5\n    /* \"#utility.yul\":1494:1500   */\n  dup4\n    /* \"#utility.yul\":1490:1505   */\n  add\n    /* \"#utility.yul\":1486:1510   */\n  add\n    /* \"#utility.yul\":1479:1514   */\n  mstore\n    /* \"#utility.yul\":1533:1539   */\n  dup1\n    /* \"#utility.yul\":1523:1539   */\n  swap11\n  pop\n  pop\n  pop\n  pop\n  pop\n  pop\n  pop\n    /* \"#utility.yul\":1579:1581   */\n  0x60\n    /* \"#utility.yul\":1568:1577   */\n  dup9\n    /* \"#utility.yul\":1564:1582   */\n  add\n    /* \"#utility.yul\":1558:1583   */\n  mload\n    /* \"#utility.yul\":1548:1583   */\n  swap4\n  pop\n    /* \"#utility.yul\":1623:1626   */\n  0x80\n    /* \"#utility.yul\":1612:1621   */\n  dup9\n    /* \"#utility.yul\":1608:1627   */\n  add\n    /* \"#utility.yul\":1602:1628   */\n  mload\n    /* \"#utility.yul\":1592:1628   */\n  swap3\n  pop\n    /* \"#utility.yul\":1647:1694   */\n  tag_45\n    /* \"#utility.yul\":1689:1692   */\n  0xa0\n    /* \"#utility.yul\":1678:1687   */\n  dup10\n    /* \"#utility.yul\":1674:1693   */\n  add\n    /* \"#utility.yul\":1647:1694   */\n  tag_24\n  jump\t// in\ntag_45:\n    /* \"#utility.yul\":1637:1694   */\n  swap2\n  pop\n    /* \"#utility.yul\":1734:1737   */\n  0xc0\n    /* \"#utility.yul\":1723:1732   */\n  dup9\n    /* \"#utility.yul\":1719:1738   */\n  add\n    /* \"#utility.yul\":1713:1739   */\n  mload\n    /* \"#utility.yul\":1703:1739   */\n  swap1\n  pop\n    /* \"#utility.yul\":315:1745   */\n  swap3\n  swap6\n  swap9\n  swap2\n  swap5\n  swap8\n  pop\n  swap3\n  swap6\n  pop\n  jump\t// out\n    /* \"#utility.yul\":1750:2130   */\ntag_25:\n    /* \"#utility.yul\":1829:1830   */\n  0x01\n    /* \"#utility.yul\":1825:1837   */\n  dup2\n  dup2\n  shr\n  swap1\n    /* \"#utility.yul\":1872:1884   */\n  dup3\n  and\n  dup1\n    /* \"#utility.yul\":1893:1954   */\n  tag_47\n  jumpi\n    /* \"#utility.yul\":1947:1951   */\n  0x7f\n    /* \"#utility.yul\":1939:1945   */\n  dup3\n    /* \"#utility.yul\":1935:1952   */\n  and\n    /* \"#utility.yul\":1925:1952   */\n  swap2\n  pop\n    /* \"#utility.yul\":1893:1954   */\ntag_47:\n    /* \"#utility.yul\":2000:2002   */\n  0x20\n    /* \"#utility.yul\":1992:1998   */\n  dup3\n    /* \"#utility.yul\":1989:2003   */\n  lt\n    /* \"#utility.yul\":1969:1987   */\n  dup2\n    /* \"#utility.yul\":1966:2004   */\n  sub\n    /* \"#utility.yul\":1963:2124   */\n  tag_48\n  jumpi\n    /* \"#utility.yul\":2046:2056   */\n  0x4e487b71\n    /* \"#utility.yul\":2041:2044   */\n  0xe0\n    /* \"#utility.yul\":2037:2057   */\n  shl\n    /* \"#utility.yul\":2034:2035   */\n  0x00\n    /* \"#utility.yul\":2027:2058   */\n  mstore\n    /* \"#utility.yul\":2081:2085   */\n  0x22\n    /* \"#utility.yul\":2078:2079   */\n  0x04\n    /* \"#utility.yul\":2071:2086   */\n  mstore\n    /* \"#utility.yul\":2109:2113   */\n  0x24\n    /* \"#utility.yul\":2106:2107   */\n  0x00\n    /* \"#utility.yul\":2099:2114   */\n  revert\n    /* \"#utility.yul\":1963:2124   */\ntag_48:\n  pop\n    /* \"#utility.yul\":1750:2130   */\n  swap2\n  swap1\n  pop\n  jump\t// out\n    /* \"#utility.yul\":2261:2806   */\ntag_27:\n    /* \"#utility.yul\":2363:2365   */\n  0x1f\n    /* \"#utility.yul\":2358:2361   */\n  dup3\n    /* \"#utility.yul\":2355:2366   */\n  gt\n    /* \"#utility.yul\":2352:2800   */\n  iszero\n  tag_51\n  jumpi\n    /* \"#utility.yul\":2399:2400   */\n  0x00\n    /* \"#utility.yul\":2424:2429   */\n  dup2\n    /* \"#utility.yul\":2420:2422   */\n  dup2\n    /* \"#utility.yul\":2413:2430   */\n  mstore\n    /* \"#utility.yul\":2469:2473   */\n  0x20\n    /* \"#utility.yul\":2465:2467   */\n  dup2\n    /* \"#utility.yul\":2455:2474   */\n  keccak256\n    /* \"#utility.yul\":2539:2541   */\n  0x1f\n    /* \"#utility.yul\":2527:2537   */\n  dup6\n    /* \"#utility.yul\":2523:2542   */\n  add\n    /* \"#utility.yul\":2520:2521   */\n  0x05\n    /* \"#utility.yul\":2516:2543   */\n  shr\n    /* \"#utility.yul\":2510:2514   */\n  dup2\n    /* \"#utility.yul\":2506:2544   */\n  add\n    /* \"#utility.yul\":2575:2579   */\n  0x20\n    /* \"#utility.yul\":2563:2573   */\n  dup7\n    /* \"#utility.yul\":2560:2580   */\n  lt\n    /* \"#utility.yul\":2557:2604   */\n  iszero\n  tag_52\n  jumpi\n  pop\n    /* \"#utility.yul\":2598:2602   */\n  dup1\n    /* \"#utility.yul\":2557:2604   */\ntag_52:\n    /* \"#utility.yul\":2653:2655   */\n  0x1f\n    /* \"#utility.yul\":2648:2651   */\n  dup6\n    /* \"#utility.yul\":2644:2656   */\n  add\n    /* \"#utility.yul\":2641:2642   */\n  0x05\n    /* \"#utility.yul\":2637:2657   */\n  shr\n    /* \"#utility.yul\":2631:2635   */\n  dup3\n    /* \"#utility.yul\":2627:2658   */\n  add\n    /* \"#utility.yul\":2617:2658   */\n  swap2\n  pop\n    /* \"#utility.yul\":2708:2790   */\ntag_53:\n    /* \"#utility.yul\":2726:2728   */\n  dup2\n    /* \"#utility.yul\":2719:2724   */\n  dup2\n    /* \"#utility.yul\":2716:2729   */\n  lt\n    /* \"#utility.yul\":2708:2790   */\n  iszero\n  tag_55\n  jumpi\n    /* \"#utility.yul\":2771:2788   */\n  dup3\n  dup2\n  sstore\n    /* \"#utility.yul\":2752:2753   */\n  0x01\n    /* \"#utility.yul\":2741:2754   */\n  add\n    /* \"#utility.yul\":2708:2790   */\n  jump(tag_53)\ntag_55:\n    /* \"#utility.yul\":2712:2715   */\n  pop\n  pop\n  pop\n    /* \"#utility.yul\":2352:2800   */\ntag_51:\n    /* \"#utility.yul\":2261:2806   */\n  pop\n  pop\n  pop\n  jump\t// out\n    /* \"#utility.yul\":2982:4334   */\ntag_10:\n    /* \"#utility.yul\":3102:3112   */\n  dup2\n  mload\n  sub(shl(0x40, 0x01), 0x01)\n    /* \"#utility.yul\":3124:3154   */\n  dup2\n  gt\n    /* \"#utility.yul\":3121:3177   */\n  iszero\n  tag_59\n  jumpi\n    /* \"#utility.yul\":3157:3175   */\n  tag_59\n  tag_23\n  jump\t// in\ntag_59:\n    /* \"#utility.yul\":3186:3283   */\n  tag_60\n    /* \"#utility.yul\":3276:3282   */\n  dup2\n    /* \"#utility.yul\":3236:3274   */\n  tag_61\n    /* \"#utility.yul\":3268:3272   */\n  dup5\n    /* \"#utility.yul\":3262:3273   */\n  sload\n    /* \"#utility.yul\":3236:3274   */\n  tag_25\n  jump\t// in\ntag_61:\n    /* \"#utility.yul\":3230:3234   */\n  dup5\n    /* \"#utility.yul\":3186:3283   */\n  tag_27\n  jump\t// in\ntag_60:\n    /* \"#utility.yul\":3338:3342   */\n  0x20\n  dup1\n    /* \"#utility.yul\":3402:3404   */\n  0x1f\n    /* \"#utility.yul\":3391:3405   */\n  dup4\n  gt\n    /* \"#utility.yul\":3419:3420   */\n  0x01\n    /* \"#utility.yul\":3414:4077   */\n  dup2\n  eq\n  tag_63\n  jumpi\n    /* \"#utility.yul\":4121:4122   */\n  0x00\n    /* \"#utility.yul\":4138:4144   */\n  dup5\n    /* \"#utility.yul\":4135:4224   */\n  iszero\n  tag_64\n  jumpi\n  pop\n    /* \"#utility.yul\":4190:4209   */\n  dup6\n  dup4\n  add\n    /* \"#utility.yul\":4184:4210   */\n  mload\n    /* \"#utility.yul\":4135:4224   */\ntag_64:\n  not(0x00)\n    /* \"#utility.yul\":2939:2940   */\n  0x03\n    /* \"#utility.yul\":2935:2946   */\n  dup7\n  swap1\n  shl\n    /* \"#utility.yul\":2931:2955   */\n  shr\n    /* \"#utility.yul\":2927:2956   */\n  not\n    /* \"#utility.yul\":2917:2957   */\n  and\n    /* \"#utility.yul\":2963:2964   */\n  0x01\n    /* \"#utility.yul\":2959:2970   */\n  dup6\n  swap1\n  shl\n    /* \"#utility.yul\":2914:2971   */\n  or\n    /* \"#utility.yul\":4237:4318   */\n  dup6\n  sstore\n    /* \"#utility.yul\":3384:4328   */\n  jump(tag_55)\n    /* \"#utility.yul\":3414:4077   */\ntag_63:\n    /* \"#utility.yul\":2208:2209   */\n  0x00\n    /* \"#utility.yul\":2201:2215   */\n  dup6\n  dup2\n  mstore\n    /* \"#utility.yul\":2245:2249   */\n  0x20\n    /* \"#utility.yul\":2232:2250   */\n  dup2\n  keccak256\n  not(0x1f)\n    /* \"#utility.yul\":3450:3470   */\n  dup7\n  and\n  swap2\n    /* \"#utility.yul\":3568:3804   */\ntag_67:\n    /* \"#utility.yul\":3582:3589   */\n  dup3\n    /* \"#utility.yul\":3579:3580   */\n  dup2\n    /* \"#utility.yul\":3576:3590   */\n  lt\n    /* \"#utility.yul\":3568:3804   */\n  iszero\n  tag_69\n  jumpi\n    /* \"#utility.yul\":3671:3690   */\n  dup9\n  dup7\n  add\n    /* \"#utility.yul\":3665:3691   */\n  mload\n    /* \"#utility.yul\":3650:3692   */\n  dup3\n  sstore\n    /* \"#utility.yul\":3763:3790   */\n  swap5\n  dup5\n  add\n  swap5\n    /* \"#utility.yul\":3731:3732   */\n  0x01\n    /* \"#utility.yul\":3719:3733   */\n  swap1\n  swap2\n  add\n  swap1\n    /* \"#utility.yul\":3598:3617   */\n  dup5\n  add\n    /* \"#utility.yul\":3568:3804   */\n  jump(tag_67)\ntag_69:\n    /* \"#utility.yul\":3572:3575   */\n  pop\n    /* \"#utility.yul\":3832:3838   */\n  dup6\n    /* \"#utility.yul\":3823:3830   */\n  dup3\n    /* \"#utility.yul\":3820:3839   */\n  lt\n    /* \"#utility.yul\":3817:4018   */\n  iszero\n  tag_70\n  jumpi\n    /* \"#utility.yul\":3893:3912   */\n  dup8\n  dup6\n  add\n    /* \"#utility.yul\":3887:3913   */\n  mload\n  not(0x00)\n    /* \"#utility.yul\":3976:3977   */\n  0x03\n    /* \"#utility.yul\":3972:3986   */\n  dup9\n  swap1\n  shl\n    /* \"#utility.yul\":3988:3991   */\n  0xf8\n    /* \"#utility.yul\":3968:3992   */\n  and\n    /* \"#utility.yul\":3964:4001   */\n  shr\n    /* \"#utility.yul\":3960:4002   */\n  not\n    /* \"#utility.yul\":3945:4003   */\n  and\n    /* \"#utility.yul\":3930:4004   */\n  dup2\n  sstore\n    /* \"#utility.yul\":3817:4018   */\ntag_70:\n  pop\n  pop\n  pop\n  pop\n  pop\n    /* \"#utility.yul\":4064:4065   */\n  0x01\n    /* \"#utility.yul\":4048:4062   */\n  swap1\n  dup2\n  shl\n    /* \"#utility.yul\":4044:4066   */\n  add\n    /* \"#utility.yul\":4031:4067   */\n  swap1\n  sstore\n  pop\n    /* \"#utility.yul\":2982:4334   */\n  jump\t// out\ntag_29:\n    /* \"contracts/Gluttony.sol\":207:4328  contract Gluttony is ERC721A, Ownable, ReentrancyGuard {... */\n  dataSize(sub_0)\n  dup1\n  dataOffset(sub_0)\n  0x00\n  codecopy\n  0x00\n  return\nstop\n\nsub_0: assembly {\n        /* \"contracts/Gluttony.sol\":207:4328  contract Gluttony is ERC721A, Ownable, ReentrancyGuard {... */\n      mstore(0x40, 0x80)\n      jumpi(tag_1, lt(calldatasize, 0x04))\n      shr(0xe0, calldataload(0x00))\n      dup1\n      0x715018a6\n      gt\n      tag_37\n      jumpi\n      dup1\n      0xa22cb465\n      gt\n      tag_38\n      jumpi\n      dup1\n      0xc87b56dd\n      gt\n      tag_39\n      jumpi\n      dup1\n      0xc87b56dd\n      eq\n      tag_32\n      jumpi\n      dup1\n      0xd111515d\n      eq\n      tag_33\n      jumpi\n      dup1\n      0xe985e9c5\n      eq\n      tag_34\n      jumpi\n      dup1\n      0xf2fde38b\n      eq\n      tag_35\n      jumpi\n      dup1\n      0xfdb4953a\n      eq\n      tag_36\n      jumpi\n      0x00\n      dup1\n      revert\n    tag_39:\n      dup1\n      0xa22cb465\n      eq\n      tag_28\n      jumpi\n      dup1\n      0xb0551ac4\n      eq\n      tag_29\n      jumpi\n      dup1\n      0xb88d4fde\n      eq\n      tag_30\n      jumpi\n      dup1\n      0xc4e9374d\n      eq\n      tag_31\n      jumpi\n      0x00\n      dup1\n      revert\n    tag_38:\n      dup1\n      0x8d859f3e\n      gt\n      tag_40\n      jumpi\n      dup1\n      0x8d859f3e\n      eq\n      tag_23\n      jumpi\n      dup1\n      0x8da5cb5b\n      eq\n      tag_24\n      jumpi\n      dup1\n      0x91b7f5ed\n      eq\n      tag_25\n      jumpi\n      dup1\n      0x95d89b41\n      eq\n      tag_26\n      jumpi\n      dup1\n      0xa0712d68\n      eq\n      tag_27\n      jumpi\n      0x00\n      dup1\n      revert\n    tag_40:\n      dup1\n      0x715018a6\n      eq\n      tag_19\n      jumpi\n      dup1\n      0x76d02b71\n      eq\n      tag_20\n      jumpi\n      dup1\n      0x841718a6\n      eq\n      tag_21\n      jumpi\n      dup1\n      0x8b85e43d\n      eq\n      tag_22\n      jumpi\n      0x00\n      dup1\n      revert\n    tag_37:\n      dup1\n      0x32cb6b0c\n      gt\n      tag_41\n      jumpi\n      dup1\n      0x42842e0e\n      gt\n      tag_42\n      jumpi\n      dup1\n      0x42842e0e\n      eq\n      tag_14\n      jumpi\n      dup1\n      0x55f804b3\n      eq\n      tag_15\n      jumpi\n      dup1\n      0x616cdb1e\n      eq\n      tag_16\n      jumpi\n      dup1\n      0x6352211e\n      eq\n      tag_17\n      jumpi\n      dup1\n      0x70a08231\n      eq\n      tag_18\n      jumpi\n      0x00\n      dup1\n      revert\n    tag_42:\n      dup1\n      0x32cb6b0c\n      eq\n      tag_10\n      jumpi\n      dup1\n      0x3ccfd60b\n      eq\n      tag_11\n      jumpi\n      dup1\n      0x4065b85f\n      eq\n      tag_12\n      jumpi\n      dup1\n      0x408cbf94\n      eq\n      tag_13\n      jumpi\n      0x00\n      dup1\n      revert\n    tag_41:\n      dup1\n      0x09ef6527\n      gt\n      tag_43\n      jumpi\n      dup1\n      0x09ef6527\n      eq\n      tag_6\n      jumpi\n      dup1\n      0x10b0c052\n      eq\n      tag_7\n      jumpi\n      dup1\n      0x18160ddd\n      eq\n      tag_8\n      jumpi\n      dup1\n      0x23b872dd\n      eq\n      tag_9\n      jumpi\n      0x00\n      dup1\n      revert\n    tag_43:\n      dup1\n      0x01ffc9a7\n      eq\n      tag_2\n      jumpi\n      dup1\n      0x06fdde03\n      eq\n      tag_3\n      jumpi\n      dup1\n      0x081812fc\n      eq\n      tag_4\n      jumpi\n      dup1\n      0x095ea7b3\n      eq\n      tag_5\n      jumpi\n    tag_1:\n      0x00\n      dup1\n      revert\n        /* \"contracts/ERC721A.sol\":2289:2582  function supportsInterface(bytes4 interfaceId) public view virtual override(ERC165, IERC165) returns (bool) {... */\n    tag_2:\n      callvalue\n      dup1\n      iszero\n      tag_44\n      jumpi\n      0x00\n      dup1\n      revert\n    tag_44:\n      pop\n      tag_45\n      tag_46\n      calldatasize\n      0x04\n      tag_47\n      jump\t// in\n    tag_46:\n      tag_48\n      jump\t// in\n    tag_45:\n      mload(0x40)\n        /* \"#utility.yul\":565:579   */\n      swap1\n      iszero\n        /* \"#utility.yul\":558:580   */\n      iszero\n        /* \"#utility.yul\":540:581   */\n      dup2\n      mstore\n        /* \"#utility.yul\":528:530   */\n      0x20\n        /* \"#utility.yul\":513:531   */\n      add\n        /* \"contracts/ERC721A.sol\":2289:2582  function supportsInterface(bytes4 interfaceId) public view virtual override(ERC165, IERC165) returns (bool) {... */\n    tag_49:\n      mload(0x40)\n      dup1\n      swap2\n      sub\n      swap1\n      return\n        /* \"contracts/ERC721A.sol\":4064:4164  function name() public view virtual override returns (string memory) {... */\n    tag_3:\n      callvalue\n      dup1\n      iszero\n      tag_51\n      jumpi\n      0x00\n      dup1\n      revert\n    tag_51:\n      pop\n      tag_52\n      tag_53\n      jump\t// in\n    tag_52:\n      mload(0x40)\n      tag_49\n      swap2\n      swap1\n      tag_55\n      jump\t// in\n        /* \"contracts/ERC721A.sol\":5626:5840  function getApproved(uint256 tokenId) public view override returns (address) {... */\n    tag_4:\n      callvalue\n      dup1\n      iszero\n      tag_56\n      jumpi\n      0x00\n      dup1\n      revert\n    tag_56:\n      pop\n      tag_57\n      tag_58\n      calldatasize\n      0x04\n      tag_59\n      jump\t// in\n    tag_58:\n      tag_60\n      jump\t// in\n    tag_57:\n      mload(0x40)\n      sub(shl(0xa0, 0x01), 0x01)\n        /* \"#utility.yul\":1697:1729   */\n      swap1\n      swap2\n      and\n        /* \"#utility.yul\":1679:1730   */\n      dup2\n      mstore\n        /* \"#utility.yul\":1667:1669   */\n      0x20\n        /* \"#utility.yul\":1652:1670   */\n      add\n        /* \"contracts/ERC721A.sol\":5626:5840  function getApproved(uint256 tokenId) public view override returns (address) {... */\n      tag_49\n        /* \"#utility.yul\":1533:1736   */\n      jump\n        /* \"contracts/ERC721A.sol\":5147:5560  function approve(address to, uint256 tokenId) public override {... */\n    tag_5:\n      callvalue\n      dup1\n      iszero\n      tag_63\n      jumpi\n      0x00\n      dup1\n      revert\n    tag_63:\n      pop\n      tag_64\n      tag_65\n      calldatasize\n      0x04\n      tag_66\n      jump\t// in\n    tag_65:\n      tag_67\n      jump\t// in\n    tag_64:\n      stop\n        /* \"contracts/Gluttony.sol\":440:477  uint256 public MAX_MINT_AMOUNT_PER_TX */\n    tag_6:\n      callvalue\n      dup1\n      iszero\n      tag_68\n      jumpi\n      0x00\n      dup1\n      revert\n    tag_68:\n      pop\n      tag_69\n      sload(0x0d)\n      dup2\n      jump\n    tag_69:\n      mload(0x40)\n        /* \"#utility.yul\":2324:2349   */\n      swap1\n      dup2\n      mstore\n        /* \"#utility.yul\":2312:2314   */\n      0x20\n        /* \"#utility.yul\":2297:2315   */\n      add\n        /* \"contracts/Gluttony.sol\":440:477  uint256 public MAX_MINT_AMOUNT_PER_TX */\n      tag_49\n        /* \"#utility.yul\":2178:2355   */\n      jump\n        /* \"contracts/Gluttony.sol\":392:433  uint256 public FREE_MINT_LIMIT_PER_WALLET */\n    tag_7:\n      callvalue\n      dup1\n      iszero\n      tag_73\n      jumpi\n      0x00\n      dup1\n      revert\n    tag_73:\n      pop\n      tag_69\n      sload(0x0c)\n      dup2\n      jump\n        /* \"contracts/ERC721A.sol\":2126:2217  function totalSupply() public view returns (uint256) {... */\n    tag_8:\n      callvalue\n      dup1\n      iszero\n      tag_77\n      jumpi\n      0x00\n      dup1\n      revert\n    tag_77:\n      pop\n        /* \"contracts/ERC721A.sol\":2170:2177  uint256 */\n      0x00\n        /* \"contracts/ERC721A.sol\":2197:2209  currentIndex */\n      sload\n        /* \"contracts/ERC721A.sol\":2126:2217  function totalSupply() public view returns (uint256) {... */\n      jump(tag_69)\n        /* \"contracts/ERC721A.sol\":6502:6664  function transferFrom(... */\n    tag_9:\n      callvalue\n      dup1\n      iszero\n      tag_81\n      jumpi\n      0x00\n      dup1\n      revert\n    tag_81:\n      pop\n      tag_64\n      tag_83\n      calldatasize\n      0x04\n      tag_84\n      jump\t// in\n    tag_83:\n      tag_85\n      jump\t// in\n        /* \"contracts/Gluttony.sol\":330:355  uint256 public MAX_SUPPLY */\n    tag_10:\n      callvalue\n      dup1\n      iszero\n      tag_86\n      jumpi\n      0x00\n      dup1\n      revert\n    tag_86:\n      pop\n      tag_69\n      sload(0x0a)\n      dup2\n      jump\n        /* \"contracts/Gluttony.sol\":4154:4325  function withdraw() public onlyOwner nonReentrant {... */\n    tag_11:\n      callvalue\n      dup1\n      iszero\n      tag_90\n      jumpi\n      0x00\n      dup1\n      revert\n    tag_90:\n      pop\n      tag_64\n      tag_92\n      jump\t// in\n        /* \"contracts/Gluttony.sol\":517:558  uint256 public FREE_MINT_IS_ALLOWED_UNTIL */\n    tag_12:\n      callvalue\n      dup1\n      iszero\n      tag_93\n      jumpi\n      0x00\n      dup1\n      revert\n    tag_93:\n      pop\n      tag_69\n      sload(0x0f)\n      dup2\n      jump\n        /* \"contracts/Gluttony.sol\":3883:4027  function mintOwner(address _to, uint256 _mintAmount) public mintCompliance(_mintAmount) onlyOwner {... */\n    tag_13:\n      callvalue\n      dup1\n      iszero\n      tag_97\n      jumpi\n      0x00\n      dup1\n      revert\n    tag_97:\n      pop\n      tag_64\n      tag_99\n      calldatasize\n      0x04\n      tag_66\n      jump\t// in\n    tag_99:\n      tag_100\n      jump\t// in\n        /* \"contracts/ERC721A.sol\":6735:6912  function safeTransferFrom(... */\n    tag_14:\n      callvalue\n      dup1\n      iszero\n      tag_101\n      jumpi\n      0x00\n      dup1\n      revert\n    tag_101:\n      pop\n      tag_64\n      tag_103\n      calldatasize\n      0x04\n      tag_84\n      jump\t// in\n    tag_103:\n      tag_104\n      jump\t// in\n        /* \"contracts/Gluttony.sol\":1890:2059  function setBaseURI(string memory customBaseURI_) external onlyOwner {... */\n    tag_15:\n      callvalue\n      dup1\n      iszero\n      tag_105\n      jumpi\n      0x00\n      dup1\n      revert\n    tag_105:\n      pop\n      tag_64\n      tag_107\n      calldatasize\n      0x04\n      tag_108\n      jump\t// in\n    tag_107:\n      tag_109\n      jump\t// in\n        /* \"contracts/Gluttony.sol\":2216:2338  function setMaxMintPerTx(uint256 maxMintPerTx) external onlyOwner {... */\n    tag_16:\n      callvalue\n      dup1\n      iszero\n      tag_110\n      jumpi\n      0x00\n      dup1\n      revert\n    tag_110:\n      pop\n      tag_64\n      tag_112\n      calldatasize\n      0x04\n      tag_59\n      jump\t// in\n    tag_112:\n      tag_113\n      jump\t// in\n        /* \"contracts/ERC721A.sol\":3873:3997  function ownerOf(uint256 tokenId) public view override returns (address) {... */\n    tag_17:\n      callvalue\n      dup1\n      iszero\n      tag_114\n      jumpi\n      0x00\n      dup1\n      revert\n    tag_114:\n      pop\n      tag_57\n      tag_116\n      calldatasize\n      0x04\n      tag_59\n      jump\t// in\n    tag_116:\n      tag_117\n      jump\t// in\n        /* \"contracts/ERC721A.sol\":2646:2867  function balanceOf(address owner) public view override returns (uint256) {... */\n    tag_18:\n      callvalue\n      dup1\n      iszero\n      tag_119\n      jumpi\n      0x00\n      dup1\n      revert\n    tag_119:\n      pop\n      tag_69\n      tag_121\n      calldatasize\n      0x04\n      tag_122\n      jump\t// in\n    tag_121:\n      tag_123\n      jump\t// in\n        /* \"@openzeppelin/contracts/access/Ownable.sol\":1831:1932  function renounceOwnership() public virtual onlyOwner {... */\n    tag_19:\n      callvalue\n      dup1\n      iszero\n      tag_125\n      jumpi\n      0x00\n      dup1\n      revert\n    tag_125:\n      pop\n      tag_64\n      tag_127\n      jump\t// in\n        /* \"contracts/Gluttony.sol\":484:510  bool public IS_SALE_ACTIVE */\n    tag_20:\n      callvalue\n      dup1\n      iszero\n      tag_128\n      jumpi\n      0x00\n      dup1\n      revert\n    tag_128:\n      pop\n      sload(0x0e)\n      tag_45\n      swap1\n      0xff\n      and\n      dup2\n      jump\n        /* \"contracts/Gluttony.sol\":2346:2455  function setSaleActive(bool saleIsActive) external onlyOwner {... */\n    tag_21:\n      callvalue\n      dup1\n      iszero\n      tag_132\n      jumpi\n      0x00\n      dup1\n      revert\n    tag_132:\n      pop\n      tag_64\n      tag_134\n      calldatasize\n      0x04\n      tag_135\n      jump\t// in\n    tag_134:\n      tag_136\n      jump\t// in\n        /* \"contracts/Gluttony.sol\":2463:2617  function setFreeMintAllowedUntil(uint256 freeMintIsAllowedUntil) external onlyOwner {... */\n    tag_22:\n      callvalue\n      dup1\n      iszero\n      tag_137\n      jumpi\n      0x00\n      dup1\n      revert\n    tag_137:\n      pop\n      tag_64\n      tag_139\n      calldatasize\n      0x04\n      tag_59\n      jump\t// in\n    tag_139:\n      tag_140\n      jump\t// in\n        /* \"contracts/Gluttony.sol\":303:323  uint256 public PRICE */\n    tag_23:\n      callvalue\n      dup1\n      iszero\n      tag_141\n      jumpi\n      0x00\n      dup1\n      revert\n    tag_141:\n      pop\n      tag_69\n      sload(0x09)\n      dup2\n      jump\n        /* \"@openzeppelin/contracts/access/Ownable.sol\":1201:1286  function owner() public view virtual returns (address) {... */\n    tag_24:\n      callvalue\n      dup1\n      iszero\n      tag_145\n      jumpi\n      0x00\n      dup1\n      revert\n    tag_145:\n      pop\n        /* \"@openzeppelin/contracts/access/Ownable.sol\":1273:1279  _owner */\n      and(sub(shl(0xa0, 0x01), 0x01), sload(0x07))\n        /* \"@openzeppelin/contracts/access/Ownable.sol\":1201:1286  function owner() public view virtual returns (address) {... */\n      jump(tag_57)\n        /* \"contracts/Gluttony.sol\":1524:1620  function setPrice(uint256 customPrice) external onlyOwner {... */\n    tag_25:\n      callvalue\n      dup1\n      iszero\n      tag_149\n      jumpi\n      0x00\n      dup1\n      revert\n    tag_149:\n      pop\n      tag_64\n      tag_151\n      calldatasize\n      0x04\n      tag_59\n      jump\t// in\n    tag_151:\n      tag_152\n      jump\t// in\n        /* \"contracts/ERC721A.sol\":4233:4337  function symbol() public view virtual override returns (string memory) {... */\n    tag_26:\n      callvalue\n      dup1\n      iszero\n      tag_153\n      jumpi\n      0x00\n      dup1\n      revert\n    tag_153:\n      pop\n      tag_52\n      tag_155\n      jump\t// in\n        /* \"contracts/Gluttony.sol\":2996:3875  function mint(uint256 _mintAmount) public payable mintCompliance(_mintAmount) {... */\n    tag_27:\n      tag_64\n      tag_158\n      calldatasize\n      0x04\n      tag_59\n      jump\t// in\n    tag_158:\n      tag_159\n      jump\t// in\n        /* \"contracts/ERC721A.sol\":5912:6200  function setApprovalForAll(address operator, bool approved) public override {... */\n    tag_28:\n      callvalue\n      dup1\n      iszero\n      tag_160\n      jumpi\n      0x00\n      dup1\n      revert\n    tag_160:\n      pop\n      tag_64\n      tag_162\n      calldatasize\n      0x04\n      tag_163\n      jump\t// in\n    tag_162:\n      tag_164\n      jump\t// in\n        /* \"contracts/Gluttony.sol\":2067:2208  function setFreeMintAllowance(uint256 freeMintAllowance) external onlyOwner {... */\n    tag_29:\n      callvalue\n      dup1\n      iszero\n      tag_165\n      jumpi\n      0x00\n      dup1\n      revert\n    tag_165:\n      pop\n      tag_64\n      tag_167\n      calldatasize\n      0x04\n      tag_59\n      jump\t// in\n    tag_167:\n      tag_168\n      jump\t// in\n        /* \"contracts/ERC721A.sol\":6983:7338  function safeTransferFrom(... */\n    tag_30:\n      callvalue\n      dup1\n      iszero\n      tag_169\n      jumpi\n      0x00\n      dup1\n      revert\n    tag_169:\n      pop\n      tag_64\n      tag_171\n      calldatasize\n      0x04\n      tag_172\n      jump\t// in\n    tag_171:\n      tag_173\n      jump\t// in\n        /* \"contracts/Gluttony.sol\":1628:1882  function lowerMaxSupply(uint256 newMaxSupply) external onlyOwner {... */\n    tag_31:\n      callvalue\n      dup1\n      iszero\n      tag_174\n      jumpi\n      0x00\n      dup1\n      revert\n    tag_174:\n      pop\n      tag_64\n      tag_176\n      calldatasize\n      0x04\n      tag_59\n      jump\t// in\n    tag_176:\n      tag_177\n      jump\t// in\n        /* \"contracts/ERC721A.sol\":4408:4743  function tokenURI(uint256 tokenId) public view virtual override returns (string memory) {... */\n    tag_32:\n      callvalue\n      dup1\n      iszero\n      tag_178\n      jumpi\n      0x00\n      dup1\n      revert\n    tag_178:\n      pop\n      tag_52\n      tag_180\n      calldatasize\n      0x04\n      tag_59\n      jump\t// in\n    tag_180:\n      tag_181\n      jump\t// in\n        /* \"contracts/Gluttony.sol\":2625:2711  function freezeMetadata() external onlyOwner {... */\n    tag_33:\n      callvalue\n      dup1\n      iszero\n      tag_183\n      jumpi\n      0x00\n      dup1\n      revert\n    tag_183:\n      pop\n      tag_64\n      tag_185\n      jump\t// in\n        /* \"contracts/ERC721A.sol\":6271:6435  function isApprovedForAll(address owner, address operator) public view virtual override returns (bool) {... */\n    tag_34:\n      callvalue\n      dup1\n      iszero\n      tag_186\n      jumpi\n      0x00\n      dup1\n      revert\n    tag_186:\n      pop\n      tag_45\n      tag_188\n      calldatasize\n      0x04\n      tag_189\n      jump\t// in\n    tag_188:\n      tag_190\n      jump\t// in\n        /* \"@openzeppelin/contracts/access/Ownable.sol\":2081:2279  function transferOwnership(address newOwner) public virtual onlyOwner {... */\n    tag_35:\n      callvalue\n      dup1\n      iszero\n      tag_192\n      jumpi\n      0x00\n      dup1\n      revert\n    tag_192:\n      pop\n      tag_64\n      tag_194\n      calldatasize\n      0x04\n      tag_122\n      jump\t// in\n    tag_194:\n      tag_195\n      jump\t// in\n        /* \"contracts/Gluttony.sol\":602:629  bool public METADATA_FROZEN */\n    tag_36:\n      callvalue\n      dup1\n      iszero\n      tag_196\n      jumpi\n      0x00\n      dup1\n      revert\n    tag_196:\n      pop\n      sload(0x10)\n      tag_45\n      swap1\n      0xff\n      and\n      dup2\n      jump\n        /* \"contracts/ERC721A.sol\":2289:2582  function supportsInterface(bytes4 interfaceId) public view virtual override(ERC165, IERC165) returns (bool) {... */\n    tag_48:\n        /* \"contracts/ERC721A.sol\":2391:2395  bool */\n      0x00\n      not(sub(shl(0xe0, 0x01), 0x01))\n        /* \"contracts/ERC721A.sol\":2424:2464  interfaceId == type(IERC721).interfaceId */\n      dup3\n      and\n      shl(0xe0, 0x80ac58cd)\n      eq\n      dup1\n        /* \"contracts/ERC721A.sol\":2424:2525  interfaceId == type(IERC721).interfaceId ||... */\n      tag_201\n      jumpi\n      pop\n      not(sub(shl(0xe0, 0x01), 0x01))\n        /* \"contracts/ERC721A.sol\":2477:2525  interfaceId == type(IERC721Metadata).interfaceId */\n      dup3\n      and\n      shl(0xe0, 0x5b5e139f)\n      eq\n        /* \"contracts/ERC721A.sol\":2424:2525  interfaceId == type(IERC721).interfaceId ||... */\n    tag_201:\n        /* \"contracts/ERC721A.sol\":2424:2574  interfaceId == type(IERC721).interfaceId ||... */\n      dup1\n      tag_203\n      jumpi\n      pop\n      shl(0xe0, 0x01ffc9a7)\n      not(sub(shl(0xe0, 0x01), 0x01))\n        /* \"@openzeppelin/contracts/utils/introspection/ERC165.sol\":937:977  interfaceId == type(IERC165).interfaceId */\n      dup4\n      and\n      eq\n        /* \"contracts/ERC721A.sol\":2538:2574  super.supportsInterface(interfaceId) */\n    tag_203:\n        /* \"contracts/ERC721A.sol\":2408:2574  return... */\n      swap3\n        /* \"contracts/ERC721A.sol\":2289:2582  function supportsInterface(bytes4 interfaceId) public view virtual override(ERC165, IERC165) returns (bool) {... */\n      swap2\n      pop\n      pop\n      jump\t// out\n        /* \"contracts/ERC721A.sol\":4064:4164  function name() public view virtual override returns (string memory) {... */\n    tag_53:\n        /* \"contracts/ERC721A.sol\":4118:4131  string memory */\n      0x60\n        /* \"contracts/ERC721A.sol\":4151:4156  _name */\n      0x01\n        /* \"contracts/ERC721A.sol\":4144:4156  return _name */\n      dup1\n      sload\n      tag_206\n      swap1\n      tag_207\n      jump\t// in\n    tag_206:\n      dup1\n      0x1f\n      add\n      0x20\n      dup1\n      swap2\n      div\n      mul\n      0x20\n      add\n      mload(0x40)\n      swap1\n      dup2\n      add\n      0x40\n      mstore\n      dup1\n      swap3\n      swap2\n      swap1\n      dup2\n      dup2\n      mstore\n      0x20\n      add\n      dup3\n      dup1\n      sload\n      tag_208\n      swap1\n      tag_207\n      jump\t// in\n    tag_208:\n      dup1\n      iszero\n      tag_209\n      jumpi\n      dup1\n      0x1f\n      lt\n      tag_210\n      jumpi\n      0x0100\n      dup1\n      dup4\n      sload\n      div\n      mul\n      dup4\n      mstore\n      swap2\n      0x20\n      add\n      swap2\n      jump(tag_209)\n    tag_210:\n      dup3\n      add\n      swap2\n      swap1\n      0x00\n      mstore\n      keccak256(0x00, 0x20)\n      swap1\n    tag_211:\n      dup2\n      sload\n      dup2\n      mstore\n      swap1\n      0x01\n      add\n      swap1\n      0x20\n      add\n      dup1\n      dup4\n      gt\n      tag_211\n      jumpi\n      dup3\n      swap1\n      sub\n      0x1f\n      and\n      dup3\n      add\n      swap2\n    tag_209:\n      pop\n      pop\n      pop\n      pop\n      pop\n      swap1\n      pop\n        /* \"contracts/ERC721A.sol\":4064:4164  function name() public view virtual override returns (string memory) {... */\n      swap1\n      jump\t// out\n        /* \"contracts/ERC721A.sol\":5626:5840  function getApproved(uint256 tokenId) public view override returns (address) {... */\n    tag_60:\n        /* \"contracts/ERC721A.sol\":5694:5701  address */\n      0x00\n        /* \"contracts/ERC721A.sol\":5722:5738  _exists(tokenId) */\n      tag_213\n        /* \"contracts/ERC721A.sol\":5730:5737  tokenId */\n      dup3\n        /* \"contracts/ERC721A.sol\":7650:7654  bool */\n      0x00\n        /* \"contracts/ERC721A.sol\":7684:7696  currentIndex */\n      sload\n      gt\n        /* \"contracts/ERC721A.sol\":7674:7696  tokenId < currentIndex */\n      swap1\n        /* \"contracts/ERC721A.sol\":7593:7704  function _exists(uint256 tokenId) internal view returns (bool) {... */\n      jump\n        /* \"contracts/ERC721A.sol\":5722:5738  _exists(tokenId) */\n    tag_213:\n        /* \"contracts/ERC721A.sol\":5714:5788  require(_exists(tokenId), 'ERC721A: approved query for nonexistent token') */\n      tag_215\n      jumpi\n      mload(0x40)\n      shl(0xe5, 0x461bcd)\n      dup2\n      mstore\n        /* \"#utility.yul\":6242:6244   */\n      0x20\n        /* \"contracts/ERC721A.sol\":5714:5788  require(_exists(tokenId), 'ERC721A: approved query for nonexistent token') */\n      0x04\n      dup3\n      add\n        /* \"#utility.yul\":6224:6245   */\n      mstore\n        /* \"#utility.yul\":6281:6283   */\n      0x2d\n        /* \"#utility.yul\":6261:6279   */\n      0x24\n      dup3\n      add\n        /* \"#utility.yul\":6254:6284   */\n      mstore\n        /* \"#utility.yul\":6320:6354   */\n      0x455243373231413a20617070726f76656420717565727920666f72206e6f6e65\n        /* \"#utility.yul\":6300:6318   */\n      0x44\n      dup3\n      add\n        /* \"#utility.yul\":6293:6355   */\n      mstore\n      shl(0x99, 0x3c34b9ba32b73a103a37b5b2b7)\n        /* \"#utility.yul\":6371:6389   */\n      0x64\n      dup3\n      add\n        /* \"#utility.yul\":6364:6407   */\n      mstore\n        /* \"#utility.yul\":6424:6443   */\n      0x84\n      add\n        /* \"contracts/ERC721A.sol\":5714:5788  require(_exists(tokenId), 'ERC721A: approved query for nonexistent token') */\n    tag_216:\n      mload(0x40)\n      dup1\n      swap2\n      sub\n      swap1\n      revert\n    tag_215:\n      pop\n        /* \"contracts/ERC721A.sol\":5808:5832  _tokenApprovals[tokenId] */\n      0x00\n      swap1\n      dup2\n      mstore\n        /* \"contracts/ERC721A.sol\":5808:5823  _tokenApprovals */\n      0x05\n        /* \"contracts/ERC721A.sol\":5808:5832  _tokenApprovals[tokenId] */\n      0x20\n      mstore\n      0x40\n      swap1\n      keccak256\n      sload\n      sub(shl(0xa0, 0x01), 0x01)\n      and\n      swap1\n        /* \"contracts/ERC721A.sol\":5626:5840  function getApproved(uint256 tokenId) public view override returns (address) {... */\n      jump\t// out\n        /* \"contracts/ERC721A.sol\":5147:5560  function approve(address to, uint256 tokenId) public override {... */\n    tag_67:\n        /* \"contracts/ERC721A.sol\":5220:5233  address owner */\n      0x00\n        /* \"contracts/ERC721A.sol\":5236:5260  ERC721A.ownerOf(tokenId) */\n      tag_219\n        /* \"contracts/ERC721A.sol\":5252:5259  tokenId */\n      dup3\n        /* \"contracts/ERC721A.sol\":5236:5251  ERC721A.ownerOf */\n      tag_117\n        /* \"contracts/ERC721A.sol\":5236:5260  ERC721A.ownerOf(tokenId) */\n      jump\t// in\n    tag_219:\n        /* \"contracts/ERC721A.sol\":5220:5260  address owner = ERC721A.ownerOf(tokenId) */\n      swap1\n      pop\n        /* \"contracts/ERC721A.sol\":5285:5290  owner */\n      dup1\n      sub(shl(0xa0, 0x01), 0x01)\n        /* \"contracts/ERC721A.sol\":5279:5290  to != owner */\n      and\n        /* \"contracts/ERC721A.sol\":5279:5281  to */\n      dup4\n      sub(shl(0xa0, 0x01), 0x01)\n        /* \"contracts/ERC721A.sol\":5279:5290  to != owner */\n      and\n      sub\n        /* \"contracts/ERC721A.sol\":5271:5329  require(to != owner, 'ERC721A: approval to current owner') */\n      tag_220\n      jumpi\n      mload(0x40)\n      shl(0xe5, 0x461bcd)\n      dup2\n      mstore\n        /* \"#utility.yul\":6656:6658   */\n      0x20\n        /* \"contracts/ERC721A.sol\":5271:5329  require(to != owner, 'ERC721A: approval to current owner') */\n      0x04\n      dup3\n      add\n        /* \"#utility.yul\":6638:6659   */\n      mstore\n        /* \"#utility.yul\":6695:6697   */\n      0x22\n        /* \"#utility.yul\":6675:6693   */\n      0x24\n      dup3\n      add\n        /* \"#utility.yul\":6668:6698   */\n      mstore\n        /* \"#utility.yul\":6734:6768   */\n      0x455243373231413a20617070726f76616c20746f2063757272656e74206f776e\n        /* \"#utility.yul\":6714:6732   */\n      0x44\n      dup3\n      add\n        /* \"#utility.yul\":6707:6769   */\n      mstore\n      shl(0xf1, 0x32b9)\n        /* \"#utility.yul\":6785:6803   */\n      0x64\n      dup3\n      add\n        /* \"#utility.yul\":6778:6810   */\n      mstore\n        /* \"#utility.yul\":6827:6846   */\n      0x84\n      add\n        /* \"contracts/ERC721A.sol\":5271:5329  require(to != owner, 'ERC721A: approval to current owner') */\n      tag_216\n        /* \"#utility.yul\":6454:6852   */\n      jump\n        /* \"contracts/ERC721A.sol\":5271:5329  require(to != owner, 'ERC721A: approval to current owner') */\n    tag_220:\n        /* \"@openzeppelin/contracts/utils/Context.sol\":719:729  msg.sender */\n      caller\n      sub(shl(0xa0, 0x01), 0x01)\n        /* \"contracts/ERC721A.sol\":5364:5385  _msgSender() == owner */\n      dup3\n      and\n      eq\n      dup1\n        /* \"contracts/ERC721A.sol\":5364:5426  _msgSender() == owner || isApprovedForAll(owner, _msgSender()) */\n      tag_226\n      jumpi\n      pop\n        /* \"contracts/ERC721A.sol\":5389:5426  isApprovedForAll(owner, _msgSender()) */\n      tag_226\n        /* \"contracts/ERC721A.sol\":5406:5411  owner */\n      dup2\n        /* \"@openzeppelin/contracts/utils/Context.sol\":719:729  msg.sender */\n      caller\n        /* \"contracts/ERC721A.sol\":6271:6435  function isApprovedForAll(address owner, address operator) public view virtual override returns (bool) {... */\n      tag_190\n      jump\t// in\n        /* \"contracts/ERC721A.sol\":5389:5426  isApprovedForAll(owner, _msgSender()) */\n    tag_226:\n        /* \"contracts/ERC721A.sol\":5342:5511  require(... */\n      tag_228\n      jumpi\n      mload(0x40)\n      shl(0xe5, 0x461bcd)\n      dup2\n      mstore\n        /* \"#utility.yul\":7059:7061   */\n      0x20\n        /* \"contracts/ERC721A.sol\":5342:5511  require(... */\n      0x04\n      dup3\n      add\n        /* \"#utility.yul\":7041:7062   */\n      mstore\n        /* \"#utility.yul\":7098:7100   */\n      0x39\n        /* \"#utility.yul\":7078:7096   */\n      0x24\n      dup3\n      add\n        /* \"#utility.yul\":7071:7101   */\n      mstore\n        /* \"#utility.yul\":7137:7171   */\n      0x455243373231413a20617070726f76652063616c6c6572206973206e6f74206f\n        /* \"#utility.yul\":7117:7135   */\n      0x44\n      dup3\n      add\n        /* \"#utility.yul\":7110:7172   */\n      mstore\n        /* \"#utility.yul\":7208:7235   */\n      0x776e6572206e6f7220617070726f76656420666f7220616c6c00000000000000\n        /* \"#utility.yul\":7188:7206   */\n      0x64\n      dup3\n      add\n        /* \"#utility.yul\":7181:7236   */\n      mstore\n        /* \"#utility.yul\":7253:7272   */\n      0x84\n      add\n        /* \"contracts/ERC721A.sol\":5342:5511  require(... */\n      tag_216\n        /* \"#utility.yul\":6857:7278   */\n      jump\n        /* \"contracts/ERC721A.sol\":5342:5511  require(... */\n    tag_228:\n        /* \"contracts/ERC721A.sol\":5524:5552  _approve(to, tokenId, owner) */\n      tag_231\n        /* \"contracts/ERC721A.sol\":5533:5535  to */\n      dup4\n        /* \"contracts/ERC721A.sol\":5537:5544  tokenId */\n      dup4\n        /* \"contracts/ERC721A.sol\":5546:5551  owner */\n      dup4\n        /* \"contracts/ERC721A.sol\":5524:5532  _approve */\n      tag_232\n        /* \"contracts/ERC721A.sol\":5524:5552  _approve(to, tokenId, owner) */\n      jump\t// in\n    tag_231:\n        /* \"contracts/ERC721A.sol\":5209:5560  {... */\n      pop\n        /* \"contracts/ERC721A.sol\":5147:5560  function approve(address to, uint256 tokenId) public override {... */\n      pop\n      pop\n      jump\t// out\n        /* \"contracts/ERC721A.sol\":6502:6664  function transferFrom(... */\n    tag_85:\n        /* \"contracts/ERC721A.sol\":6628:6656  _transfer(from, to, tokenId) */\n      tag_231\n        /* \"contracts/ERC721A.sol\":6638:6642  from */\n      dup4\n        /* \"contracts/ERC721A.sol\":6644:6646  to */\n      dup4\n        /* \"contracts/ERC721A.sol\":6648:6655  tokenId */\n      dup4\n        /* \"contracts/ERC721A.sol\":6628:6637  _transfer */\n      tag_236\n        /* \"contracts/ERC721A.sol\":6628:6656  _transfer(from, to, tokenId) */\n      jump\t// in\n        /* \"contracts/Gluttony.sol\":4154:4325  function withdraw() public onlyOwner nonReentrant {... */\n    tag_92:\n        /* \"@openzeppelin/contracts/access/Ownable.sol\":1094:1107  _checkOwner() */\n      tag_238\n        /* \"@openzeppelin/contracts/access/Ownable.sol\":1094:1105  _checkOwner */\n      tag_239\n        /* \"@openzeppelin/contracts/access/Ownable.sol\":1094:1107  _checkOwner() */\n      jump\t// in\n    tag_238:\n        /* \"@openzeppelin/contracts/security/ReentrancyGuard.sol\":1744:1745  2 */\n      0x02\n        /* \"@openzeppelin/contracts/security/ReentrancyGuard.sol\":2325:2332  _status */\n      sload(0x08)\n        /* \"@openzeppelin/contracts/security/ReentrancyGuard.sol\":2325:2344  _status != _ENTERED */\n      sub\n        /* \"@openzeppelin/contracts/security/ReentrancyGuard.sol\":2317:2380  require(_status != _ENTERED, \"ReentrancyGuard: reentrant call\") */\n      tag_241\n      jumpi\n      mload(0x40)\n      shl(0xe5, 0x461bcd)\n      dup2\n      mstore\n        /* \"#utility.yul\":7485:7487   */\n      0x20\n        /* \"@openzeppelin/contracts/security/ReentrancyGuard.sol\":2317:2380  require(_status != _ENTERED, \"ReentrancyGuard: reentrant call\") */\n      0x04\n      dup3\n      add\n        /* \"#utility.yul\":7467:7488   */\n      mstore\n        /* \"#utility.yul\":7524:7526   */\n      0x1f\n        /* \"#utility.yul\":7504:7522   */\n      0x24\n      dup3\n      add\n        /* \"#utility.yul\":7497:7527   */\n      mstore\n        /* \"#utility.yul\":7563:7596   */\n      0x5265656e7472616e637947756172643a207265656e7472616e742063616c6c00\n        /* \"#utility.yul\":7543:7561   */\n      0x44\n      dup3\n      add\n        /* \"#utility.yul\":7536:7597   */\n      mstore\n        /* \"#utility.yul\":7614:7632   */\n      0x64\n      add\n        /* \"@openzeppelin/contracts/security/ReentrancyGuard.sol\":2317:2380  require(_status != _ENTERED, \"ReentrancyGuard: reentrant call\") */\n      tag_216\n        /* \"#utility.yul\":7283:7638   */\n      jump\n        /* \"@openzeppelin/contracts/security/ReentrancyGuard.sol\":2317:2380  require(_status != _ENTERED, \"ReentrancyGuard: reentrant call\") */\n    tag_241:\n        /* \"@openzeppelin/contracts/security/ReentrancyGuard.sol\":1744:1745  2 */\n      0x02\n        /* \"@openzeppelin/contracts/security/ReentrancyGuard.sol\":2455:2462  _status */\n      0x08\n        /* \"@openzeppelin/contracts/security/ReentrancyGuard.sol\":2455:2473  _status = _ENTERED */\n      sstore\n        /* \"contracts/Gluttony.sol\":4233:4254  address(this).balance */\n      selfbalance\n        /* \"contracts/Gluttony.sol\":4267:4317  Address.sendValue(payable(payoutAddress), balance) */\n      tag_245\n        /* \"contracts/Gluttony.sol\":4103:4145  0xc919cE1b37Fc4e0405885a3350CC153B27dd06e0 */\n      0xc919ce1b37fc4e0405885a3350cc153b27dd06e0\n        /* \"contracts/Gluttony.sol\":4233:4254  address(this).balance */\n      dup3\n        /* \"contracts/Gluttony.sol\":4267:4284  Address.sendValue */\n      tag_246\n        /* \"contracts/Gluttony.sol\":4267:4317  Address.sendValue(payable(payoutAddress), balance) */\n      jump\t// in\n    tag_245:\n      pop\n        /* \"@openzeppelin/contracts/security/ReentrancyGuard.sol\":1701:1702  1 */\n      0x01\n        /* \"@openzeppelin/contracts/security/ReentrancyGuard.sol\":2628:2635  _status */\n      0x08\n        /* \"@openzeppelin/contracts/security/ReentrancyGuard.sol\":2628:2650  _status = _NOT_ENTERED */\n      sstore\n        /* \"contracts/Gluttony.sol\":4154:4325  function withdraw() public onlyOwner nonReentrant {... */\n      jump\t// out\n        /* \"contracts/Gluttony.sol\":3883:4027  function mintOwner(address _to, uint256 _mintAmount) public mintCompliance(_mintAmount) onlyOwner {... */\n    tag_100:\n        /* \"contracts/Gluttony.sol\":3958:3969  _mintAmount */\n      dup1\n        /* \"contracts/Gluttony.sol\":2817:2818  0 */\n      0x00\n        /* \"contracts/Gluttony.sol\":2803:2814  _mintAmount */\n      dup2\n        /* \"contracts/Gluttony.sol\":2803:2818  _mintAmount > 0 */\n      gt\n        /* \"contracts/Gluttony.sol\":2803:2859  _mintAmount > 0 && _mintAmount <= MAX_MINT_AMOUNT_PER_TX */\n      dup1\n      iszero\n      tag_248\n      jumpi\n      pop\n        /* \"contracts/Gluttony.sol\":2837:2859  MAX_MINT_AMOUNT_PER_TX */\n      sload(0x0d)\n        /* \"contracts/Gluttony.sol\":2822:2833  _mintAmount */\n      dup2\n        /* \"contracts/Gluttony.sol\":2822:2859  _mintAmount <= MAX_MINT_AMOUNT_PER_TX */\n      gt\n      iszero\n        /* \"contracts/Gluttony.sol\":2803:2859  _mintAmount > 0 && _mintAmount <= MAX_MINT_AMOUNT_PER_TX */\n    tag_248:\n        /* \"contracts/Gluttony.sol\":2795:2884  require(_mintAmount > 0 && _mintAmount <= MAX_MINT_AMOUNT_PER_TX, \"Invalid mint amount!\") */\n      tag_249\n      jumpi\n      mload(0x40)\n      shl(0xe5, 0x461bcd)\n      dup2\n      mstore\n        /* \"#utility.yul\":7845:7847   */\n      0x20\n        /* \"contracts/Gluttony.sol\":2795:2884  require(_mintAmount > 0 && _mintAmount <= MAX_MINT_AMOUNT_PER_TX, \"Invalid mint amount!\") */\n      0x04\n      dup3\n      add\n        /* \"#utility.yul\":7827:7848   */\n      mstore\n        /* \"#utility.yul\":7884:7886   */\n      0x14\n        /* \"#utility.yul\":7864:7882   */\n      0x24\n      dup3\n      add\n        /* \"#utility.yul\":7857:7887   */\n      mstore\n      shl(0x60, 0x496e76616c6964206d696e7420616d6f756e7421)\n        /* \"#utility.yul\":7903:7921   */\n      0x44\n      dup3\n      add\n        /* \"#utility.yul\":7896:7946   */\n      mstore\n        /* \"#utility.yul\":7963:7981   */\n      0x64\n      add\n        /* \"contracts/Gluttony.sol\":2795:2884  require(_mintAmount > 0 && _mintAmount <= MAX_MINT_AMOUNT_PER_TX, \"Invalid mint amount!\") */\n      tag_216\n        /* \"#utility.yul\":7643:7987   */\n      jump\n        /* \"contracts/Gluttony.sol\":2795:2884  require(_mintAmount > 0 && _mintAmount <= MAX_MINT_AMOUNT_PER_TX, \"Invalid mint amount!\") */\n    tag_249:\n        /* \"contracts/Gluttony.sol\":2933:2943  MAX_SUPPLY */\n      sload(0x0a)\n        /* \"contracts/Gluttony.sol\":2918:2929  _mintAmount */\n      dup2\n        /* \"contracts/Gluttony.sol\":2903:2915  currentIndex */\n      sload(0x00)\n        /* \"contracts/Gluttony.sol\":2903:2929  currentIndex + _mintAmount */\n      tag_252\n      swap2\n      swap1\n      tag_253\n      jump\t// in\n    tag_252:\n        /* \"contracts/Gluttony.sol\":2903:2943  currentIndex + _mintAmount <= MAX_SUPPLY */\n      gt\n      iszero\n        /* \"contracts/Gluttony.sol\":2895:2968  require(currentIndex + _mintAmount <= MAX_SUPPLY, \"Max supply exceeded!\") */\n      tag_254\n      jumpi\n      mload(0x40)\n      shl(0xe5, 0x461bcd)\n      dup2\n      mstore\n        /* \"#utility.yul\":8456:8458   */\n      0x20\n        /* \"contracts/Gluttony.sol\":2895:2968  require(currentIndex + _mintAmount <= MAX_SUPPLY, \"Max supply exceeded!\") */\n      0x04\n      dup3\n      add\n        /* \"#utility.yul\":8438:8459   */\n      mstore\n        /* \"#utility.yul\":8495:8497   */\n      0x14\n        /* \"#utility.yul\":8475:8493   */\n      0x24\n      dup3\n      add\n        /* \"#utility.yul\":8468:8498   */\n      mstore\n      shl(0x60, 0x4d617820737570706c7920657863656564656421)\n        /* \"#utility.yul\":8514:8532   */\n      0x44\n      dup3\n      add\n        /* \"#utility.yul\":8507:8557   */\n      mstore\n        /* \"#utility.yul\":8574:8592   */\n      0x64\n      add\n        /* \"contracts/Gluttony.sol\":2895:2968  require(currentIndex + _mintAmount <= MAX_SUPPLY, \"Max supply exceeded!\") */\n      tag_216\n        /* \"#utility.yul\":8254:8598   */\n      jump\n        /* \"contracts/Gluttony.sol\":2895:2968  require(currentIndex + _mintAmount <= MAX_SUPPLY, \"Max supply exceeded!\") */\n    tag_254:\n        /* \"@openzeppelin/contracts/access/Ownable.sol\":1094:1107  _checkOwner() */\n      tag_258\n        /* \"@openzeppelin/contracts/access/Ownable.sol\":1094:1105  _checkOwner */\n      tag_239\n        /* \"@openzeppelin/contracts/access/Ownable.sol\":1094:1107  _checkOwner() */\n      jump\t// in\n    tag_258:\n        /* \"contracts/Gluttony.sol\":3992:4019  _safeMint(_to, _mintAmount) */\n      tag_231\n        /* \"contracts/Gluttony.sol\":4002:4005  _to */\n      dup4\n        /* \"contracts/Gluttony.sol\":4007:4018  _mintAmount */\n      dup4\n        /* \"contracts/Gluttony.sol\":3992:4001  _safeMint */\n      tag_261\n        /* \"contracts/Gluttony.sol\":3992:4019  _safeMint(_to, _mintAmount) */\n      jump\t// in\n        /* \"contracts/ERC721A.sol\":6735:6912  function safeTransferFrom(... */\n    tag_104:\n        /* \"contracts/ERC721A.sol\":6865:6904  safeTransferFrom(from, to, tokenId, '') */\n      tag_231\n        /* \"contracts/ERC721A.sol\":6882:6886  from */\n      dup4\n        /* \"contracts/ERC721A.sol\":6888:6890  to */\n      dup4\n        /* \"contracts/ERC721A.sol\":6892:6899  tokenId */\n      dup4\n        /* \"contracts/ERC721A.sol\":6865:6904  safeTransferFrom(from, to, tokenId, '') */\n      mload(0x40)\n      dup1\n      0x20\n      add\n      0x40\n      mstore\n      dup1\n      0x00\n      dup2\n      mstore\n      pop\n        /* \"contracts/ERC721A.sol\":6865:6881  safeTransferFrom */\n      tag_173\n        /* \"contracts/ERC721A.sol\":6865:6904  safeTransferFrom(from, to, tokenId, '') */\n      jump\t// in\n        /* \"contracts/Gluttony.sol\":1890:2059  function setBaseURI(string memory customBaseURI_) external onlyOwner {... */\n    tag_109:\n        /* \"@openzeppelin/contracts/access/Ownable.sol\":1094:1107  _checkOwner() */\n      tag_265\n        /* \"@openzeppelin/contracts/access/Ownable.sol\":1094:1105  _checkOwner */\n      tag_239\n        /* \"@openzeppelin/contracts/access/Ownable.sol\":1094:1107  _checkOwner() */\n      jump\t// in\n    tag_265:\n        /* \"contracts/Gluttony.sol\":1979:1994  METADATA_FROZEN */\n      and(0xff, sload(0x10))\n        /* \"contracts/Gluttony.sol\":1978:1994  !METADATA_FROZEN */\n      iszero\n        /* \"contracts/Gluttony.sol\":1970:2015  require(!METADATA_FROZEN, \"Metadata frozen!\") */\n      tag_267\n      jumpi\n      mload(0x40)\n      shl(0xe5, 0x461bcd)\n      dup2\n      mstore\n        /* \"#utility.yul\":8805:8807   */\n      0x20\n        /* \"contracts/Gluttony.sol\":1970:2015  require(!METADATA_FROZEN, \"Metadata frozen!\") */\n      0x04\n      dup3\n      add\n        /* \"#utility.yul\":8787:8808   */\n      mstore\n        /* \"#utility.yul\":8844:8846   */\n      0x10\n        /* \"#utility.yul\":8824:8842   */\n      0x24\n      dup3\n      add\n        /* \"#utility.yul\":8817:8847   */\n      mstore\n      shl(0x80, 0x4d657461646174612066726f7a656e21)\n        /* \"#utility.yul\":8863:8881   */\n      0x44\n      dup3\n      add\n        /* \"#utility.yul\":8856:8902   */\n      mstore\n        /* \"#utility.yul\":8919:8937   */\n      0x64\n      add\n        /* \"contracts/Gluttony.sol\":1970:2015  require(!METADATA_FROZEN, \"Metadata frozen!\") */\n      tag_216\n        /* \"#utility.yul\":8603:8943   */\n      jump\n        /* \"contracts/Gluttony.sol\":1970:2015  require(!METADATA_FROZEN, \"Metadata frozen!\") */\n    tag_267:\n        /* \"contracts/Gluttony.sol\":2026:2034  BASE_URI */\n      0x0b\n        /* \"contracts/Gluttony.sol\":2026:2051  BASE_URI = customBaseURI_ */\n      tag_270\n        /* \"contracts/Gluttony.sol\":2037:2051  customBaseURI_ */\n      dup3\n        /* \"contracts/Gluttony.sol\":2026:2034  BASE_URI */\n      dup3\n        /* \"contracts/Gluttony.sol\":2026:2051  BASE_URI = customBaseURI_ */\n      tag_271\n      jump\t// in\n    tag_270:\n      pop\n        /* \"contracts/Gluttony.sol\":1890:2059  function setBaseURI(string memory customBaseURI_) external onlyOwner {... */\n      pop\n      jump\t// out\n        /* \"contracts/Gluttony.sol\":2216:2338  function setMaxMintPerTx(uint256 maxMintPerTx) external onlyOwner {... */\n    tag_113:\n        /* \"@openzeppelin/contracts/access/Ownable.sol\":1094:1107  _checkOwner() */\n      tag_273\n        /* \"@openzeppelin/contracts/access/Ownable.sol\":1094:1105  _checkOwner */\n      tag_239\n        /* \"@openzeppelin/contracts/access/Ownable.sol\":1094:1107  _checkOwner() */\n      jump\t// in\n    tag_273:\n        /* \"contracts/Gluttony.sol\":2293:2315  MAX_MINT_AMOUNT_PER_TX */\n      0x0d\n        /* \"contracts/Gluttony.sol\":2293:2330  MAX_MINT_AMOUNT_PER_TX = maxMintPerTx */\n      sstore\n        /* \"contracts/Gluttony.sol\":2216:2338  function setMaxMintPerTx(uint256 maxMintPerTx) external onlyOwner {... */\n      jump\t// out\n        /* \"contracts/ERC721A.sol\":3873:3997  function ownerOf(uint256 tokenId) public view override returns (address) {... */\n    tag_117:\n        /* \"contracts/ERC721A.sol\":3937:3944  address */\n      0x00\n        /* \"contracts/ERC721A.sol\":3964:3984  ownershipOf(tokenId) */\n      tag_276\n        /* \"contracts/ERC721A.sol\":3976:3983  tokenId */\n      dup3\n        /* \"contracts/ERC721A.sol\":3964:3975  ownershipOf */\n      tag_277\n        /* \"contracts/ERC721A.sol\":3964:3984  ownershipOf(tokenId) */\n      jump\t// in\n    tag_276:\n        /* \"contracts/ERC721A.sol\":3964:3989  ownershipOf(tokenId).addr */\n      mload\n      swap3\n        /* \"contracts/ERC721A.sol\":3873:3997  function ownerOf(uint256 tokenId) public view override returns (address) {... */\n      swap2\n      pop\n      pop\n      jump\t// out\n        /* \"contracts/ERC721A.sol\":2646:2867  function balanceOf(address owner) public view override returns (uint256) {... */\n    tag_123:\n        /* \"contracts/ERC721A.sol\":2710:2717  uint256 */\n      0x00\n      sub(shl(0xa0, 0x01), 0x01)\n        /* \"contracts/ERC721A.sol\":2738:2757  owner != address(0) */\n      dup3\n      and\n        /* \"contracts/ERC721A.sol\":2730:2805  require(owner != address(0), 'ERC721A: balance query for the zero address') */\n      tag_279\n      jumpi\n      mload(0x40)\n      shl(0xe5, 0x461bcd)\n      dup2\n      mstore\n        /* \"#utility.yul\":11354:11356   */\n      0x20\n        /* \"contracts/ERC721A.sol\":2730:2805  require(owner != address(0), 'ERC721A: balance query for the zero address') */\n      0x04\n      dup3\n      add\n        /* \"#utility.yul\":11336:11357   */\n      mstore\n        /* \"#utility.yul\":11393:11395   */\n      0x2b\n        /* \"#utility.yul\":11373:11391   */\n      0x24\n      dup3\n      add\n        /* \"#utility.yul\":11366:11396   */\n      mstore\n        /* \"#utility.yul\":11432:11466   */\n      0x455243373231413a2062616c616e636520717565727920666f7220746865207a\n        /* \"#utility.yul\":11412:11430   */\n      0x44\n      dup3\n      add\n        /* \"#utility.yul\":11405:11467   */\n      mstore\n      shl(0xa8, 0x65726f2061646472657373)\n        /* \"#utility.yul\":11483:11501   */\n      0x64\n      dup3\n      add\n        /* \"#utility.yul\":11476:11517   */\n      mstore\n        /* \"#utility.yul\":11534:11553   */\n      0x84\n      add\n        /* \"contracts/ERC721A.sol\":2730:2805  require(owner != address(0), 'ERC721A: balance query for the zero address') */\n      tag_216\n        /* \"#utility.yul\":11152:11559   */\n      jump\n        /* \"contracts/ERC721A.sol\":2730:2805  require(owner != address(0), 'ERC721A: balance query for the zero address') */\n    tag_279:\n      pop\n      sub(shl(0xa0, 0x01), 0x01)\n        /* \"contracts/ERC721A.sol\":2831:2850  _addressData[owner] */\n      and\n      0x00\n      swap1\n      dup2\n      mstore\n        /* \"contracts/ERC721A.sol\":2831:2843  _addressData */\n      0x04\n        /* \"contracts/ERC721A.sol\":2831:2850  _addressData[owner] */\n      0x20\n      mstore\n      0x40\n      swap1\n      keccak256\n        /* \"contracts/ERC721A.sol\":2831:2858  _addressData[owner].balance */\n      sload\n      sub(shl(0x80, 0x01), 0x01)\n      and\n      swap1\n        /* \"contracts/ERC721A.sol\":2646:2867  function balanceOf(address owner) public view override returns (uint256) {... */\n      jump\t// out\n        /* \"@openzeppelin/contracts/access/Ownable.sol\":1831:1932  function renounceOwnership() public virtual onlyOwner {... */\n    tag_127:\n        /* \"@openzeppelin/contracts/access/Ownable.sol\":1094:1107  _checkOwner() */\n      tag_283\n        /* \"@openzeppelin/contracts/access/Ownable.sol\":1094:1105  _checkOwner */\n      tag_239\n        /* \"@openzeppelin/contracts/access/Ownable.sol\":1094:1107  _checkOwner() */\n      jump\t// in\n    tag_283:\n        /* \"@openzeppelin/contracts/access/Ownable.sol\":1895:1925  _transferOwnership(address(0)) */\n      tag_285\n        /* \"@openzeppelin/contracts/access/Ownable.sol\":1922:1923  0 */\n      0x00\n        /* \"@openzeppelin/contracts/access/Ownable.sol\":1895:1913  _transferOwnership */\n      tag_286\n        /* \"@openzeppelin/contracts/access/Ownable.sol\":1895:1925  _transferOwnership(address(0)) */\n      jump\t// in\n    tag_285:\n        /* \"@openzeppelin/contracts/access/Ownable.sol\":1831:1932  function renounceOwnership() public virtual onlyOwner {... */\n      jump\t// out\n        /* \"contracts/Gluttony.sol\":2346:2455  function setSaleActive(bool saleIsActive) external onlyOwner {... */\n    tag_136:\n        /* \"@openzeppelin/contracts/access/Ownable.sol\":1094:1107  _checkOwner() */\n      tag_288\n        /* \"@openzeppelin/contracts/access/Ownable.sol\":1094:1105  _checkOwner */\n      tag_239\n        /* \"@openzeppelin/contracts/access/Ownable.sol\":1094:1107  _checkOwner() */\n      jump\t// in\n    tag_288:\n        /* \"contracts/Gluttony.sol\":2418:2432  IS_SALE_ACTIVE */\n      0x0e\n        /* \"contracts/Gluttony.sol\":2418:2447  IS_SALE_ACTIVE = saleIsActive */\n      dup1\n      sload\n      not(0xff)\n      and\n      swap2\n      iszero\n      iszero\n      swap2\n      swap1\n      swap2\n      or\n      swap1\n      sstore\n        /* \"contracts/Gluttony.sol\":2346:2455  function setSaleActive(bool saleIsActive) external onlyOwner {... */\n      jump\t// out\n        /* \"contracts/Gluttony.sol\":2463:2617  function setFreeMintAllowedUntil(uint256 freeMintIsAllowedUntil) external onlyOwner {... */\n    tag_140:\n        /* \"@openzeppelin/contracts/access/Ownable.sol\":1094:1107  _checkOwner() */\n      tag_291\n        /* \"@openzeppelin/contracts/access/Ownable.sol\":1094:1105  _checkOwner */\n      tag_239\n        /* \"@openzeppelin/contracts/access/Ownable.sol\":1094:1107  _checkOwner() */\n      jump\t// in\n    tag_291:\n        /* \"contracts/Gluttony.sol\":2558:2584  FREE_MINT_IS_ALLOWED_UNTIL */\n      0x0f\n        /* \"contracts/Gluttony.sol\":2558:2609  FREE_MINT_IS_ALLOWED_UNTIL = freeMintIsAllowedUntil */\n      sstore\n        /* \"contracts/Gluttony.sol\":2463:2617  function setFreeMintAllowedUntil(uint256 freeMintIsAllowedUntil) external onlyOwner {... */\n      jump\t// out\n        /* \"contracts/Gluttony.sol\":1524:1620  function setPrice(uint256 customPrice) external onlyOwner {... */\n    tag_152:\n        /* \"@openzeppelin/contracts/access/Ownable.sol\":1094:1107  _checkOwner() */\n      tag_295\n        /* \"@openzeppelin/contracts/access/Ownable.sol\":1094:1105  _checkOwner */\n      tag_239\n        /* \"@openzeppelin/contracts/access/Ownable.sol\":1094:1107  _checkOwner() */\n      jump\t// in\n    tag_295:\n        /* \"contracts/Gluttony.sol\":1593:1598  PRICE */\n      0x09\n        /* \"contracts/Gluttony.sol\":1593:1612  PRICE = customPrice */\n      sstore\n        /* \"contracts/Gluttony.sol\":1524:1620  function setPrice(uint256 customPrice) external onlyOwner {... */\n      jump\t// out\n        /* \"contracts/ERC721A.sol\":4233:4337  function symbol() public view virtual override returns (string memory) {... */\n    tag_155:\n        /* \"contracts/ERC721A.sol\":4289:4302  string memory */\n      0x60\n        /* \"contracts/ERC721A.sol\":4322:4329  _symbol */\n      0x02\n        /* \"contracts/ERC721A.sol\":4315:4329  return _symbol */\n      dup1\n      sload\n      tag_206\n      swap1\n      tag_207\n      jump\t// in\n        /* \"contracts/Gluttony.sol\":2996:3875  function mint(uint256 _mintAmount) public payable mintCompliance(_mintAmount) {... */\n    tag_159:\n        /* \"contracts/Gluttony.sol\":3061:3072  _mintAmount */\n      dup1\n        /* \"contracts/Gluttony.sol\":2817:2818  0 */\n      0x00\n        /* \"contracts/Gluttony.sol\":2803:2814  _mintAmount */\n      dup2\n        /* \"contracts/Gluttony.sol\":2803:2818  _mintAmount > 0 */\n      gt\n        /* \"contracts/Gluttony.sol\":2803:2859  _mintAmount > 0 && _mintAmount <= MAX_MINT_AMOUNT_PER_TX */\n      dup1\n      iszero\n      tag_304\n      jumpi\n      pop\n        /* \"contracts/Gluttony.sol\":2837:2859  MAX_MINT_AMOUNT_PER_TX */\n      sload(0x0d)\n        /* \"contracts/Gluttony.sol\":2822:2833  _mintAmount */\n      dup2\n        /* \"contracts/Gluttony.sol\":2822:2859  _mintAmount <= MAX_MINT_AMOUNT_PER_TX */\n      gt\n      iszero\n        /* \"contracts/Gluttony.sol\":2803:2859  _mintAmount > 0 && _mintAmount <= MAX_MINT_AMOUNT_PER_TX */\n    tag_304:\n        /* \"contracts/Gluttony.sol\":2795:2884  require(_mintAmount > 0 && _mintAmount <= MAX_MINT_AMOUNT_PER_TX, \"Invalid mint amount!\") */\n      tag_305\n      jumpi\n      mload(0x40)\n      shl(0xe5, 0x461bcd)\n      dup2\n      mstore\n        /* \"#utility.yul\":7845:7847   */\n      0x20\n        /* \"contracts/Gluttony.sol\":2795:2884  require(_mintAmount > 0 && _mintAmount <= MAX_MINT_AMOUNT_PER_TX, \"Invalid mint amount!\") */\n      0x04\n      dup3\n      add\n        /* \"#utility.yul\":7827:7848   */\n      mstore\n        /* \"#utility.yul\":7884:7886   */\n      0x14\n        /* \"#utility.yul\":7864:7882   */\n      0x24\n      dup3\n      add\n        /* \"#utility.yul\":7857:7887   */\n      mstore\n      shl(0x60, 0x496e76616c6964206d696e7420616d6f756e7421)\n        /* \"#utility.yul\":7903:7921   */\n      0x44\n      dup3\n      add\n        /* \"#utility.yul\":7896:7946   */\n      mstore\n        /* \"#utility.yul\":7963:7981   */\n      0x64\n      add\n        /* \"contracts/Gluttony.sol\":2795:2884  require(_mintAmount > 0 && _mintAmount <= MAX_MINT_AMOUNT_PER_TX, \"Invalid mint amount!\") */\n      tag_216\n        /* \"#utility.yul\":7643:7987   */\n      jump\n        /* \"contracts/Gluttony.sol\":2795:2884  require(_mintAmount > 0 && _mintAmount <= MAX_MINT_AMOUNT_PER_TX, \"Invalid mint amount!\") */\n    tag_305:\n        /* \"contracts/Gluttony.sol\":2933:2943  MAX_SUPPLY */\n      sload(0x0a)\n        /* \"contracts/Gluttony.sol\":2918:2929  _mintAmount */\n      dup2\n        /* \"contracts/Gluttony.sol\":2903:2915  currentIndex */\n      sload(0x00)\n        /* \"contracts/Gluttony.sol\":2903:2929  currentIndex + _mintAmount */\n      tag_307\n      swap2\n      swap1\n      tag_253\n      jump\t// in\n    tag_307:\n        /* \"contracts/Gluttony.sol\":2903:2943  currentIndex + _mintAmount <= MAX_SUPPLY */\n      gt\n      iszero\n        /* \"contracts/Gluttony.sol\":2895:2968  require(currentIndex + _mintAmount <= MAX_SUPPLY, \"Max supply exceeded!\") */\n      tag_308\n      jumpi\n      mload(0x40)\n      shl(0xe5, 0x461bcd)\n      dup2\n      mstore\n        /* \"#utility.yul\":8456:8458   */\n      0x20\n        /* \"contracts/Gluttony.sol\":2895:2968  require(currentIndex + _mintAmount <= MAX_SUPPLY, \"Max supply exceeded!\") */\n      0x04\n      dup3\n      add\n        /* \"#utility.yul\":8438:8459   */\n      mstore\n        /* \"#utility.yul\":8495:8497   */\n      0x14\n        /* \"#utility.yul\":8475:8493   */\n      0x24\n      dup3\n      add\n        /* \"#utility.yul\":8468:8498   */\n      mstore\n      shl(0x60, 0x4d617820737570706c7920657863656564656421)\n        /* \"#utility.yul\":8514:8532   */\n      0x44\n      dup3\n      add\n        /* \"#utility.yul\":8507:8557   */\n      mstore\n        /* \"#utility.yul\":8574:8592   */\n      0x64\n      add\n        /* \"contracts/Gluttony.sol\":2895:2968  require(currentIndex + _mintAmount <= MAX_SUPPLY, \"Max supply exceeded!\") */\n      tag_216\n        /* \"#utility.yul\":8254:8598   */\n      jump\n        /* \"contracts/Gluttony.sol\":2895:2968  require(currentIndex + _mintAmount <= MAX_SUPPLY, \"Max supply exceeded!\") */\n    tag_308:\n        /* \"contracts/Gluttony.sol\":3093:3107  IS_SALE_ACTIVE */\n      and(0xff, sload(0x0e))\n        /* \"contracts/Gluttony.sol\":3085:3131  require(IS_SALE_ACTIVE, \"Sale is not active!\") */\n      tag_311\n      jumpi\n      mload(0x40)\n      shl(0xe5, 0x461bcd)\n      dup2\n      mstore\n        /* \"#utility.yul\":11766:11768   */\n      0x20\n        /* \"contracts/Gluttony.sol\":3085:3131  require(IS_SALE_ACTIVE, \"Sale is not active!\") */\n      0x04\n      dup3\n      add\n        /* \"#utility.yul\":11748:11769   */\n      mstore\n        /* \"#utility.yul\":11805:11807   */\n      0x13\n        /* \"#utility.yul\":11785:11803   */\n      0x24\n      dup3\n      add\n        /* \"#utility.yul\":11778:11808   */\n      mstore\n      shl(0x68, 0x53616c65206973206e6f742061637469766521)\n        /* \"#utility.yul\":11824:11842   */\n      0x44\n      dup3\n      add\n        /* \"#utility.yul\":11817:11866   */\n      mstore\n        /* \"#utility.yul\":11883:11901   */\n      0x64\n      add\n        /* \"contracts/Gluttony.sol\":3085:3131  require(IS_SALE_ACTIVE, \"Sale is not active!\") */\n      tag_216\n        /* \"#utility.yul\":11564:11907   */\n      jump\n        /* \"contracts/Gluttony.sol\":3085:3131  require(IS_SALE_ACTIVE, \"Sale is not active!\") */\n    tag_311:\n        /* \"contracts/Gluttony.sol\":3144:3157  uint256 price */\n      0x00\n        /* \"contracts/Gluttony.sol\":3168:3179  _mintAmount */\n      dup3\n        /* \"contracts/Gluttony.sol\":3160:3165  PRICE */\n      sload(0x09)\n        /* \"contracts/Gluttony.sol\":3160:3179  PRICE * _mintAmount */\n      tag_314\n      swap2\n      swap1\n      tag_315\n      jump\t// in\n    tag_314:\n        /* \"contracts/Gluttony.sol\":3144:3179  uint256 price = PRICE * _mintAmount */\n      swap1\n      pop\n        /* \"contracts/Gluttony.sol\":3211:3237  FREE_MINT_IS_ALLOWED_UNTIL */\n      sload(0x0f)\n        /* \"contracts/Gluttony.sol\":3196:3208  currentIndex */\n      sload(0x00)\n        /* \"contracts/Gluttony.sol\":3196:3237  currentIndex < FREE_MINT_IS_ALLOWED_UNTIL */\n      lt\n        /* \"contracts/Gluttony.sol\":3192:3758  if (currentIndex < FREE_MINT_IS_ALLOWED_UNTIL) {... */\n      iszero\n      tag_316\n      jumpi\n        /* \"contracts/Gluttony.sol\":3328:3338  msg.sender */\n      caller\n        /* \"contracts/Gluttony.sol\":3254:3279  uint256 remainingFreeMint */\n      0x00\n        /* \"contracts/Gluttony.sol\":3311:3339  freeMintCountMap[msg.sender] */\n      swap1\n      dup2\n      mstore\n        /* \"contracts/Gluttony.sol\":3311:3327  freeMintCountMap */\n      0x11\n        /* \"contracts/Gluttony.sol\":3311:3339  freeMintCountMap[msg.sender] */\n      0x20\n      mstore\n      0x40\n      dup2\n      keccak256\n      sload\n        /* \"contracts/Gluttony.sol\":3282:3308  FREE_MINT_LIMIT_PER_WALLET */\n      sload(0x0c)\n        /* \"contracts/Gluttony.sol\":3282:3339  FREE_MINT_LIMIT_PER_WALLET - freeMintCountMap[msg.sender] */\n      tag_317\n      swap2\n        /* \"contracts/Gluttony.sol\":3311:3339  freeMintCountMap[msg.sender] */\n      swap1\n        /* \"contracts/Gluttony.sol\":3282:3339  FREE_MINT_LIMIT_PER_WALLET - freeMintCountMap[msg.sender] */\n      tag_318\n      jump\t// in\n    tag_317:\n        /* \"contracts/Gluttony.sol\":3254:3339  uint256 remainingFreeMint = FREE_MINT_LIMIT_PER_WALLET - freeMintCountMap[msg.sender] */\n      swap1\n      pop\n        /* \"contracts/Gluttony.sol\":3358:3379  remainingFreeMint > 0 */\n      dup1\n      iszero\n        /* \"contracts/Gluttony.sol\":3354:3747  if (remainingFreeMint > 0) {... */\n      tag_328\n      jumpi\n        /* \"contracts/Gluttony.sol\":3419:3436  remainingFreeMint */\n      dup1\n        /* \"contracts/Gluttony.sol\":3404:3415  _mintAmount */\n      dup5\n        /* \"contracts/Gluttony.sol\":3404:3436  _mintAmount >= remainingFreeMint */\n      lt\n        /* \"contracts/Gluttony.sol\":3400:3732  if (_mintAmount >= remainingFreeMint) {... */\n      tag_320\n      jumpi\n        /* \"contracts/Gluttony.sol\":3490:3495  PRICE */\n      sload(0x09)\n        /* \"contracts/Gluttony.sol\":3470:3495  remainingFreeMint * PRICE */\n      tag_321\n      swap1\n        /* \"contracts/Gluttony.sol\":3470:3487  remainingFreeMint */\n      dup3\n        /* \"contracts/Gluttony.sol\":3470:3495  remainingFreeMint * PRICE */\n      tag_315\n      jump\t// in\n    tag_321:\n        /* \"contracts/Gluttony.sol\":3461:3495  price -= remainingFreeMint * PRICE */\n      tag_322\n      swap1\n      dup4\n      tag_318\n      jump\t// in\n    tag_322:\n      swap2\n      pop\n        /* \"contracts/Gluttony.sol\":3518:3568  updateFreeMintCount(msg.sender, remainingFreeMint) */\n      tag_323\n        /* \"contracts/Gluttony.sol\":3538:3548  msg.sender */\n      caller\n        /* \"contracts/Gluttony.sol\":3550:3567  remainingFreeMint */\n      dup3\n        /* \"contracts/Gluttony.sol\":3518:3537  updateFreeMintCount */\n      tag_324\n        /* \"contracts/Gluttony.sol\":3518:3568  updateFreeMintCount(msg.sender, remainingFreeMint) */\n      jump\t// in\n    tag_323:\n        /* \"contracts/Gluttony.sol\":3400:3732  if (_mintAmount >= remainingFreeMint) {... */\n      jump(tag_328)\n    tag_320:\n        /* \"contracts/Gluttony.sol\":3640:3645  PRICE */\n      sload(0x09)\n        /* \"contracts/Gluttony.sol\":3626:3645  _mintAmount * PRICE */\n      tag_326\n      swap1\n        /* \"contracts/Gluttony.sol\":3626:3637  _mintAmount */\n      dup6\n        /* \"contracts/Gluttony.sol\":3626:3645  _mintAmount * PRICE */\n      tag_315\n      jump\t// in\n    tag_326:\n        /* \"contracts/Gluttony.sol\":3617:3645  price -= _mintAmount * PRICE */\n      tag_327\n      swap1\n      dup4\n      tag_318\n      jump\t// in\n    tag_327:\n      swap2\n      pop\n        /* \"contracts/Gluttony.sol\":3668:3712  updateFreeMintCount(msg.sender, _mintAmount) */\n      tag_328\n        /* \"contracts/Gluttony.sol\":3688:3698  msg.sender */\n      caller\n        /* \"contracts/Gluttony.sol\":3700:3711  _mintAmount */\n      dup6\n        /* \"contracts/Gluttony.sol\":3668:3687  updateFreeMintCount */\n      tag_324\n        /* \"contracts/Gluttony.sol\":3668:3712  updateFreeMintCount(msg.sender, _mintAmount) */\n      jump\t// in\n    tag_328:\n        /* \"contracts/Gluttony.sol\":3239:3758  {... */\n      pop\n        /* \"contracts/Gluttony.sol\":3192:3758  if (currentIndex < FREE_MINT_IS_ALLOWED_UNTIL) {... */\n    tag_316:\n        /* \"contracts/Gluttony.sol\":3791:3796  price */\n      dup1\n        /* \"contracts/Gluttony.sol\":3778:3787  msg.value */\n      callvalue\n        /* \"contracts/Gluttony.sol\":3778:3796  msg.value >= price */\n      lt\n      iszero\n        /* \"contracts/Gluttony.sol\":3770:3820  require(msg.value >= price, \"Insufficient funds!\") */\n      tag_329\n      jumpi\n      mload(0x40)\n      shl(0xe5, 0x461bcd)\n      dup2\n      mstore\n        /* \"#utility.yul\":12420:12422   */\n      0x20\n        /* \"contracts/Gluttony.sol\":3770:3820  require(msg.value >= price, \"Insufficient funds!\") */\n      0x04\n      dup3\n      add\n        /* \"#utility.yul\":12402:12423   */\n      mstore\n        /* \"#utility.yul\":12459:12461   */\n      0x13\n        /* \"#utility.yul\":12439:12457   */\n      0x24\n      dup3\n      add\n        /* \"#utility.yul\":12432:12462   */\n      mstore\n      shl(0x68, 0x496e73756666696369656e742066756e647321)\n        /* \"#utility.yul\":12478:12496   */\n      0x44\n      dup3\n      add\n        /* \"#utility.yul\":12471:12520   */\n      mstore\n        /* \"#utility.yul\":12537:12555   */\n      0x64\n      add\n        /* \"contracts/Gluttony.sol\":3770:3820  require(msg.value >= price, \"Insufficient funds!\") */\n      tag_216\n        /* \"#utility.yul\":12218:12561   */\n      jump\n        /* \"contracts/Gluttony.sol\":3770:3820  require(msg.value >= price, \"Insufficient funds!\") */\n    tag_329:\n        /* \"contracts/Gluttony.sol\":3833:3867  _safeMint(msg.sender, _mintAmount) */\n      tag_231\n        /* \"contracts/Gluttony.sol\":3843:3853  msg.sender */\n      caller\n        /* \"contracts/Gluttony.sol\":3855:3866  _mintAmount */\n      dup5\n        /* \"contracts/Gluttony.sol\":3833:3842  _safeMint */\n      tag_261\n        /* \"contracts/Gluttony.sol\":3833:3867  _safeMint(msg.sender, _mintAmount) */\n      jump\t// in\n        /* \"contracts/ERC721A.sol\":5912:6200  function setApprovalForAll(address operator, bool approved) public override {... */\n    tag_164:\n        /* \"@openzeppelin/contracts/utils/Context.sol\":719:729  msg.sender */\n      caller\n      sub(shl(0xa0, 0x01), 0x01)\n        /* \"contracts/ERC721A.sol\":6007:6031  operator != _msgSender() */\n      dup4\n      and\n      sub\n        /* \"contracts/ERC721A.sol\":5999:6062  require(operator != _msgSender(), 'ERC721A: approve to caller') */\n      tag_335\n      jumpi\n      mload(0x40)\n      shl(0xe5, 0x461bcd)\n      dup2\n      mstore\n        /* \"#utility.yul\":12768:12770   */\n      0x20\n        /* \"contracts/ERC721A.sol\":5999:6062  require(operator != _msgSender(), 'ERC721A: approve to caller') */\n      0x04\n      dup3\n      add\n        /* \"#utility.yul\":12750:12771   */\n      mstore\n        /* \"#utility.yul\":12807:12809   */\n      0x1a\n        /* \"#utility.yul\":12787:12805   */\n      0x24\n      dup3\n      add\n        /* \"#utility.yul\":12780:12810   */\n      mstore\n        /* \"#utility.yul\":12846:12874   */\n      0x455243373231413a20617070726f766520746f2063616c6c6572000000000000\n        /* \"#utility.yul\":12826:12844   */\n      0x44\n      dup3\n      add\n        /* \"#utility.yul\":12819:12875   */\n      mstore\n        /* \"#utility.yul\":12892:12910   */\n      0x64\n      add\n        /* \"contracts/ERC721A.sol\":5999:6062  require(operator != _msgSender(), 'ERC721A: approve to caller') */\n      tag_216\n        /* \"#utility.yul\":12566:12916   */\n      jump\n        /* \"contracts/ERC721A.sol\":5999:6062  require(operator != _msgSender(), 'ERC721A: approve to caller') */\n    tag_335:\n        /* \"@openzeppelin/contracts/utils/Context.sol\":719:729  msg.sender */\n      caller\n        /* \"contracts/ERC721A.sol\":6075:6107  _operatorApprovals[_msgSender()] */\n      0x00\n      dup2\n      dup2\n      mstore\n        /* \"contracts/ERC721A.sol\":6075:6093  _operatorApprovals */\n      0x06\n        /* \"contracts/ERC721A.sol\":6075:6107  _operatorApprovals[_msgSender()] */\n      0x20\n      swap1\n      dup2\n      mstore\n      0x40\n      dup1\n      dup4\n      keccak256\n      sub(shl(0xa0, 0x01), 0x01)\n        /* \"contracts/ERC721A.sol\":6075:6117  _operatorApprovals[_msgSender()][operator] */\n      dup8\n      and\n      dup1\n      dup6\n      mstore\n      swap1\n      dup4\n      mstore\n      swap3\n      dup2\n      swap1\n      keccak256\n        /* \"contracts/ERC721A.sol\":6075:6128  _operatorApprovals[_msgSender()][operator] = approved */\n      dup1\n      sload\n      not(0xff)\n      and\n      dup7\n      iszero\n      iszero\n      swap1\n      dup2\n      or\n      swap1\n      swap2\n      sstore\n        /* \"contracts/ERC721A.sol\":6144:6192  ApprovalForAll(_msgSender(), operator, approved) */\n      swap1\n      mload\n        /* \"#utility.yul\":540:581   */\n      swap1\n      dup2\n      mstore\n        /* \"contracts/ERC721A.sol\":6075:6117  _operatorApprovals[_msgSender()][operator] */\n      swap2\n      swap3\n        /* \"@openzeppelin/contracts/utils/Context.sol\":719:729  msg.sender */\n      swap2\n        /* \"contracts/ERC721A.sol\":6144:6192  ApprovalForAll(_msgSender(), operator, approved) */\n      0x17307eab39ab6107e8899845ad3d59bd9653f200f220920489ca2b5937696c31\n      swap2\n        /* \"#utility.yul\":513:531   */\n      add\n        /* \"contracts/ERC721A.sol\":6144:6192  ApprovalForAll(_msgSender(), operator, approved) */\n      mload(0x40)\n      dup1\n      swap2\n      sub\n      swap1\n      log3\n        /* \"contracts/ERC721A.sol\":5912:6200  function setApprovalForAll(address operator, bool approved) public override {... */\n      pop\n      pop\n      jump\t// out\n        /* \"contracts/Gluttony.sol\":2067:2208  function setFreeMintAllowance(uint256 freeMintAllowance) external onlyOwner {... */\n    tag_168:\n        /* \"@openzeppelin/contracts/access/Ownable.sol\":1094:1107  _checkOwner() */\n      tag_342\n        /* \"@openzeppelin/contracts/access/Ownable.sol\":1094:1105  _checkOwner */\n      tag_239\n        /* \"@openzeppelin/contracts/access/Ownable.sol\":1094:1107  _checkOwner() */\n      jump\t// in\n    tag_342:\n        /* \"contracts/Gluttony.sol\":2154:2180  FREE_MINT_LIMIT_PER_WALLET */\n      0x0c\n        /* \"contracts/Gluttony.sol\":2154:2200  FREE_MINT_LIMIT_PER_WALLET = freeMintAllowance */\n      sstore\n        /* \"contracts/Gluttony.sol\":2067:2208  function setFreeMintAllowance(uint256 freeMintAllowance) external onlyOwner {... */\n      jump\t// out\n        /* \"contracts/ERC721A.sol\":6983:7338  function safeTransferFrom(... */\n    tag_173:\n        /* \"contracts/ERC721A.sol\":7142:7170  _transfer(from, to, tokenId) */\n      tag_345\n        /* \"contracts/ERC721A.sol\":7152:7156  from */\n      dup5\n        /* \"contracts/ERC721A.sol\":7158:7160  to */\n      dup5\n        /* \"contracts/ERC721A.sol\":7162:7169  tokenId */\n      dup5\n        /* \"contracts/ERC721A.sol\":7142:7151  _transfer */\n      tag_236\n        /* \"contracts/ERC721A.sol\":7142:7170  _transfer(from, to, tokenId) */\n      jump\t// in\n    tag_345:\n        /* \"contracts/ERC721A.sol\":7203:7251  _checkOnERC721Received(from, to, tokenId, _data) */\n      tag_346\n        /* \"contracts/ERC721A.sol\":7226:7230  from */\n      dup5\n        /* \"contracts/ERC721A.sol\":7232:7234  to */\n      dup5\n        /* \"contracts/ERC721A.sol\":7236:7243  tokenId */\n      dup5\n        /* \"contracts/ERC721A.sol\":7245:7250  _data */\n      dup5\n        /* \"contracts/ERC721A.sol\":7203:7225  _checkOnERC721Received */\n      tag_347\n        /* \"contracts/ERC721A.sol\":7203:7251  _checkOnERC721Received(from, to, tokenId, _data) */\n      jump\t// in\n    tag_346:\n        /* \"contracts/ERC721A.sol\":7181:7330  require(... */\n      tag_348\n      jumpi\n      mload(0x40)\n      shl(0xe5, 0x461bcd)\n      dup2\n      mstore\n      0x04\n      add\n      tag_216\n      swap1\n      tag_350\n      jump\t// in\n    tag_348:\n        /* \"contracts/ERC721A.sol\":6983:7338  function safeTransferFrom(... */\n      pop\n      pop\n      pop\n      pop\n      jump\t// out\n        /* \"contracts/Gluttony.sol\":1628:1882  function lowerMaxSupply(uint256 newMaxSupply) external onlyOwner {... */\n    tag_177:\n        /* \"@openzeppelin/contracts/access/Ownable.sol\":1094:1107  _checkOwner() */\n      tag_352\n        /* \"@openzeppelin/contracts/access/Ownable.sol\":1094:1105  _checkOwner */\n      tag_239\n        /* \"@openzeppelin/contracts/access/Ownable.sol\":1094:1107  _checkOwner() */\n      jump\t// in\n    tag_352:\n        /* \"contracts/Gluttony.sol\":1727:1737  MAX_SUPPLY */\n      sload(0x0a)\n        /* \"contracts/Gluttony.sol\":1712:1724  newMaxSupply */\n      dup2\n        /* \"contracts/Gluttony.sol\":1712:1737  newMaxSupply < MAX_SUPPLY */\n      lt\n        /* \"contracts/Gluttony.sol\":1704:1764  require(newMaxSupply < MAX_SUPPLY, \"Invalid new max supply\") */\n      tag_354\n      jumpi\n      mload(0x40)\n      shl(0xe5, 0x461bcd)\n      dup2\n      mstore\n        /* \"#utility.yul\":13543:13545   */\n      0x20\n        /* \"contracts/Gluttony.sol\":1704:1764  require(newMaxSupply < MAX_SUPPLY, \"Invalid new max supply\") */\n      0x04\n      dup3\n      add\n        /* \"#utility.yul\":13525:13546   */\n      mstore\n        /* \"#utility.yul\":13582:13584   */\n      0x16\n        /* \"#utility.yul\":13562:13580   */\n      0x24\n      dup3\n      add\n        /* \"#utility.yul\":13555:13585   */\n      mstore\n      shl(0x50, 0x496e76616c6964206e6577206d617820737570706c79)\n        /* \"#utility.yul\":13601:13619   */\n      0x44\n      dup3\n      add\n        /* \"#utility.yul\":13594:13646   */\n      mstore\n        /* \"#utility.yul\":13663:13681   */\n      0x64\n      add\n        /* \"contracts/Gluttony.sol\":1704:1764  require(newMaxSupply < MAX_SUPPLY, \"Invalid new max supply\") */\n      tag_216\n        /* \"#utility.yul\":13341:13687   */\n      jump\n        /* \"contracts/Gluttony.sol\":1704:1764  require(newMaxSupply < MAX_SUPPLY, \"Invalid new max supply\") */\n    tag_354:\n        /* \"contracts/Gluttony.sol\":1799:1811  currentIndex */\n      sload(0x00)\n        /* \"contracts/Gluttony.sol\":1783:1795  newMaxSupply */\n      dup2\n        /* \"contracts/Gluttony.sol\":1783:1811  newMaxSupply >= currentIndex */\n      lt\n      iszero\n        /* \"contracts/Gluttony.sol\":1775:1838  require(newMaxSupply >= currentIndex, \"Invalid new max supply\") */\n      tag_357\n      jumpi\n      mload(0x40)\n      shl(0xe5, 0x461bcd)\n      dup2\n      mstore\n        /* \"#utility.yul\":13543:13545   */\n      0x20\n        /* \"contracts/Gluttony.sol\":1775:1838  require(newMaxSupply >= currentIndex, \"Invalid new max supply\") */\n      0x04\n      dup3\n      add\n        /* \"#utility.yul\":13525:13546   */\n      mstore\n        /* \"#utility.yul\":13582:13584   */\n      0x16\n        /* \"#utility.yul\":13562:13580   */\n      0x24\n      dup3\n      add\n        /* \"#utility.yul\":13555:13585   */\n      mstore\n      shl(0x50, 0x496e76616c6964206e6577206d617820737570706c79)\n        /* \"#utility.yul\":13601:13619   */\n      0x44\n      dup3\n      add\n        /* \"#utility.yul\":13594:13646   */\n      mstore\n        /* \"#utility.yul\":13663:13681   */\n      0x64\n      add\n        /* \"contracts/Gluttony.sol\":1775:1838  require(newMaxSupply >= currentIndex, \"Invalid new max supply\") */\n      tag_216\n        /* \"#utility.yul\":13341:13687   */\n      jump\n        /* \"contracts/Gluttony.sol\":1775:1838  require(newMaxSupply >= currentIndex, \"Invalid new max supply\") */\n    tag_357:\n        /* \"contracts/Gluttony.sol\":1849:1859  MAX_SUPPLY */\n      0x0a\n        /* \"contracts/Gluttony.sol\":1849:1874  MAX_SUPPLY = newMaxSupply */\n      sstore\n        /* \"contracts/Gluttony.sol\":1628:1882  function lowerMaxSupply(uint256 newMaxSupply) external onlyOwner {... */\n      jump\t// out\n        /* \"contracts/ERC721A.sol\":4408:4743  function tokenURI(uint256 tokenId) public view virtual override returns (string memory) {... */\n    tag_181:\n        /* \"contracts/ERC721A.sol\":4481:4494  string memory */\n      0x60\n        /* \"contracts/ERC721A.sol\":4515:4531  _exists(tokenId) */\n      tag_360\n        /* \"contracts/ERC721A.sol\":4523:4530  tokenId */\n      dup3\n        /* \"contracts/ERC721A.sol\":7650:7654  bool */\n      0x00\n        /* \"contracts/ERC721A.sol\":7684:7696  currentIndex */\n      sload\n      gt\n        /* \"contracts/ERC721A.sol\":7674:7696  tokenId < currentIndex */\n      swap1\n        /* \"contracts/ERC721A.sol\":7593:7704  function _exists(uint256 tokenId) internal view returns (bool) {... */\n      jump\n        /* \"contracts/ERC721A.sol\":4515:4531  _exists(tokenId) */\n    tag_360:\n        /* \"contracts/ERC721A.sol\":4507:4583  require(_exists(tokenId), 'ERC721Metadata: URI query for nonexistent token') */\n      tag_361\n      jumpi\n      mload(0x40)\n      shl(0xe5, 0x461bcd)\n      dup2\n      mstore\n        /* \"#utility.yul\":13894:13896   */\n      0x20\n        /* \"contracts/ERC721A.sol\":4507:4583  require(_exists(tokenId), 'ERC721Metadata: URI query for nonexistent token') */\n      0x04\n      dup3\n      add\n        /* \"#utility.yul\":13876:13897   */\n      mstore\n        /* \"#utility.yul\":13933:13935   */\n      0x2f\n        /* \"#utility.yul\":13913:13931   */\n      0x24\n      dup3\n      add\n        /* \"#utility.yul\":13906:13936   */\n      mstore\n        /* \"#utility.yul\":13972:14006   */\n      0x4552433732314d657461646174613a2055524920717565727920666f72206e6f\n        /* \"#utility.yul\":13952:13970   */\n      0x44\n      dup3\n      add\n        /* \"#utility.yul\":13945:14007   */\n      mstore\n      shl(0x89, 0x3732bc34b9ba32b73a103a37b5b2b7)\n        /* \"#utility.yul\":14023:14041   */\n      0x64\n      dup3\n      add\n        /* \"#utility.yul\":14016:14061   */\n      mstore\n        /* \"#utility.yul\":14078:14097   */\n      0x84\n      add\n        /* \"contracts/ERC721A.sol\":4507:4583  require(_exists(tokenId), 'ERC721Metadata: URI query for nonexistent token') */\n      tag_216\n        /* \"#utility.yul\":13692:14103   */\n      jump\n        /* \"contracts/ERC721A.sol\":4507:4583  require(_exists(tokenId), 'ERC721Metadata: URI query for nonexistent token') */\n    tag_361:\n        /* \"contracts/ERC721A.sol\":4596:4617  string memory baseURI */\n      0x00\n        /* \"contracts/ERC721A.sol\":4620:4630  _baseURI() */\n      tag_364\n        /* \"contracts/ERC721A.sol\":4620:4628  _baseURI */\n      tag_365\n        /* \"contracts/ERC721A.sol\":4620:4630  _baseURI() */\n      jump\t// in\n    tag_364:\n        /* \"contracts/ERC721A.sol\":4596:4630  string memory baseURI = _baseURI() */\n      swap1\n      pop\n        /* \"contracts/ERC721A.sol\":4654:4661  baseURI */\n      dup1\n        /* \"contracts/ERC721A.sol\":4648:4669  bytes(baseURI).length */\n      mload\n        /* \"contracts/ERC721A.sol\":4673:4674  0 */\n      0x00\n        /* \"contracts/ERC721A.sol\":4648:4674  bytes(baseURI).length != 0 */\n      sub\n        /* \"contracts/ERC721A.sol\":4648:4735  bytes(baseURI).length != 0 ? string(abi.encodePacked(baseURI, tokenId.toString())) : '' */\n      tag_366\n      jumpi\n      mload(0x40)\n      dup1\n      0x20\n      add\n      0x40\n      mstore\n      dup1\n      0x00\n      dup2\n      mstore\n      pop\n      jump(tag_367)\n    tag_366:\n        /* \"contracts/ERC721A.sol\":4701:4708  baseURI */\n      dup1\n        /* \"contracts/ERC721A.sol\":4710:4728  tokenId.toString() */\n      tag_368\n        /* \"contracts/ERC721A.sol\":4710:4717  tokenId */\n      dup5\n        /* \"contracts/ERC721A.sol\":4710:4726  tokenId.toString */\n      tag_369\n        /* \"contracts/ERC721A.sol\":4710:4728  tokenId.toString() */\n      jump\t// in\n    tag_368:\n        /* \"contracts/ERC721A.sol\":4684:4729  abi.encodePacked(baseURI, tokenId.toString()) */\n      add(0x20, mload(0x40))\n      tag_370\n      swap3\n      swap2\n      swap1\n      tag_371\n      jump\t// in\n    tag_370:\n      mload(0x40)\n      0x20\n      dup2\n      dup4\n      sub\n      sub\n      dup2\n      mstore\n      swap1\n      0x40\n      mstore\n        /* \"contracts/ERC721A.sol\":4648:4735  bytes(baseURI).length != 0 ? string(abi.encodePacked(baseURI, tokenId.toString())) : '' */\n    tag_367:\n        /* \"contracts/ERC721A.sol\":4641:4735  return bytes(baseURI).length != 0 ? string(abi.encodePacked(baseURI, tokenId.toString())) : '' */\n      swap4\n        /* \"contracts/ERC721A.sol\":4408:4743  function tokenURI(uint256 tokenId) public view virtual override returns (string memory) {... */\n      swap3\n      pop\n      pop\n      pop\n      jump\t// out\n        /* \"contracts/Gluttony.sol\":2625:2711  function freezeMetadata() external onlyOwner {... */\n    tag_185:\n        /* \"@openzeppelin/contracts/access/Ownable.sol\":1094:1107  _checkOwner() */\n      tag_373\n        /* \"@openzeppelin/contracts/access/Ownable.sol\":1094:1105  _checkOwner */\n      tag_239\n        /* \"@openzeppelin/contracts/access/Ownable.sol\":1094:1107  _checkOwner() */\n      jump\t// in\n    tag_373:\n        /* \"contracts/Gluttony.sol\":2681:2696  METADATA_FROZEN */\n      0x10\n        /* \"contracts/Gluttony.sol\":2681:2703  METADATA_FROZEN = true */\n      dup1\n      sload\n      not(0xff)\n      and\n        /* \"contracts/Gluttony.sol\":2699:2703  true */\n      0x01\n        /* \"contracts/Gluttony.sol\":2681:2703  METADATA_FROZEN = true */\n      or\n      swap1\n      sstore\n        /* \"contracts/Gluttony.sol\":2625:2711  function freezeMetadata() external onlyOwner {... */\n      jump\t// out\n        /* \"contracts/ERC721A.sol\":6271:6435  function isApprovedForAll(address owner, address operator) public view virtual override returns (bool) {... */\n    tag_190:\n      sub(shl(0xa0, 0x01), 0x01)\n        /* \"contracts/ERC721A.sol\":6392:6417  _operatorApprovals[owner] */\n      swap2\n      dup3\n      and\n        /* \"contracts/ERC721A.sol\":6368:6372  bool */\n      0x00\n        /* \"contracts/ERC721A.sol\":6392:6417  _operatorApprovals[owner] */\n      swap1\n      dup2\n      mstore\n        /* \"contracts/ERC721A.sol\":6392:6410  _operatorApprovals */\n      0x06\n        /* \"contracts/ERC721A.sol\":6392:6417  _operatorApprovals[owner] */\n      0x20\n      swap1\n      dup2\n      mstore\n      0x40\n      dup1\n      dup4\n      keccak256\n        /* \"contracts/ERC721A.sol\":6392:6427  _operatorApprovals[owner][operator] */\n      swap4\n      swap1\n      swap5\n      and\n      dup3\n      mstore\n      swap2\n      swap1\n      swap2\n      mstore\n      keccak256\n      sload\n      0xff\n      and\n      swap1\n        /* \"contracts/ERC721A.sol\":6271:6435  function isApprovedForAll(address owner, address operator) public view virtual override returns (bool) {... */\n      jump\t// out\n        /* \"@openzeppelin/contracts/access/Ownable.sol\":2081:2279  function transferOwnership(address newOwner) public virtual onlyOwner {... */\n    tag_195:\n        /* \"@openzeppelin/contracts/access/Ownable.sol\":1094:1107  _checkOwner() */\n      tag_377\n        /* \"@openzeppelin/contracts/access/Ownable.sol\":1094:1105  _checkOwner */\n      tag_239\n        /* \"@openzeppelin/contracts/access/Ownable.sol\":1094:1107  _checkOwner() */\n      jump\t// in\n    tag_377:\n      sub(shl(0xa0, 0x01), 0x01)\n        /* \"@openzeppelin/contracts/access/Ownable.sol\":2169:2191  newOwner != address(0) */\n      dup2\n      and\n        /* \"@openzeppelin/contracts/access/Ownable.sol\":2161:2234  require(newOwner != address(0), \"Ownable: new owner is the zero address\") */\n      tag_379\n      jumpi\n      mload(0x40)\n      shl(0xe5, 0x461bcd)\n      dup2\n      mstore\n        /* \"#utility.yul\":14811:14813   */\n      0x20\n        /* \"@openzeppelin/contracts/access/Ownable.sol\":2161:2234  require(newOwner != address(0), \"Ownable: new owner is the zero address\") */\n      0x04\n      dup3\n      add\n        /* \"#utility.yul\":14793:14814   */\n      mstore\n        /* \"#utility.yul\":14850:14852   */\n      0x26\n        /* \"#utility.yul\":14830:14848   */\n      0x24\n      dup3\n      add\n        /* \"#utility.yul\":14823:14853   */\n      mstore\n        /* \"#utility.yul\":14889:14923   */\n      0x4f776e61626c653a206e6577206f776e657220697320746865207a65726f2061\n        /* \"#utility.yul\":14869:14887   */\n      0x44\n      dup3\n      add\n        /* \"#utility.yul\":14862:14924   */\n      mstore\n      shl(0xd0, 0x646472657373)\n        /* \"#utility.yul\":14940:14958   */\n      0x64\n      dup3\n      add\n        /* \"#utility.yul\":14933:14969   */\n      mstore\n        /* \"#utility.yul\":14986:15005   */\n      0x84\n      add\n        /* \"@openzeppelin/contracts/access/Ownable.sol\":2161:2234  require(newOwner != address(0), \"Ownable: new owner is the zero address\") */\n      tag_216\n        /* \"#utility.yul\":14609:15011   */\n      jump\n        /* \"@openzeppelin/contracts/access/Ownable.sol\":2161:2234  require(newOwner != address(0), \"Ownable: new owner is the zero address\") */\n    tag_379:\n        /* \"@openzeppelin/contracts/access/Ownable.sol\":2244:2272  _transferOwnership(newOwner) */\n      tag_382\n        /* \"@openzeppelin/contracts/access/Ownable.sol\":2263:2271  newOwner */\n      dup2\n        /* \"@openzeppelin/contracts/access/Ownable.sol\":2244:2262  _transferOwnership */\n      tag_286\n        /* \"@openzeppelin/contracts/access/Ownable.sol\":2244:2272  _transferOwnership(newOwner) */\n      jump\t// in\n    tag_382:\n        /* \"@openzeppelin/contracts/access/Ownable.sol\":2081:2279  function transferOwnership(address newOwner) public virtual onlyOwner {... */\n      pop\n      jump\t// out\n        /* \"contracts/ERC721A.sol\":12373:12569  function _approve(... */\n    tag_232:\n        /* \"contracts/ERC721A.sol\":12488:12512  _tokenApprovals[tokenId] */\n      0x00\n      dup3\n      dup2\n      mstore\n        /* \"contracts/ERC721A.sol\":12488:12503  _tokenApprovals */\n      0x05\n        /* \"contracts/ERC721A.sol\":12488:12512  _tokenApprovals[tokenId] */\n      0x20\n      mstore\n      0x40\n      dup1\n      dup3\n      keccak256\n        /* \"contracts/ERC721A.sol\":12488:12517  _tokenApprovals[tokenId] = to */\n      dup1\n      sload\n      not(sub(shl(0xa0, 0x01), 0x01))\n      and\n      sub(shl(0xa0, 0x01), 0x01)\n      dup8\n      dup2\n      and\n      swap2\n      dup3\n      or\n      swap1\n      swap3\n      sstore\n        /* \"contracts/ERC721A.sol\":12533:12561  Approval(owner, to, tokenId) */\n      swap2\n      mload\n        /* \"contracts/ERC721A.sol\":12488:12512  _tokenApprovals[tokenId] */\n      dup6\n      swap4\n        /* \"contracts/ERC721A.sol\":12533:12561  Approval(owner, to, tokenId) */\n      swap2\n      dup6\n      and\n      swap2\n      0x8c5be1e5ebec7d5bd14f71427d1e84f3dd0314c0f7b2291e5b200ac8c7c3b925\n      swap2\n      log4\n        /* \"contracts/ERC721A.sol\":12373:12569  function _approve(... */\n      pop\n      pop\n      pop\n      jump\t// out\n        /* \"contracts/ERC721A.sol\":10321:12255  function _transfer(... */\n    tag_236:\n        /* \"contracts/ERC721A.sol\":10436:10471  TokenOwnership memory prevOwnership */\n      0x00\n        /* \"contracts/ERC721A.sol\":10474:10494  ownershipOf(tokenId) */\n      tag_388\n        /* \"contracts/ERC721A.sol\":10486:10493  tokenId */\n      dup3\n        /* \"contracts/ERC721A.sol\":10474:10485  ownershipOf */\n      tag_277\n        /* \"contracts/ERC721A.sol\":10474:10494  ownershipOf(tokenId) */\n      jump\t// in\n    tag_388:\n        /* \"contracts/ERC721A.sol\":10549:10567  prevOwnership.addr */\n      dup1\n      mload\n        /* \"contracts/ERC721A.sol\":10436:10494  TokenOwnership memory prevOwnership = ownershipOf(tokenId) */\n      swap1\n      swap2\n      pop\n        /* \"contracts/ERC721A.sol\":10507:10529  bool isApprovedOrOwner */\n      0x00\n      swap1\n      sub(shl(0xa0, 0x01), 0x01)\n        /* \"contracts/ERC721A.sol\":10533:10567  _msgSender() == prevOwnership.addr */\n      and\n        /* \"@openzeppelin/contracts/utils/Context.sol\":719:729  msg.sender */\n      caller\n      sub(shl(0xa0, 0x01), 0x01)\n        /* \"contracts/ERC721A.sol\":10533:10567  _msgSender() == prevOwnership.addr */\n      and\n      eq\n        /* \"contracts/ERC721A.sol\":10533:10616  _msgSender() == prevOwnership.addr ||... */\n      dup1\n      tag_390\n      jumpi\n      pop\n        /* \"@openzeppelin/contracts/utils/Context.sol\":719:729  msg.sender */\n      caller\n        /* \"contracts/ERC721A.sol\":10580:10600  getApproved(tokenId) */\n      tag_392\n        /* \"contracts/ERC721A.sol\":10592:10599  tokenId */\n      dup5\n        /* \"contracts/ERC721A.sol\":10580:10591  getApproved */\n      tag_60\n        /* \"contracts/ERC721A.sol\":10580:10600  getApproved(tokenId) */\n      jump\t// in\n    tag_392:\n      sub(shl(0xa0, 0x01), 0x01)\n        /* \"contracts/ERC721A.sol\":10580:10616  getApproved(tokenId) == _msgSender() */\n      and\n      eq\n        /* \"contracts/ERC721A.sol\":10533:10616  _msgSender() == prevOwnership.addr ||... */\n    tag_390:\n        /* \"contracts/ERC721A.sol\":10533:10679  _msgSender() == prevOwnership.addr ||... */\n      dup1\n      tag_394\n      jumpi\n      pop\n        /* \"contracts/ERC721A.sol\":10646:10664  prevOwnership.addr */\n      dup2\n      mload\n        /* \"contracts/ERC721A.sol\":10629:10679  isApprovedForAll(prevOwnership.addr, _msgSender()) */\n      tag_394\n      swap1\n        /* \"@openzeppelin/contracts/utils/Context.sol\":719:729  msg.sender */\n      caller\n        /* \"contracts/ERC721A.sol\":6271:6435  function isApprovedForAll(address owner, address operator) public view virtual override returns (bool) {... */\n      tag_190\n      jump\t// in\n        /* \"contracts/ERC721A.sol\":10629:10679  isApprovedForAll(prevOwnership.addr, _msgSender()) */\n    tag_394:\n        /* \"contracts/ERC721A.sol\":10507:10680  bool isApprovedOrOwner = (_msgSender() == prevOwnership.addr ||... */\n      swap1\n      pop\n        /* \"contracts/ERC721A.sol\":10701:10718  isApprovedOrOwner */\n      dup1\n        /* \"contracts/ERC721A.sol\":10693:10773  require(isApprovedOrOwner, 'ERC721A: transfer caller is not owner nor approved') */\n      tag_396\n      jumpi\n      mload(0x40)\n      shl(0xe5, 0x461bcd)\n      dup2\n      mstore\n        /* \"#utility.yul\":15218:15220   */\n      0x20\n        /* \"contracts/ERC721A.sol\":10693:10773  require(isApprovedOrOwner, 'ERC721A: transfer caller is not owner nor approved') */\n      0x04\n      dup3\n      add\n        /* \"#utility.yul\":15200:15221   */\n      mstore\n        /* \"#utility.yul\":15257:15259   */\n      0x32\n        /* \"#utility.yul\":15237:15255   */\n      0x24\n      dup3\n      add\n        /* \"#utility.yul\":15230:15260   */\n      mstore\n        /* \"#utility.yul\":15296:15330   */\n      0x455243373231413a207472616e736665722063616c6c6572206973206e6f7420\n        /* \"#utility.yul\":15276:15294   */\n      0x44\n      dup3\n      add\n        /* \"#utility.yul\":15269:15331   */\n      mstore\n      shl(0x72, 0x1bdddb995c881b9bdc88185c1c1c9bdd9959)\n        /* \"#utility.yul\":15347:15365   */\n      0x64\n      dup3\n      add\n        /* \"#utility.yul\":15340:15388   */\n      mstore\n        /* \"#utility.yul\":15405:15424   */\n      0x84\n      add\n        /* \"contracts/ERC721A.sol\":10693:10773  require(isApprovedOrOwner, 'ERC721A: transfer caller is not owner nor approved') */\n      tag_216\n        /* \"#utility.yul\":15016:15430   */\n      jump\n        /* \"contracts/ERC721A.sol\":10693:10773  require(isApprovedOrOwner, 'ERC721A: transfer caller is not owner nor approved') */\n    tag_396:\n        /* \"contracts/ERC721A.sol\":10816:10820  from */\n      dup5\n      sub(shl(0xa0, 0x01), 0x01)\n        /* \"contracts/ERC721A.sol\":10794:10820  prevOwnership.addr == from */\n      and\n        /* \"contracts/ERC721A.sol\":10794:10807  prevOwnership */\n      dup3\n        /* \"contracts/ERC721A.sol\":10794:10812  prevOwnership.addr */\n      0x00\n      add\n      mload\n      sub(shl(0xa0, 0x01), 0x01)\n        /* \"contracts/ERC721A.sol\":10794:10820  prevOwnership.addr == from */\n      and\n      eq\n        /* \"contracts/ERC721A.sol\":10786:10863  require(prevOwnership.addr == from, 'ERC721A: transfer from incorrect owner') */\n      tag_399\n      jumpi\n      mload(0x40)\n      shl(0xe5, 0x461bcd)\n      dup2\n      mstore\n        /* \"#utility.yul\":15637:15639   */\n      0x20\n        /* \"contracts/ERC721A.sol\":10786:10863  require(prevOwnership.addr == from, 'ERC721A: transfer from incorrect owner') */\n      0x04\n      dup3\n      add\n        /* \"#utility.yul\":15619:15640   */\n      mstore\n        /* \"#utility.yul\":15676:15678   */\n      0x26\n        /* \"#utility.yul\":15656:15674   */\n      0x24\n      dup3\n      add\n        /* \"#utility.yul\":15649:15679   */\n      mstore\n        /* \"#utility.yul\":15715:15749   */\n      0x455243373231413a207472616e736665722066726f6d20696e636f7272656374\n        /* \"#utility.yul\":15695:15713   */\n      0x44\n      dup3\n      add\n        /* \"#utility.yul\":15688:15750   */\n      mstore\n      shl(0xd1, 0x1037bbb732b9)\n        /* \"#utility.yul\":15766:15784   */\n      0x64\n      dup3\n      add\n        /* \"#utility.yul\":15759:15795   */\n      mstore\n        /* \"#utility.yul\":15812:15831   */\n      0x84\n      add\n        /* \"contracts/ERC721A.sol\":10786:10863  require(prevOwnership.addr == from, 'ERC721A: transfer from incorrect owner') */\n      tag_216\n        /* \"#utility.yul\":15435:15837   */\n      jump\n        /* \"contracts/ERC721A.sol\":10786:10863  require(prevOwnership.addr == from, 'ERC721A: transfer from incorrect owner') */\n    tag_399:\n      sub(shl(0xa0, 0x01), 0x01)\n        /* \"contracts/ERC721A.sol\":10882:10898  to != address(0) */\n      dup5\n      and\n        /* \"contracts/ERC721A.sol\":10874:10940  require(to != address(0), 'ERC721A: transfer to the zero address') */\n      tag_402\n      jumpi\n      mload(0x40)\n      shl(0xe5, 0x461bcd)\n      dup2\n      mstore\n        /* \"#utility.yul\":16044:16046   */\n      0x20\n        /* \"contracts/ERC721A.sol\":10874:10940  require(to != address(0), 'ERC721A: transfer to the zero address') */\n      0x04\n      dup3\n      add\n        /* \"#utility.yul\":16026:16047   */\n      mstore\n        /* \"#utility.yul\":16083:16085   */\n      0x25\n        /* \"#utility.yul\":16063:16081   */\n      0x24\n      dup3\n      add\n        /* \"#utility.yul\":16056:16086   */\n      mstore\n        /* \"#utility.yul\":16122:16156   */\n      0x455243373231413a207472616e7366657220746f20746865207a65726f206164\n        /* \"#utility.yul\":16102:16120   */\n      0x44\n      dup3\n      add\n        /* \"#utility.yul\":16095:16157   */\n      mstore\n      shl(0xd8, 0x6472657373)\n        /* \"#utility.yul\":16173:16191   */\n      0x64\n      dup3\n      add\n        /* \"#utility.yul\":16166:16201   */\n      mstore\n        /* \"#utility.yul\":16218:16237   */\n      0x84\n      add\n        /* \"contracts/ERC721A.sol\":10874:10940  require(to != address(0), 'ERC721A: transfer to the zero address') */\n      tag_216\n        /* \"#utility.yul\":15842:16243   */\n      jump\n        /* \"contracts/ERC721A.sol\":10874:10940  require(to != address(0), 'ERC721A: transfer to the zero address') */\n    tag_402:\n        /* \"contracts/ERC721A.sol\":11061:11110  _approve(address(0), tokenId, prevOwnership.addr) */\n      tag_407\n        /* \"contracts/ERC721A.sol\":11078:11079  0 */\n      0x00\n        /* \"contracts/ERC721A.sol\":11082:11089  tokenId */\n      dup5\n        /* \"contracts/ERC721A.sol\":11091:11104  prevOwnership */\n      dup5\n        /* \"contracts/ERC721A.sol\":11091:11109  prevOwnership.addr */\n      0x00\n      add\n      mload\n        /* \"contracts/ERC721A.sol\":11061:11069  _approve */\n      tag_232\n        /* \"contracts/ERC721A.sol\":11061:11110  _approve(address(0), tokenId, prevOwnership.addr) */\n      jump\t// in\n    tag_407:\n      sub(shl(0xa0, 0x01), 0x01)\n        /* \"contracts/ERC721A.sol\":11398:11416  _addressData[from] */\n      dup6\n      dup2\n      and\n      0x00\n      swap1\n      dup2\n      mstore\n        /* \"contracts/ERC721A.sol\":11398:11410  _addressData */\n      0x04\n        /* \"contracts/ERC721A.sol\":11398:11416  _addressData[from] */\n      0x20\n      swap1\n      dup2\n      mstore\n      0x40\n      dup1\n      dup4\n      keccak256\n        /* \"contracts/ERC721A.sol\":11398:11429  _addressData[from].balance -= 1 */\n      dup1\n      sload\n      not(sub(shl(0x80, 0x01), 0x01))\n      dup1\n      dup3\n      and\n      sub(shl(0x80, 0x01), 0x01)\n      swap3\n      dup4\n      and\n      not(0x00)\n      add\n      dup4\n      and\n      or\n      swap1\n      swap3\n      sstore\n        /* \"contracts/ERC721A.sol\":11440:11456  _addressData[to] */\n      dup10\n      dup7\n      and\n      dup1\n      dup7\n      mstore\n      dup4\n      dup7\n      keccak256\n        /* \"contracts/ERC721A.sol\":11440:11469  _addressData[to].balance += 1 */\n      dup1\n      sload\n      swap4\n      dup5\n      and\n      swap4\n      dup4\n      and\n      0x01\n      swap1\n      dup2\n      add\n      swap1\n      swap4\n      and\n      swap4\n      swap1\n      swap4\n      or\n      swap1\n      swap3\n      sstore\n        /* \"contracts/ERC721A.sol\":11482:11502  _ownerships[tokenId] */\n      dup9\n      dup6\n      mstore\n        /* \"contracts/ERC721A.sol\":11482:11493  _ownerships */\n      0x03\n        /* \"contracts/ERC721A.sol\":11482:11502  _ownerships[tokenId] */\n      swap1\n      swap4\n      mstore\n      dup2\n      dup5\n      keccak256\n        /* \"contracts/ERC721A.sol\":11482:11512  _ownerships[tokenId].addr = to */\n      dup1\n      sload\n      not(sub(shl(0xe0, 0x01), 0x01))\n        /* \"contracts/ERC721A.sol\":11523:11584  _ownerships[tokenId].startTimestamp = uint64(block.timestamp) */\n      and\n      swap1\n      swap2\n      or\n      shl(0xa0, 0x01)\n        /* \"contracts/ERC721A.sol\":11568:11583  block.timestamp */\n      timestamp\n        /* \"contracts/ERC721A.sol\":11523:11584  _ownerships[tokenId].startTimestamp = uint64(block.timestamp) */\n      0xffffffffffffffff\n      and\n      mul\n      or\n      swap1\n      sstore\n        /* \"contracts/ERC721A.sol\":11846:11857  tokenId + 1 */\n      swap1\n      dup7\n      add\n        /* \"contracts/ERC721A.sol\":11872:11896  _ownerships[nextTokenId] */\n      dup1\n      dup4\n      mstore\n      swap2\n      keccak256\n        /* \"contracts/ERC721A.sol\":11872:11901  _ownerships[nextTokenId].addr */\n      sload\n        /* \"contracts/ERC721A.sol\":11846:11857  tokenId + 1 */\n      swap1\n      swap2\n        /* \"contracts/ERC721A.sol\":11872:11901  _ownerships[nextTokenId].addr */\n      and\n        /* \"contracts/ERC721A.sol\":11868:12143  if (_ownerships[nextTokenId].addr == address(0)) {... */\n      tag_410\n      jumpi\n        /* \"contracts/ERC721A.sol\":11936:11956  _exists(nextTokenId) */\n      tag_409\n        /* \"contracts/ERC721A.sol\":11944:11955  nextTokenId */\n      dup2\n        /* \"contracts/ERC721A.sol\":7650:7654  bool */\n      0x00\n        /* \"contracts/ERC721A.sol\":7684:7696  currentIndex */\n      sload\n      gt\n        /* \"contracts/ERC721A.sol\":7674:7696  tokenId < currentIndex */\n      swap1\n        /* \"contracts/ERC721A.sol\":7593:7704  function _exists(uint256 tokenId) internal view returns (bool) {... */\n      jump\n        /* \"contracts/ERC721A.sol\":11936:11956  _exists(nextTokenId) */\n    tag_409:\n        /* \"contracts/ERC721A.sol\":11932:12132  if (_exists(nextTokenId)) {... */\n      iszero\n      tag_410\n      jumpi\n        /* \"contracts/ERC721A.sol\":12009:12027  prevOwnership.addr */\n      dup3\n      mload\n      0x00\n        /* \"contracts/ERC721A.sol\":11977:12001  _ownerships[nextTokenId] */\n      dup3\n      dup2\n      mstore\n        /* \"contracts/ERC721A.sol\":11977:11988  _ownerships */\n      0x03\n        /* \"contracts/ERC721A.sol\":11977:12001  _ownerships[nextTokenId] */\n      0x20\n      swap1\n      dup2\n      mstore\n      0x40\n      swap1\n      swap2\n      keccak256\n        /* \"contracts/ERC721A.sol\":11977:12027  _ownerships[nextTokenId].addr = prevOwnership.addr */\n      dup1\n      sload\n        /* \"contracts/ERC721A.sol\":12088:12116  prevOwnership.startTimestamp */\n      swap2\n      dup7\n      add\n      mload\n        /* \"contracts/ERC721A.sol\":12046:12116  _ownerships[nextTokenId].startTimestamp = prevOwnership.startTimestamp */\n      0xffffffffffffffff\n      and\n      shl(0xa0, 0x01)\n      mul\n      not(sub(shl(0xe0, 0x01), 0x01))\n      swap1\n      swap3\n      and\n      sub(shl(0xa0, 0x01), 0x01)\n        /* \"contracts/ERC721A.sol\":11977:12027  _ownerships[nextTokenId].addr = prevOwnership.addr */\n      swap1\n      swap4\n      and\n        /* \"contracts/ERC721A.sol\":12046:12116  _ownerships[nextTokenId].startTimestamp = prevOwnership.startTimestamp */\n      swap3\n      swap1\n      swap3\n      or\n      or\n      swap1\n      sstore\n        /* \"contracts/ERC721A.sol\":11932:12132  if (_exists(nextTokenId)) {... */\n    tag_410:\n        /* \"contracts/ERC721A.sol\":11377:12150  unchecked {... */\n      pop\n        /* \"contracts/ERC721A.sol\":12186:12193  tokenId */\n      dup3\n        /* \"contracts/ERC721A.sol\":12182:12184  to */\n      dup5\n      sub(shl(0xa0, 0x01), 0x01)\n        /* \"contracts/ERC721A.sol\":12167:12194  Transfer(from, to, tokenId) */\n      and\n        /* \"contracts/ERC721A.sol\":12176:12180  from */\n      dup7\n      sub(shl(0xa0, 0x01), 0x01)\n        /* \"contracts/ERC721A.sol\":12167:12194  Transfer(from, to, tokenId) */\n      and\n      0xddf252ad1be2c89b69c2b068fc378daa952ba7f163c4a11628f55a4df523b3ef\n      mload(0x40)\n      mload(0x40)\n      dup1\n      swap2\n      sub\n      swap1\n      log4\n        /* \"contracts/ERC721A.sol\":12205:12247  _afterTokenTransfers(from, to, tokenId, 1) */\n    tag_411:\n        /* \"contracts/ERC721A.sol\":10425:12255  {... */\n      pop\n      pop\n        /* \"contracts/ERC721A.sol\":10321:12255  function _transfer(... */\n      pop\n      pop\n      pop\n      jump\t// out\n        /* \"@openzeppelin/contracts/access/Ownable.sol\":1359:1489  function _checkOwner() internal view virtual {... */\n    tag_239:\n        /* \"@openzeppelin/contracts/access/Ownable.sol\":1273:1279  _owner */\n      and(sub(shl(0xa0, 0x01), 0x01), sload(0x07))\n        /* \"@openzeppelin/contracts/utils/Context.sol\":719:729  msg.sender */\n      caller\n        /* \"@openzeppelin/contracts/access/Ownable.sol\":1422:1445  owner() == _msgSender() */\n      eq\n        /* \"@openzeppelin/contracts/access/Ownable.sol\":1414:1482  require(owner() == _msgSender(), \"Ownable: caller is not the owner\") */\n      tag_285\n      jumpi\n      mload(0x40)\n      shl(0xe5, 0x461bcd)\n      dup2\n      mstore\n        /* \"#utility.yul\":16450:16452   */\n      0x20\n        /* \"@openzeppelin/contracts/access/Ownable.sol\":1414:1482  require(owner() == _msgSender(), \"Ownable: caller is not the owner\") */\n      0x04\n      dup3\n      add\n        /* \"#utility.yul\":16432:16453   */\n      dup2\n      swap1\n      mstore\n        /* \"#utility.yul\":16469:16487   */\n      0x24\n      dup3\n      add\n        /* \"#utility.yul\":16462:16492   */\n      mstore\n        /* \"#utility.yul\":16528:16562   */\n      0x4f776e61626c653a2063616c6c6572206973206e6f7420746865206f776e6572\n        /* \"#utility.yul\":16508:16526   */\n      0x44\n      dup3\n      add\n        /* \"#utility.yul\":16501:16563   */\n      mstore\n        /* \"#utility.yul\":16580:16598   */\n      0x64\n      add\n        /* \"@openzeppelin/contracts/access/Ownable.sol\":1414:1482  require(owner() == _msgSender(), \"Ownable: caller is not the owner\") */\n      tag_216\n        /* \"#utility.yul\":16248:16604   */\n      jump\n        /* \"@openzeppelin/contracts/utils/Address.sol\":2412:2724  function sendValue(address payable recipient, uint256 amount) internal {... */\n    tag_246:\n        /* \"@openzeppelin/contracts/utils/Address.sol\":2526:2532  amount */\n      dup1\n        /* \"@openzeppelin/contracts/utils/Address.sol\":2501:2522  address(this).balance */\n      selfbalance\n        /* \"@openzeppelin/contracts/utils/Address.sol\":2501:2532  address(this).balance >= amount */\n      lt\n      iszero\n        /* \"@openzeppelin/contracts/utils/Address.sol\":2493:2566  require(address(this).balance >= amount, \"Address: insufficient balance\") */\n      tag_420\n      jumpi\n      mload(0x40)\n      shl(0xe5, 0x461bcd)\n      dup2\n      mstore\n        /* \"#utility.yul\":16811:16813   */\n      0x20\n        /* \"@openzeppelin/contracts/utils/Address.sol\":2493:2566  require(address(this).balance >= amount, \"Address: insufficient balance\") */\n      0x04\n      dup3\n      add\n        /* \"#utility.yul\":16793:16814   */\n      mstore\n        /* \"#utility.yul\":16850:16852   */\n      0x1d\n        /* \"#utility.yul\":16830:16848   */\n      0x24\n      dup3\n      add\n        /* \"#utility.yul\":16823:16853   */\n      mstore\n        /* \"#utility.yul\":16889:16920   */\n      0x416464726573733a20696e73756666696369656e742062616c616e6365000000\n        /* \"#utility.yul\":16869:16887   */\n      0x44\n      dup3\n      add\n        /* \"#utility.yul\":16862:16921   */\n      mstore\n        /* \"#utility.yul\":16938:16956   */\n      0x64\n      add\n        /* \"@openzeppelin/contracts/utils/Address.sol\":2493:2566  require(address(this).balance >= amount, \"Address: insufficient balance\") */\n      tag_216\n        /* \"#utility.yul\":16609:16962   */\n      jump\n        /* \"@openzeppelin/contracts/utils/Address.sol\":2493:2566  require(address(this).balance >= amount, \"Address: insufficient balance\") */\n    tag_420:\n        /* \"@openzeppelin/contracts/utils/Address.sol\":2578:2590  bool success */\n      0x00\n        /* \"@openzeppelin/contracts/utils/Address.sol\":2596:2605  recipient */\n      dup3\n      sub(shl(0xa0, 0x01), 0x01)\n        /* \"@openzeppelin/contracts/utils/Address.sol\":2596:2610  recipient.call */\n      and\n        /* \"@openzeppelin/contracts/utils/Address.sol\":2618:2624  amount */\n      dup3\n        /* \"@openzeppelin/contracts/utils/Address.sol\":2596:2629  recipient.call{value: amount}(\"\") */\n      mload(0x40)\n      0x00\n      mload(0x40)\n      dup1\n      dup4\n      sub\n      dup2\n      dup6\n      dup8\n      gas\n      call\n      swap3\n      pop\n      pop\n      pop\n      returndatasize\n      dup1\n      0x00\n      dup2\n      eq\n      tag_427\n      jumpi\n      mload(0x40)\n      swap2\n      pop\n      and(add(returndatasize, 0x3f), not(0x1f))\n      dup3\n      add\n      0x40\n      mstore\n      returndatasize\n      dup3\n      mstore\n      returndatasize\n      0x00\n      0x20\n      dup5\n      add\n      returndatacopy\n      jump(tag_426)\n    tag_427:\n      0x60\n      swap2\n      pop\n    tag_426:\n      pop\n        /* \"@openzeppelin/contracts/utils/Address.sol\":2577:2629  (bool success, ) = recipient.call{value: amount}(\"\") */\n      pop\n      swap1\n      pop\n        /* \"@openzeppelin/contracts/utils/Address.sol\":2647:2654  success */\n      dup1\n        /* \"@openzeppelin/contracts/utils/Address.sol\":2639:2717  require(success, \"Address: unable to send value, recipient may have reverted\") */\n      tag_231\n      jumpi\n      mload(0x40)\n      shl(0xe5, 0x461bcd)\n      dup2\n      mstore\n        /* \"#utility.yul\":17379:17381   */\n      0x20\n        /* \"@openzeppelin/contracts/utils/Address.sol\":2639:2717  require(success, \"Address: unable to send value, recipient may have reverted\") */\n      0x04\n      dup3\n      add\n        /* \"#utility.yul\":17361:17382   */\n      mstore\n        /* \"#utility.yul\":17418:17420   */\n      0x3a\n        /* \"#utility.yul\":17398:17416   */\n      0x24\n      dup3\n      add\n        /* \"#utility.yul\":17391:17421   */\n      mstore\n        /* \"#utility.yul\":17457:17491   */\n      0x416464726573733a20756e61626c6520746f2073656e642076616c75652c2072\n        /* \"#utility.yul\":17437:17455   */\n      0x44\n      dup3\n      add\n        /* \"#utility.yul\":17430:17492   */\n      mstore\n        /* \"#utility.yul\":17528:17556   */\n      0x6563697069656e74206d61792068617665207265766572746564000000000000\n        /* \"#utility.yul\":17508:17526   */\n      0x64\n      dup3\n      add\n        /* \"#utility.yul\":17501:17557   */\n      mstore\n        /* \"#utility.yul\":17574:17593   */\n      0x84\n      add\n        /* \"@openzeppelin/contracts/utils/Address.sol\":2639:2717  require(success, \"Address: unable to send value, recipient may have reverted\") */\n      tag_216\n        /* \"#utility.yul\":17177:17599   */\n      jump\n        /* \"contracts/ERC721A.sol\":7712:7816  function _safeMint(address to, uint256 quantity) internal {... */\n    tag_261:\n        /* \"contracts/ERC721A.sol\":7781:7808  _safeMint(to, quantity, '') */\n      tag_270\n        /* \"contracts/ERC721A.sol\":7791:7793  to */\n      dup3\n        /* \"contracts/ERC721A.sol\":7795:7803  quantity */\n      dup3\n        /* \"contracts/ERC721A.sol\":7781:7808  _safeMint(to, quantity, '') */\n      mload(0x40)\n      dup1\n      0x20\n      add\n      0x40\n      mstore\n      dup1\n      0x00\n      dup2\n      mstore\n      pop\n        /* \"contracts/ERC721A.sol\":7781:7790  _safeMint */\n      tag_433\n        /* \"contracts/ERC721A.sol\":7781:7808  _safeMint(to, quantity, '') */\n      jump\t// in\n        /* \"contracts/ERC721A.sol\":3306:3811  function ownershipOf(uint256 tokenId) internal view returns (TokenOwnership memory) {... */\n    tag_277:\n      0x40\n      dup1\n      mload\n      dup1\n      dup3\n      add\n      swap1\n      swap2\n      mstore\n      0x00\n      dup1\n      dup3\n      mstore\n      0x20\n      dup3\n      add\n      mstore\n        /* \"contracts/ERC721A.sol\":3409:3425  _exists(tokenId) */\n      tag_437\n        /* \"contracts/ERC721A.sol\":3417:3424  tokenId */\n      dup3\n        /* \"contracts/ERC721A.sol\":7650:7654  bool */\n      0x00\n        /* \"contracts/ERC721A.sol\":7684:7696  currentIndex */\n      sload\n      gt\n        /* \"contracts/ERC721A.sol\":7674:7696  tokenId < currentIndex */\n      swap1\n        /* \"contracts/ERC721A.sol\":7593:7704  function _exists(uint256 tokenId) internal view returns (bool) {... */\n      jump\n        /* \"contracts/ERC721A.sol\":3409:3425  _exists(tokenId) */\n    tag_437:\n        /* \"contracts/ERC721A.sol\":3401:3472  require(_exists(tokenId), 'ERC721A: owner query for nonexistent token') */\n      tag_438\n      jumpi\n      mload(0x40)\n      shl(0xe5, 0x461bcd)\n      dup2\n      mstore\n        /* \"#utility.yul\":17806:17808   */\n      0x20\n        /* \"contracts/ERC721A.sol\":3401:3472  require(_exists(tokenId), 'ERC721A: owner query for nonexistent token') */\n      0x04\n      dup3\n      add\n        /* \"#utility.yul\":17788:17809   */\n      mstore\n        /* \"#utility.yul\":17845:17847   */\n      0x2a\n        /* \"#utility.yul\":17825:17843   */\n      0x24\n      dup3\n      add\n        /* \"#utility.yul\":17818:17848   */\n      mstore\n        /* \"#utility.yul\":17884:17918   */\n      0x455243373231413a206f776e657220717565727920666f72206e6f6e65786973\n        /* \"#utility.yul\":17864:17882   */\n      0x44\n      dup3\n      add\n        /* \"#utility.yul\":17857:17919   */\n      mstore\n      shl(0xb1, 0x3a32b73a103a37b5b2b7)\n        /* \"#utility.yul\":17935:17953   */\n      0x64\n      dup3\n      add\n        /* \"#utility.yul\":17928:17968   */\n      mstore\n        /* \"#utility.yul\":17985:18004   */\n      0x84\n      add\n        /* \"contracts/ERC721A.sol\":3401:3472  require(_exists(tokenId), 'ERC721A: owner query for nonexistent token') */\n      tag_216\n        /* \"#utility.yul\":17604:18010   */\n      jump\n        /* \"contracts/ERC721A.sol\":3401:3472  require(_exists(tokenId), 'ERC721A: owner query for nonexistent token') */\n    tag_438:\n        /* \"contracts/ERC721A.sol\":3522:3529  tokenId */\n      dup2\n        /* \"contracts/ERC721A.sol\":3502:3727  for (uint256 curr = tokenId; curr >= 0; curr--) {... */\n    tag_441:\n        /* \"contracts/ERC721A.sol\":3565:3596  TokenOwnership memory ownership */\n      0x00\n        /* \"contracts/ERC721A.sol\":3599:3616  _ownerships[curr] */\n      dup2\n      dup2\n      mstore\n        /* \"contracts/ERC721A.sol\":3599:3610  _ownerships */\n      0x03\n        /* \"contracts/ERC721A.sol\":3599:3616  _ownerships[curr] */\n      0x20\n      swap1\n      dup2\n      mstore\n      0x40\n      swap2\n      dup3\n      swap1\n      keccak256\n        /* \"contracts/ERC721A.sol\":3565:3616  TokenOwnership memory ownership = _ownerships[curr] */\n      dup3\n      mload\n      dup1\n      dup5\n      add\n      swap1\n      swap4\n      mstore\n      sload\n      sub(shl(0xa0, 0x01), 0x01)\n      dup2\n      and\n      dup1\n      dup5\n      mstore\n      shl(0xa0, 0x01)\n      swap1\n      swap2\n      div\n      0xffffffffffffffff\n      and\n      swap2\n      dup4\n      add\n      swap2\n      swap1\n      swap2\n      mstore\n        /* \"contracts/ERC721A.sol\":3635:3663  ownership.addr != address(0) */\n      iszero\n        /* \"contracts/ERC721A.sol\":3631:3716  if (ownership.addr != address(0)) {... */\n      tag_444\n      jumpi\n        /* \"contracts/ERC721A.sol\":3691:3700  ownership */\n      swap4\n        /* \"contracts/ERC721A.sol\":3306:3811  function ownershipOf(uint256 tokenId) internal view returns (TokenOwnership memory) {... */\n      swap3\n      pop\n      pop\n      pop\n      jump\t// out\n        /* \"contracts/ERC721A.sol\":3631:3716  if (ownership.addr != address(0)) {... */\n    tag_444:\n      pop\n      not(0x00)\n        /* \"contracts/ERC721A.sol\":3542:3548  curr-- */\n      add\n        /* \"contracts/ERC721A.sol\":3502:3727  for (uint256 curr = tokenId; curr >= 0; curr--) {... */\n      jump(tag_441)\n        /* \"@openzeppelin/contracts/access/Ownable.sol\":2433:2620  function _transferOwnership(address newOwner) internal virtual {... */\n    tag_286:\n        /* \"@openzeppelin/contracts/access/Ownable.sol\":2525:2531  _owner */\n      0x07\n      dup1\n      sload\n      sub(shl(0xa0, 0x01), 0x01)\n        /* \"@openzeppelin/contracts/access/Ownable.sol\":2541:2558  _owner = newOwner */\n      dup4\n      dup2\n      and\n      not(sub(shl(0xa0, 0x01), 0x01))\n      dup4\n      and\n      dup2\n      or\n      swap1\n      swap4\n      sstore\n        /* \"@openzeppelin/contracts/access/Ownable.sol\":2573:2613  OwnershipTransferred(oldOwner, newOwner) */\n      mload(0x40)\n        /* \"@openzeppelin/contracts/access/Ownable.sol\":2525:2531  _owner */\n      swap2\n      and\n      swap2\n        /* \"@openzeppelin/contracts/access/Ownable.sol\":2541:2558  _owner = newOwner */\n      swap1\n        /* \"@openzeppelin/contracts/access/Ownable.sol\":2525:2531  _owner */\n      dup3\n      swap1\n        /* \"@openzeppelin/contracts/access/Ownable.sol\":2573:2613  OwnershipTransferred(oldOwner, newOwner) */\n      0x8be0079c531659141344cd1fd0a4f28419497f9722a3daafe3b4186f6b6457e0\n      swap1\n        /* \"@openzeppelin/contracts/access/Ownable.sol\":2506:2522  address oldOwner */\n      0x00\n      swap1\n        /* \"@openzeppelin/contracts/access/Ownable.sol\":2573:2613  OwnershipTransferred(oldOwner, newOwner) */\n      log3\n        /* \"@openzeppelin/contracts/access/Ownable.sol\":2496:2620  {... */\n      pop\n        /* \"@openzeppelin/contracts/access/Ownable.sol\":2433:2620  function _transferOwnership(address newOwner) internal virtual {... */\n      pop\n      jump\t// out\n        /* \"contracts/Gluttony.sol\":1233:1353  function updateFreeMintCount(address minter, uint256 count) private {... */\n    tag_324:\n      sub(shl(0xa0, 0x01), 0x01)\n        /* \"contracts/Gluttony.sol\":1312:1336  freeMintCountMap[minter] */\n      dup3\n      and\n      0x00\n      swap1\n      dup2\n      mstore\n        /* \"contracts/Gluttony.sol\":1312:1328  freeMintCountMap */\n      0x11\n        /* \"contracts/Gluttony.sol\":1312:1336  freeMintCountMap[minter] */\n      0x20\n      mstore\n      0x40\n      dup2\n      keccak256\n        /* \"contracts/Gluttony.sol\":1312:1345  freeMintCountMap[minter] += count */\n      dup1\n      sload\n        /* \"contracts/Gluttony.sol\":1340:1345  count */\n      dup4\n      swap3\n        /* \"contracts/Gluttony.sol\":1312:1336  freeMintCountMap[minter] */\n      swap1\n        /* \"contracts/Gluttony.sol\":1312:1345  freeMintCountMap[minter] += count */\n      tag_449\n      swap1\n        /* \"contracts/Gluttony.sol\":1340:1345  count */\n      dup5\n      swap1\n        /* \"contracts/Gluttony.sol\":1312:1345  freeMintCountMap[minter] += count */\n      tag_253\n      jump\t// in\n    tag_449:\n      swap1\n      swap2\n      sstore\n      pop\n      pop\n      pop\n      pop\n        /* \"contracts/Gluttony.sol\":1233:1353  function updateFreeMintCount(address minter, uint256 count) private {... */\n      jump\t// out\n        /* \"contracts/ERC721A.sol\":13134:13938  function _checkOnERC721Received(... */\n    tag_347:\n        /* \"contracts/ERC721A.sol\":13289:13293  bool */\n      0x00\n      sub(shl(0xa0, 0x01), 0x01)\n        /* \"contracts/ERC721A.sol\":13310:13323  to.isContract */\n      dup5\n      and\n        /* \"@openzeppelin/contracts/utils/Address.sol\":1465:1484  account.code.length */\n      extcodesize\n        /* \"@openzeppelin/contracts/utils/Address.sol\":1465:1488  account.code.length > 0 */\n      iszero\n        /* \"contracts/ERC721A.sol\":13306:13931  if (to.isContract()) {... */\n      tag_453\n      jumpi\n        /* \"contracts/ERC721A.sol\":13346:13418  IERC721Receiver(to).onERC721Received(_msgSender(), from, tokenId, _data) */\n      mload(0x40)\n      shl(0xe1, 0x0a85bd01)\n      dup2\n      mstore\n      sub(shl(0xa0, 0x01), 0x01)\n        /* \"contracts/ERC721A.sol\":13346:13382  IERC721Receiver(to).onERC721Received */\n      dup6\n      and\n      swap1\n      0x150b7a02\n      swap1\n        /* \"contracts/ERC721A.sol\":13346:13418  IERC721Receiver(to).onERC721Received(_msgSender(), from, tokenId, _data) */\n      tag_455\n      swap1\n        /* \"@openzeppelin/contracts/utils/Context.sol\":719:729  msg.sender */\n      caller\n      swap1\n        /* \"contracts/ERC721A.sol\":13397:13401  from */\n      dup10\n      swap1\n        /* \"contracts/ERC721A.sol\":13403:13410  tokenId */\n      dup9\n      swap1\n        /* \"contracts/ERC721A.sol\":13412:13417  _data */\n      dup9\n      swap1\n        /* \"contracts/ERC721A.sol\":13346:13418  IERC721Receiver(to).onERC721Received(_msgSender(), from, tokenId, _data) */\n      0x04\n      add\n      tag_456\n      jump\t// in\n    tag_455:\n      0x20\n      mload(0x40)\n      dup1\n      dup4\n      sub\n      dup2\n      0x00\n      dup8\n      gas\n      call\n      swap3\n      pop\n      pop\n      pop\n      dup1\n      iszero\n      tag_457\n      jumpi\n      pop\n      0x40\n      dup1\n      mload\n      0x1f\n      returndatasize\n      swap1\n      dup2\n      add\n      not(0x1f)\n      and\n      dup3\n      add\n      swap1\n      swap3\n      mstore\n      tag_458\n      swap2\n      dup2\n      add\n      swap1\n      tag_459\n      jump\t// in\n    tag_458:\n      0x01\n    tag_457:\n        /* \"contracts/ERC721A.sol\":13342:13876  try IERC721Receiver(to).onERC721Received(_msgSender(), from, tokenId, _data) returns (bytes4 retval) {... */\n      tag_460\n      jumpi\n      returndatasize\n      dup1\n      dup1\n      iszero\n      tag_465\n      jumpi\n      mload(0x40)\n      swap2\n      pop\n      and(add(returndatasize, 0x3f), not(0x1f))\n      dup3\n      add\n      0x40\n      mstore\n      returndatasize\n      dup3\n      mstore\n      returndatasize\n      0x00\n      0x20\n      dup5\n      add\n      returndatacopy\n      jump(tag_464)\n    tag_465:\n      0x60\n      swap2\n      pop\n    tag_464:\n      pop\n        /* \"contracts/ERC721A.sol\":13592:13598  reason */\n      dup1\n        /* \"contracts/ERC721A.sol\":13592:13605  reason.length */\n      mload\n        /* \"contracts/ERC721A.sol\":13609:13610  0 */\n      0x00\n        /* \"contracts/ERC721A.sol\":13592:13610  reason.length == 0 */\n      sub\n        /* \"contracts/ERC721A.sol\":13588:13861  if (reason.length == 0) {... */\n      tag_466\n      jumpi\n        /* \"contracts/ERC721A.sol\":13635:13696  revert('ERC721A: transfer to non ERC721Receiver implementer') */\n      mload(0x40)\n      shl(0xe5, 0x461bcd)\n      dup2\n      mstore\n      0x04\n      add\n      tag_216\n      swap1\n      tag_350\n      jump\t// in\n        /* \"contracts/ERC721A.sol\":13588:13861  if (reason.length == 0) {... */\n    tag_466:\n        /* \"contracts/ERC721A.sol\":13811:13817  reason */\n      dup1\n        /* \"contracts/ERC721A.sol\":13805:13818  mload(reason) */\n      mload\n        /* \"contracts/ERC721A.sol\":13796:13802  reason */\n      dup2\n        /* \"contracts/ERC721A.sol\":13792:13794  32 */\n      0x20\n        /* \"contracts/ERC721A.sol\":13788:13803  add(32, reason) */\n      add\n        /* \"contracts/ERC721A.sol\":13781:13819  revert(add(32, reason), mload(reason)) */\n      revert\n        /* \"contracts/ERC721A.sol\":13342:13876  try IERC721Receiver(to).onERC721Received(_msgSender(), from, tokenId, _data) returns (bytes4 retval) {... */\n    tag_460:\n      not(sub(shl(0xe0, 0x01), 0x01))\n        /* \"contracts/ERC721A.sol\":13469:13524  retval == IERC721Receiver(to).onERC721Received.selector */\n      and\n      shl(0xe1, 0x0a85bd01)\n      eq\n      swap1\n      pop\n        /* \"contracts/ERC721A.sol\":13462:13524  return retval == IERC721Receiver(to).onERC721Received.selector */\n      jump(tag_470)\n        /* \"contracts/ERC721A.sol\":13306:13931  if (to.isContract()) {... */\n    tag_453:\n      pop\n        /* \"contracts/ERC721A.sol\":13915:13919  true */\n      0x01\n        /* \"contracts/ERC721A.sol\":13306:13931  if (to.isContract()) {... */\n    tag_470:\n        /* \"contracts/ERC721A.sol\":13134:13938  function _checkOnERC721Received(... */\n      swap5\n      swap4\n      pop\n      pop\n      pop\n      pop\n      jump\t// out\n        /* \"contracts/Gluttony.sol\":1384:1493  function _baseURI() internal view virtual override returns (string memory) {... */\n    tag_365:\n        /* \"contracts/Gluttony.sol\":1444:1457  string memory */\n      0x60\n        /* \"contracts/Gluttony.sol\":1477:1485  BASE_URI */\n      0x0b\n        /* \"contracts/Gluttony.sol\":1470:1485  return BASE_URI */\n      dup1\n      sload\n      tag_206\n      swap1\n      tag_207\n      jump\t// in\n        /* \"@openzeppelin/contracts/utils/Strings.sol\":392:1095  function toString(uint256 value) internal pure returns (string memory) {... */\n    tag_369:\n        /* \"@openzeppelin/contracts/utils/Strings.sol\":448:461  string memory */\n      0x60\n        /* \"@openzeppelin/contracts/utils/Strings.sol\":665:670  value */\n      dup2\n        /* \"@openzeppelin/contracts/utils/Strings.sol\":674:675  0 */\n      0x00\n        /* \"@openzeppelin/contracts/utils/Strings.sol\":665:675  value == 0 */\n      sub\n        /* \"@openzeppelin/contracts/utils/Strings.sol\":661:712  if (value == 0) {... */\n      tag_478\n      jumpi\n      pop\n      pop\n        /* \"@openzeppelin/contracts/utils/Strings.sol\":691:701  return \"0\" */\n      0x40\n      dup1\n      mload\n      dup1\n      dup3\n      add\n      swap1\n      swap2\n      mstore\n      0x01\n      dup2\n      mstore\n      shl(0xfc, 0x03)\n      0x20\n      dup3\n      add\n      mstore\n      swap1\n        /* \"@openzeppelin/contracts/utils/Strings.sol\":392:1095  function toString(uint256 value) internal pure returns (string memory) {... */\n      jump\t// out\n        /* \"@openzeppelin/contracts/utils/Strings.sol\":661:712  if (value == 0) {... */\n    tag_478:\n        /* \"@openzeppelin/contracts/utils/Strings.sol\":736:741  value */\n      dup2\n        /* \"@openzeppelin/contracts/utils/Strings.sol\":721:733  uint256 temp */\n      0x00\n        /* \"@openzeppelin/contracts/utils/Strings.sol\":775:850  while (temp != 0) {... */\n    tag_479:\n        /* \"@openzeppelin/contracts/utils/Strings.sol\":782:791  temp != 0 */\n      dup2\n      iszero\n        /* \"@openzeppelin/contracts/utils/Strings.sol\":775:850  while (temp != 0) {... */\n      tag_480\n      jumpi\n        /* \"@openzeppelin/contracts/utils/Strings.sol\":807:815  digits++ */\n      dup1\n      tag_481\n      dup2\n      tag_482\n      jump\t// in\n    tag_481:\n      swap2\n      pop\n        /* \"@openzeppelin/contracts/utils/Strings.sol\":829:839  temp /= 10 */\n      tag_483\n      swap1\n      pop\n        /* \"@openzeppelin/contracts/utils/Strings.sol\":837:839  10 */\n      0x0a\n        /* \"@openzeppelin/contracts/utils/Strings.sol\":829:839  temp /= 10 */\n      dup4\n      tag_484\n      jump\t// in\n    tag_483:\n      swap2\n      pop\n        /* \"@openzeppelin/contracts/utils/Strings.sol\":775:850  while (temp != 0) {... */\n      jump(tag_479)\n    tag_480:\n        /* \"@openzeppelin/contracts/utils/Strings.sol\":859:878  bytes memory buffer */\n      0x00\n        /* \"@openzeppelin/contracts/utils/Strings.sol\":891:897  digits */\n      dup2\n        /* \"@openzeppelin/contracts/utils/Strings.sol\":881:898  new bytes(digits) */\n      0xffffffffffffffff\n      dup2\n      gt\n      iszero\n      tag_486\n      jumpi\n      tag_486\n      tag_487\n      jump\t// in\n    tag_486:\n      mload(0x40)\n      swap1\n      dup1\n      dup3\n      mstore\n      dup1\n      0x1f\n      add\n      not(0x1f)\n      and\n      0x20\n      add\n      dup3\n      add\n      0x40\n      mstore\n      dup1\n      iszero\n      tag_488\n      jumpi\n      0x20\n      dup3\n      add\n      dup2\n      dup1\n      calldatasize\n      dup4\n      calldatacopy\n      add\n      swap1\n      pop\n    tag_488:\n      pop\n        /* \"@openzeppelin/contracts/utils/Strings.sol\":859:898  bytes memory buffer = new bytes(digits) */\n      swap1\n      pop\n        /* \"@openzeppelin/contracts/utils/Strings.sol\":908:1058  while (value != 0) {... */\n    tag_489:\n        /* \"@openzeppelin/contracts/utils/Strings.sol\":915:925  value != 0 */\n      dup5\n      iszero\n        /* \"@openzeppelin/contracts/utils/Strings.sol\":908:1058  while (value != 0) {... */\n      tag_470\n      jumpi\n        /* \"@openzeppelin/contracts/utils/Strings.sol\":941:952  digits -= 1 */\n      tag_491\n        /* \"@openzeppelin/contracts/utils/Strings.sol\":951:952  1 */\n      0x01\n        /* \"@openzeppelin/contracts/utils/Strings.sol\":941:952  digits -= 1 */\n      dup4\n      tag_318\n      jump\t// in\n    tag_491:\n      swap2\n      pop\n        /* \"@openzeppelin/contracts/utils/Strings.sol\":1009:1019  value % 10 */\n      tag_492\n        /* \"@openzeppelin/contracts/utils/Strings.sol\":1017:1019  10 */\n      0x0a\n        /* \"@openzeppelin/contracts/utils/Strings.sol\":1009:1014  value */\n      dup7\n        /* \"@openzeppelin/contracts/utils/Strings.sol\":1009:1019  value % 10 */\n      tag_493\n      jump\t// in\n    tag_492:\n        /* \"@openzeppelin/contracts/utils/Strings.sol\":996:1020  48 + uint256(value % 10) */\n      tag_494\n      swap1\n        /* \"@openzeppelin/contracts/utils/Strings.sol\":996:998  48 */\n      0x30\n        /* \"@openzeppelin/contracts/utils/Strings.sol\":996:1020  48 + uint256(value % 10) */\n      tag_253\n      jump\t// in\n    tag_494:\n        /* \"@openzeppelin/contracts/utils/Strings.sol\":983:1022  bytes1(uint8(48 + uint256(value % 10))) */\n      0xf8\n      shl\n        /* \"@openzeppelin/contracts/utils/Strings.sol\":966:972  buffer */\n      dup2\n        /* \"@openzeppelin/contracts/utils/Strings.sol\":973:979  digits */\n      dup4\n        /* \"@openzeppelin/contracts/utils/Strings.sol\":966:980  buffer[digits] */\n      dup2\n      mload\n      dup2\n      lt\n      tag_496\n      jumpi\n      tag_496\n      tag_497\n      jump\t// in\n    tag_496:\n      0x20\n      add\n      add\n        /* \"@openzeppelin/contracts/utils/Strings.sol\":966:1022  buffer[digits] = bytes1(uint8(48 + uint256(value % 10))) */\n      swap1\n      not(sub(shl(0xf8, 0x01), 0x01))\n      and\n      swap1\n      dup2\n      0x00\n      byte\n      swap1\n      mstore8\n      pop\n        /* \"@openzeppelin/contracts/utils/Strings.sol\":1036:1047  value /= 10 */\n      tag_498\n        /* \"@openzeppelin/contracts/utils/Strings.sol\":1045:1047  10 */\n      0x0a\n        /* \"@openzeppelin/contracts/utils/Strings.sol\":1036:1047  value /= 10 */\n      dup7\n      tag_484\n      jump\t// in\n    tag_498:\n      swap5\n      pop\n        /* \"@openzeppelin/contracts/utils/Strings.sol\":908:1058  while (value != 0) {... */\n      jump(tag_489)\n        /* \"contracts/ERC721A.sol\":8179:8342  function _safeMint(... */\n    tag_433:\n        /* \"contracts/ERC721A.sol\":8302:8334  _mint(to, quantity, _data, true) */\n      tag_231\n        /* \"contracts/ERC721A.sol\":8308:8310  to */\n      dup4\n        /* \"contracts/ERC721A.sol\":8312:8320  quantity */\n      dup4\n        /* \"contracts/ERC721A.sol\":8322:8327  _data */\n      dup4\n        /* \"contracts/ERC721A.sol\":8329:8333  true */\n      0x01\n        /* \"contracts/ERC721A.sol\":8740:8760  uint256 startTokenId */\n      0x00\n        /* \"contracts/ERC721A.sol\":8763:8775  currentIndex */\n      sload\n      sub(shl(0xa0, 0x01), 0x01)\n        /* \"contracts/ERC721A.sol\":8794:8810  to != address(0) */\n      dup6\n      and\n        /* \"contracts/ERC721A.sol\":8786:8848  require(to != address(0), 'ERC721A: mint to the zero address') */\n      tag_506\n      jumpi\n      mload(0x40)\n      shl(0xe5, 0x461bcd)\n      dup2\n      mstore\n        /* \"#utility.yul\":20027:20029   */\n      0x20\n        /* \"contracts/ERC721A.sol\":8786:8848  require(to != address(0), 'ERC721A: mint to the zero address') */\n      0x04\n      dup3\n      add\n        /* \"#utility.yul\":20009:20030   */\n      mstore\n        /* \"#utility.yul\":20066:20068   */\n      0x21\n        /* \"#utility.yul\":20046:20064   */\n      0x24\n      dup3\n      add\n        /* \"#utility.yul\":20039:20069   */\n      mstore\n        /* \"#utility.yul\":20105:20139   */\n      0x455243373231413a206d696e7420746f20746865207a65726f20616464726573\n        /* \"#utility.yul\":20085:20103   */\n      0x44\n      dup3\n      add\n        /* \"#utility.yul\":20078:20140   */\n      mstore\n      shl(0xf8, 0x73)\n        /* \"#utility.yul\":20156:20174   */\n      0x64\n      dup3\n      add\n        /* \"#utility.yul\":20149:20180   */\n      mstore\n        /* \"#utility.yul\":20197:20216   */\n      0x84\n      add\n        /* \"contracts/ERC721A.sol\":8786:8848  require(to != address(0), 'ERC721A: mint to the zero address') */\n      tag_216\n        /* \"#utility.yul\":19825:20222   */\n      jump\n        /* \"contracts/ERC721A.sol\":8786:8848  require(to != address(0), 'ERC721A: mint to the zero address') */\n    tag_506:\n        /* \"contracts/ERC721A.sol\":8867:8875  quantity */\n      dup4\n        /* \"contracts/ERC721A.sol\":8879:8880  0 */\n      0x00\n        /* \"contracts/ERC721A.sol\":8867:8880  quantity != 0 */\n      sub\n        /* \"contracts/ERC721A.sol\":8859:8925  require(quantity != 0, 'ERC721A: quantity must be greater than 0') */\n      tag_509\n      jumpi\n      mload(0x40)\n      shl(0xe5, 0x461bcd)\n      dup2\n      mstore\n        /* \"#utility.yul\":20429:20431   */\n      0x20\n        /* \"contracts/ERC721A.sol\":8859:8925  require(quantity != 0, 'ERC721A: quantity must be greater than 0') */\n      0x04\n      dup3\n      add\n        /* \"#utility.yul\":20411:20432   */\n      mstore\n        /* \"#utility.yul\":20468:20470   */\n      0x28\n        /* \"#utility.yul\":20448:20466   */\n      0x24\n      dup3\n      add\n        /* \"#utility.yul\":20441:20471   */\n      mstore\n        /* \"#utility.yul\":20507:20541   */\n      0x455243373231413a207175616e74697479206d75737420626520677265617465\n        /* \"#utility.yul\":20487:20505   */\n      0x44\n      dup3\n      add\n        /* \"#utility.yul\":20480:20542   */\n      mstore\n      shl(0xc4, 0x072207468616e203)\n        /* \"#utility.yul\":20558:20576   */\n      0x64\n      dup3\n      add\n        /* \"#utility.yul\":20551:20589   */\n      mstore\n        /* \"#utility.yul\":20606:20625   */\n      0x84\n      add\n        /* \"contracts/ERC721A.sol\":8859:8925  require(quantity != 0, 'ERC721A: quantity must be greater than 0') */\n      tag_216\n        /* \"#utility.yul\":20227:20631   */\n      jump\n        /* \"contracts/ERC721A.sol\":8859:8925  require(quantity != 0, 'ERC721A: quantity must be greater than 0') */\n    tag_509:\n      sub(shl(0xa0, 0x01), 0x01)\n        /* \"contracts/ERC721A.sol\":9269:9285  _addressData[to] */\n      dup6\n      and\n      0x00\n      dup2\n      dup2\n      mstore\n        /* \"contracts/ERC721A.sol\":9269:9281  _addressData */\n      0x04\n        /* \"contracts/ERC721A.sol\":9269:9285  _addressData[to] */\n      0x20\n      swap1\n      dup2\n      mstore\n      0x40\n      dup1\n      dup4\n      keccak256\n        /* \"contracts/ERC721A.sol\":9269:9314  _addressData[to].balance += uint128(quantity) */\n      dup1\n      sload\n      shl(0x80, 0x01)\n      not(sub(shl(0x80, 0x01), 0x01))\n      dup3\n      and\n      sub(shl(0x80, 0x01), 0x01)\n      swap3\n      dup4\n      and\n      dup13\n      add\n      dup4\n      and\n      swap1\n      dup2\n      or\n        /* \"contracts/ERC721A.sol\":9325:9375  _addressData[to].numberMinted += uint128(quantity) */\n      dup3\n      swap1\n      div\n      dup4\n      and\n      dup13\n      add\n      swap1\n      swap3\n      and\n      mul\n      or\n      swap1\n      sstore\n        /* \"contracts/ERC721A.sol\":9388:9413  _ownerships[startTokenId] */\n      dup5\n      dup4\n      mstore\n        /* \"contracts/ERC721A.sol\":9388:9399  _ownerships */\n      0x03\n        /* \"contracts/ERC721A.sol\":9388:9413  _ownerships[startTokenId] */\n      swap1\n      swap2\n      mstore\n      dup2\n      keccak256\n        /* \"contracts/ERC721A.sol\":9388:9423  _ownerships[startTokenId].addr = to */\n      dup1\n      sload\n      not(sub(shl(0xe0, 0x01), 0x01))\n        /* \"contracts/ERC721A.sol\":9434:9500  _ownerships[startTokenId].startTimestamp = uint64(block.timestamp) */\n      and\n      swap1\n      swap3\n      or\n      shl(0xa0, 0x01)\n        /* \"contracts/ERC721A.sol\":9484:9499  block.timestamp */\n      timestamp\n        /* \"contracts/ERC721A.sol\":9434:9500  _ownerships[startTokenId].startTimestamp = uint64(block.timestamp) */\n      0xffffffffffffffff\n      and\n      mul\n      or\n      swap1\n      swap2\n      sstore\n        /* \"contracts/ERC721A.sol\":9388:9413  _ownerships[startTokenId] */\n      dup2\n      swap1\n        /* \"contracts/ERC721A.sol\":9561:9940  for (uint256 i; i < quantity; i++) {... */\n    tag_513:\n        /* \"contracts/ERC721A.sol\":9581:9589  quantity */\n      dup6\n        /* \"contracts/ERC721A.sol\":9577:9578  i */\n      dup2\n        /* \"contracts/ERC721A.sol\":9577:9589  i < quantity */\n      lt\n        /* \"contracts/ERC721A.sol\":9561:9940  for (uint256 i; i < quantity; i++) {... */\n      iszero\n      tag_514\n      jumpi\n        /* \"contracts/ERC721A.sol\":9616:9654  Transfer(address(0), to, updatedIndex) */\n      mload(0x40)\n        /* \"contracts/ERC721A.sol\":9641:9653  updatedIndex */\n      dup3\n      swap1\n      sub(shl(0xa0, 0x01), 0x01)\n        /* \"contracts/ERC721A.sol\":9616:9654  Transfer(address(0), to, updatedIndex) */\n      dup10\n      and\n      swap1\n        /* \"contracts/ERC721A.sol\":9633:9634  0 */\n      0x00\n      swap1\n        /* \"contracts/ERC721A.sol\":9616:9654  Transfer(address(0), to, updatedIndex) */\n      0xddf252ad1be2c89b69c2b068fc378daa952ba7f163c4a11628f55a4df523b3ef\n      swap1\n        /* \"contracts/ERC721A.sol\":9633:9634  0 */\n      dup3\n      swap1\n        /* \"contracts/ERC721A.sol\":9616:9654  Transfer(address(0), to, updatedIndex) */\n      log4\n        /* \"contracts/ERC721A.sol\":9673:9677  safe */\n      dup4\n        /* \"contracts/ERC721A.sol\":9669:9898  if (safe) {... */\n      iszero\n      tag_518\n      jumpi\n        /* \"contracts/ERC721A.sol\":9728:9787  _checkOnERC721Received(address(0), to, updatedIndex, _data) */\n      tag_517\n        /* \"contracts/ERC721A.sol\":9759:9760  0 */\n      0x00\n        /* \"contracts/ERC721A.sol\":9763:9765  to */\n      dup9\n        /* \"contracts/ERC721A.sol\":9767:9779  updatedIndex */\n      dup5\n        /* \"contracts/ERC721A.sol\":9781:9786  _data */\n      dup9\n        /* \"contracts/ERC721A.sol\":9728:9750  _checkOnERC721Received */\n      tag_347\n        /* \"contracts/ERC721A.sol\":9728:9787  _checkOnERC721Received(address(0), to, updatedIndex, _data) */\n      jump\t// in\n    tag_517:\n        /* \"contracts/ERC721A.sol\":9698:9882  require(... */\n      tag_518\n      jumpi\n      mload(0x40)\n      shl(0xe5, 0x461bcd)\n      dup2\n      mstore\n      0x04\n      add\n      tag_216\n      swap1\n      tag_350\n      jump\t// in\n    tag_518:\n        /* \"contracts/ERC721A.sol\":9914:9928  updatedIndex++ */\n      0x01\n      swap2\n      dup3\n      add\n      swap2\n        /* \"contracts/ERC721A.sol\":9591:9594  i++ */\n      add\n        /* \"contracts/ERC721A.sol\":9561:9940  for (uint256 i; i < quantity; i++) {... */\n      jump(tag_513)\n    tag_514:\n      pop\n        /* \"contracts/ERC721A.sol\":9952:9964  currentIndex */\n      0x00\n        /* \"contracts/ERC721A.sol\":9952:9979  currentIndex = updatedIndex */\n      sstore\n        /* \"contracts/ERC721A.sol\":9999:10059  _afterTokenTransfers(address(0), to, startTokenId, quantity) */\n      tag_411\n        /* \"contracts/ERC721A.sol\":6983:7338  function safeTransferFrom(... */\n      jump\n        /* \"#utility.yul\":14:145   */\n    tag_521:\n      not(sub(shl(0xe0, 0x01), 0x01))\n        /* \"#utility.yul\":88:120   */\n      dup2\n      and\n        /* \"#utility.yul\":78:121   */\n      dup2\n      eq\n        /* \"#utility.yul\":68:139   */\n      tag_382\n      jumpi\n        /* \"#utility.yul\":135:136   */\n      0x00\n        /* \"#utility.yul\":132:133   */\n      dup1\n        /* \"#utility.yul\":125:137   */\n      revert\n        /* \"#utility.yul\":150:395   */\n    tag_47:\n        /* \"#utility.yul\":208:214   */\n      0x00\n        /* \"#utility.yul\":261:263   */\n      0x20\n        /* \"#utility.yul\":249:258   */\n      dup3\n        /* \"#utility.yul\":240:247   */\n      dup5\n        /* \"#utility.yul\":236:259   */\n      sub\n        /* \"#utility.yul\":232:264   */\n      slt\n        /* \"#utility.yul\":229:281   */\n      iszero\n      tag_536\n      jumpi\n        /* \"#utility.yul\":277:278   */\n      0x00\n        /* \"#utility.yul\":274:275   */\n      dup1\n        /* \"#utility.yul\":267:279   */\n      revert\n        /* \"#utility.yul\":229:281   */\n    tag_536:\n        /* \"#utility.yul\":316:325   */\n      dup2\n        /* \"#utility.yul\":303:326   */\n      calldataload\n        /* \"#utility.yul\":335:365   */\n      tag_367\n        /* \"#utility.yul\":359:364   */\n      dup2\n        /* \"#utility.yul\":335:365   */\n      tag_521\n      jump\t// in\n        /* \"#utility.yul\":592:842   */\n    tag_522:\n        /* \"#utility.yul\":677:678   */\n      0x00\n        /* \"#utility.yul\":687:800   */\n    tag_540:\n        /* \"#utility.yul\":701:707   */\n      dup4\n        /* \"#utility.yul\":698:699   */\n      dup2\n        /* \"#utility.yul\":695:708   */\n      lt\n        /* \"#utility.yul\":687:800   */\n      iszero\n      tag_542\n      jumpi\n        /* \"#utility.yul\":777:788   */\n      dup2\n      dup2\n      add\n        /* \"#utility.yul\":771:789   */\n      mload\n        /* \"#utility.yul\":758:769   */\n      dup4\n      dup3\n      add\n        /* \"#utility.yul\":751:790   */\n      mstore\n        /* \"#utility.yul\":723:725   */\n      0x20\n        /* \"#utility.yul\":716:726   */\n      add\n        /* \"#utility.yul\":687:800   */\n      jump(tag_540)\n    tag_542:\n      pop\n      pop\n        /* \"#utility.yul\":834:835   */\n      0x00\n        /* \"#utility.yul\":816:832   */\n      swap2\n      add\n        /* \"#utility.yul\":809:836   */\n      mstore\n        /* \"#utility.yul\":592:842   */\n      jump\t// out\n        /* \"#utility.yul\":847:1118   */\n    tag_523:\n        /* \"#utility.yul\":889:892   */\n      0x00\n        /* \"#utility.yul\":927:932   */\n      dup2\n        /* \"#utility.yul\":921:933   */\n      mload\n        /* \"#utility.yul\":954:960   */\n      dup1\n        /* \"#utility.yul\":949:952   */\n      dup5\n        /* \"#utility.yul\":942:961   */\n      mstore\n        /* \"#utility.yul\":970:1046   */\n      tag_544\n        /* \"#utility.yul\":1039:1045   */\n      dup2\n        /* \"#utility.yul\":1032:1036   */\n      0x20\n        /* \"#utility.yul\":1027:1030   */\n      dup7\n        /* \"#utility.yul\":1023:1037   */\n      add\n        /* \"#utility.yul\":1016:1020   */\n      0x20\n        /* \"#utility.yul\":1009:1014   */\n      dup7\n        /* \"#utility.yul\":1005:1021   */\n      add\n        /* \"#utility.yul\":970:1046   */\n      tag_522\n      jump\t// in\n    tag_544:\n        /* \"#utility.yul\":1100:1102   */\n      0x1f\n        /* \"#utility.yul\":1079:1094   */\n      add\n      not(0x1f)\n        /* \"#utility.yul\":1075:1104   */\n      and\n        /* \"#utility.yul\":1066:1105   */\n      swap3\n      swap1\n      swap3\n      add\n        /* \"#utility.yul\":1107:1111   */\n      0x20\n        /* \"#utility.yul\":1062:1112   */\n      add\n      swap3\n        /* \"#utility.yul\":847:1118   */\n      swap2\n      pop\n      pop\n      jump\t// out\n        /* \"#utility.yul\":1123:1343   */\n    tag_55:\n        /* \"#utility.yul\":1272:1274   */\n      0x20\n        /* \"#utility.yul\":1261:1270   */\n      dup2\n        /* \"#utility.yul\":1254:1275   */\n      mstore\n        /* \"#utility.yul\":1235:1239   */\n      0x00\n        /* \"#utility.yul\":1292:1337   */\n      tag_367\n        /* \"#utility.yul\":1333:1335   */\n      0x20\n        /* \"#utility.yul\":1322:1331   */\n      dup4\n        /* \"#utility.yul\":1318:1336   */\n      add\n        /* \"#utility.yul\":1310:1316   */\n      dup5\n        /* \"#utility.yul\":1292:1337   */\n      tag_523\n      jump\t// in\n        /* \"#utility.yul\":1348:1528   */\n    tag_59:\n        /* \"#utility.yul\":1407:1413   */\n      0x00\n        /* \"#utility.yul\":1460:1462   */\n      0x20\n        /* \"#utility.yul\":1448:1457   */\n      dup3\n        /* \"#utility.yul\":1439:1446   */\n      dup5\n        /* \"#utility.yul\":1435:1458   */\n      sub\n        /* \"#utility.yul\":1431:1463   */\n      slt\n        /* \"#utility.yul\":1428:1480   */\n      iszero\n      tag_548\n      jumpi\n        /* \"#utility.yul\":1476:1477   */\n      0x00\n        /* \"#utility.yul\":1473:1474   */\n      dup1\n        /* \"#utility.yul\":1466:1478   */\n      revert\n        /* \"#utility.yul\":1428:1480   */\n    tag_548:\n      pop\n        /* \"#utility.yul\":1499:1522   */\n      calldataload\n      swap2\n        /* \"#utility.yul\":1348:1528   */\n      swap1\n      pop\n      jump\t// out\n        /* \"#utility.yul\":1741:1914   */\n    tag_524:\n        /* \"#utility.yul\":1809:1829   */\n      dup1\n      calldataload\n      sub(shl(0xa0, 0x01), 0x01)\n        /* \"#utility.yul\":1858:1889   */\n      dup2\n      and\n        /* \"#utility.yul\":1848:1890   */\n      dup2\n      eq\n        /* \"#utility.yul\":1838:1908   */\n      tag_551\n      jumpi\n        /* \"#utility.yul\":1904:1905   */\n      0x00\n        /* \"#utility.yul\":1901:1902   */\n      dup1\n        /* \"#utility.yul\":1894:1906   */\n      revert\n        /* \"#utility.yul\":1838:1908   */\n    tag_551:\n        /* \"#utility.yul\":1741:1914   */\n      swap2\n      swap1\n      pop\n      jump\t// out\n        /* \"#utility.yul\":1919:2173   */\n    tag_66:\n        /* \"#utility.yul\":1987:1993   */\n      0x00\n        /* \"#utility.yul\":1995:2001   */\n      dup1\n        /* \"#utility.yul\":2048:2050   */\n      0x40\n        /* \"#utility.yul\":2036:2045   */\n      dup4\n        /* \"#utility.yul\":2027:2034   */\n      dup6\n        /* \"#utility.yul\":2023:2046   */\n      sub\n        /* \"#utility.yul\":2019:2051   */\n      slt\n        /* \"#utility.yul\":2016:2068   */\n      iszero\n      tag_553\n      jumpi\n        /* \"#utility.yul\":2064:2065   */\n      0x00\n        /* \"#utility.yul\":2061:2062   */\n      dup1\n        /* \"#utility.yul\":2054:2066   */\n      revert\n        /* \"#utility.yul\":2016:2068   */\n    tag_553:\n        /* \"#utility.yul\":2087:2116   */\n      tag_554\n        /* \"#utility.yul\":2106:2115   */\n      dup4\n        /* \"#utility.yul\":2087:2116   */\n      tag_524\n      jump\t// in\n    tag_554:\n        /* \"#utility.yul\":2077:2116   */\n      swap5\n        /* \"#utility.yul\":2163:2165   */\n      0x20\n        /* \"#utility.yul\":2148:2166   */\n      swap4\n      swap1\n      swap4\n      add\n        /* \"#utility.yul\":2135:2167   */\n      calldataload\n      swap4\n      pop\n      pop\n      pop\n        /* \"#utility.yul\":1919:2173   */\n      jump\t// out\n        /* \"#utility.yul\":2360:2688   */\n    tag_84:\n        /* \"#utility.yul\":2437:2443   */\n      0x00\n        /* \"#utility.yul\":2445:2451   */\n      dup1\n        /* \"#utility.yul\":2453:2459   */\n      0x00\n        /* \"#utility.yul\":2506:2508   */\n      0x60\n        /* \"#utility.yul\":2494:2503   */\n      dup5\n        /* \"#utility.yul\":2485:2492   */\n      dup7\n        /* \"#utility.yul\":2481:2504   */\n      sub\n        /* \"#utility.yul\":2477:2509   */\n      slt\n        /* \"#utility.yul\":2474:2526   */\n      iszero\n      tag_557\n      jumpi\n        /* \"#utility.yul\":2522:2523   */\n      0x00\n        /* \"#utility.yul\":2519:2520   */\n      dup1\n        /* \"#utility.yul\":2512:2524   */\n      revert\n        /* \"#utility.yul\":2474:2526   */\n    tag_557:\n        /* \"#utility.yul\":2545:2574   */\n      tag_558\n        /* \"#utility.yul\":2564:2573   */\n      dup5\n        /* \"#utility.yul\":2545:2574   */\n      tag_524\n      jump\t// in\n    tag_558:\n        /* \"#utility.yul\":2535:2574   */\n      swap3\n      pop\n        /* \"#utility.yul\":2593:2631   */\n      tag_559\n        /* \"#utility.yul\":2627:2629   */\n      0x20\n        /* \"#utility.yul\":2616:2625   */\n      dup6\n        /* \"#utility.yul\":2612:2630   */\n      add\n        /* \"#utility.yul\":2593:2631   */\n      tag_524\n      jump\t// in\n    tag_559:\n        /* \"#utility.yul\":2583:2631   */\n      swap2\n      pop\n        /* \"#utility.yul\":2678:2680   */\n      0x40\n        /* \"#utility.yul\":2667:2676   */\n      dup5\n        /* \"#utility.yul\":2663:2681   */\n      add\n        /* \"#utility.yul\":2650:2682   */\n      calldataload\n        /* \"#utility.yul\":2640:2682   */\n      swap1\n      pop\n        /* \"#utility.yul\":2360:2688   */\n      swap3\n      pop\n      swap3\n      pop\n      swap3\n      jump\t// out\n        /* \"#utility.yul\":2693:2820   */\n    tag_487:\n        /* \"#utility.yul\":2754:2764   */\n      0x4e487b71\n        /* \"#utility.yul\":2749:2752   */\n      0xe0\n        /* \"#utility.yul\":2745:2765   */\n      shl\n        /* \"#utility.yul\":2742:2743   */\n      0x00\n        /* \"#utility.yul\":2735:2766   */\n      mstore\n        /* \"#utility.yul\":2785:2789   */\n      0x41\n        /* \"#utility.yul\":2782:2783   */\n      0x04\n        /* \"#utility.yul\":2775:2790   */\n      mstore\n        /* \"#utility.yul\":2809:2813   */\n      0x24\n        /* \"#utility.yul\":2806:2807   */\n      0x00\n        /* \"#utility.yul\":2799:2814   */\n      revert\n        /* \"#utility.yul\":2825:3457   */\n    tag_525:\n        /* \"#utility.yul\":2890:2895   */\n      0x00\n        /* \"#utility.yul\":2920:2938   */\n      0xffffffffffffffff\n        /* \"#utility.yul\":2961:2963   */\n      dup1\n        /* \"#utility.yul\":2953:2959   */\n      dup5\n        /* \"#utility.yul\":2950:2964   */\n      gt\n        /* \"#utility.yul\":2947:2987   */\n      iszero\n      tag_563\n      jumpi\n        /* \"#utility.yul\":2967:2985   */\n      tag_563\n      tag_487\n      jump\t// in\n    tag_563:\n        /* \"#utility.yul\":3042:3044   */\n      0x40\n        /* \"#utility.yul\":3036:3045   */\n      mload\n        /* \"#utility.yul\":3010:3012   */\n      0x1f\n        /* \"#utility.yul\":3096:3111   */\n      dup6\n      add\n      not(0x1f)\n        /* \"#utility.yul\":3092:3116   */\n      swap1\n      dup2\n      and\n        /* \"#utility.yul\":3118:3120   */\n      0x3f\n        /* \"#utility.yul\":3088:3121   */\n      add\n        /* \"#utility.yul\":3084:3126   */\n      and\n        /* \"#utility.yul\":3072:3127   */\n      dup2\n      add\n      swap1\n        /* \"#utility.yul\":3142:3160   */\n      dup3\n      dup3\n      gt\n        /* \"#utility.yul\":3162:3184   */\n      dup2\n      dup4\n      lt\n        /* \"#utility.yul\":3139:3185   */\n      or\n        /* \"#utility.yul\":3136:3208   */\n      iszero\n      tag_565\n      jumpi\n        /* \"#utility.yul\":3188:3206   */\n      tag_565\n      tag_487\n      jump\t// in\n    tag_565:\n        /* \"#utility.yul\":3228:3238   */\n      dup2\n        /* \"#utility.yul\":3224:3226   */\n      0x40\n        /* \"#utility.yul\":3217:3239   */\n      mstore\n        /* \"#utility.yul\":3257:3263   */\n      dup1\n        /* \"#utility.yul\":3248:3263   */\n      swap4\n      pop\n        /* \"#utility.yul\":3287:3293   */\n      dup6\n        /* \"#utility.yul\":3279:3285   */\n      dup2\n        /* \"#utility.yul\":3272:3294   */\n      mstore\n        /* \"#utility.yul\":3327:3330   */\n      dup7\n        /* \"#utility.yul\":3318:3324   */\n      dup7\n        /* \"#utility.yul\":3313:3316   */\n      dup7\n        /* \"#utility.yul\":3309:3325   */\n      add\n        /* \"#utility.yul\":3306:3331   */\n      gt\n        /* \"#utility.yul\":3303:3348   */\n      iszero\n      tag_566\n      jumpi\n        /* \"#utility.yul\":3344:3345   */\n      0x00\n        /* \"#utility.yul\":3341:3342   */\n      dup1\n        /* \"#utility.yul\":3334:3346   */\n      revert\n        /* \"#utility.yul\":3303:3348   */\n    tag_566:\n        /* \"#utility.yul\":3394:3400   */\n      dup6\n        /* \"#utility.yul\":3389:3392   */\n      dup6\n        /* \"#utility.yul\":3382:3386   */\n      0x20\n        /* \"#utility.yul\":3374:3380   */\n      dup4\n        /* \"#utility.yul\":3370:3387   */\n      add\n        /* \"#utility.yul\":3357:3401   */\n      calldatacopy\n        /* \"#utility.yul\":3449:3450   */\n      0x00\n        /* \"#utility.yul\":3442:3446   */\n      0x20\n        /* \"#utility.yul\":3433:3439   */\n      dup8\n        /* \"#utility.yul\":3425:3431   */\n      dup4\n        /* \"#utility.yul\":3421:3440   */\n      add\n        /* \"#utility.yul\":3417:3447   */\n      add\n        /* \"#utility.yul\":3410:3451   */\n      mstore\n      pop\n      pop\n      pop\n        /* \"#utility.yul\":2825:3457   */\n      swap4\n      swap3\n      pop\n      pop\n      pop\n      jump\t// out\n        /* \"#utility.yul\":3462:3913   */\n    tag_108:\n        /* \"#utility.yul\":3531:3537   */\n      0x00\n        /* \"#utility.yul\":3584:3586   */\n      0x20\n        /* \"#utility.yul\":3572:3581   */\n      dup3\n        /* \"#utility.yul\":3563:3570   */\n      dup5\n        /* \"#utility.yul\":3559:3582   */\n      sub\n        /* \"#utility.yul\":3555:3587   */\n      slt\n        /* \"#utility.yul\":3552:3604   */\n      iszero\n      tag_568\n      jumpi\n        /* \"#utility.yul\":3600:3601   */\n      0x00\n        /* \"#utility.yul\":3597:3598   */\n      dup1\n        /* \"#utility.yul\":3590:3602   */\n      revert\n        /* \"#utility.yul\":3552:3604   */\n    tag_568:\n        /* \"#utility.yul\":3640:3649   */\n      dup2\n        /* \"#utility.yul\":3627:3650   */\n      calldataload\n        /* \"#utility.yul\":3673:3691   */\n      0xffffffffffffffff\n        /* \"#utility.yul\":3665:3671   */\n      dup2\n        /* \"#utility.yul\":3662:3692   */\n      gt\n        /* \"#utility.yul\":3659:3709   */\n      iszero\n      tag_569\n      jumpi\n        /* \"#utility.yul\":3705:3706   */\n      0x00\n        /* \"#utility.yul\":3702:3703   */\n      dup1\n        /* \"#utility.yul\":3695:3707   */\n      revert\n        /* \"#utility.yul\":3659:3709   */\n    tag_569:\n        /* \"#utility.yul\":3728:3750   */\n      dup3\n      add\n        /* \"#utility.yul\":3781:3785   */\n      0x1f\n        /* \"#utility.yul\":3773:3786   */\n      dup2\n      add\n        /* \"#utility.yul\":3769:3796   */\n      dup5\n      sgt\n        /* \"#utility.yul\":3759:3814   */\n      tag_570\n      jumpi\n        /* \"#utility.yul\":3810:3811   */\n      0x00\n        /* \"#utility.yul\":3807:3808   */\n      dup1\n        /* \"#utility.yul\":3800:3812   */\n      revert\n        /* \"#utility.yul\":3759:3814   */\n    tag_570:\n        /* \"#utility.yul\":3833:3907   */\n      tag_470\n        /* \"#utility.yul\":3899:3906   */\n      dup5\n        /* \"#utility.yul\":3894:3896   */\n      dup3\n        /* \"#utility.yul\":3881:3897   */\n      calldataload\n        /* \"#utility.yul\":3876:3878   */\n      0x20\n        /* \"#utility.yul\":3872:3874   */\n      dup5\n        /* \"#utility.yul\":3868:3879   */\n      add\n        /* \"#utility.yul\":3833:3907   */\n      tag_525\n      jump\t// in\n        /* \"#utility.yul\":3918:4104   */\n    tag_122:\n        /* \"#utility.yul\":3977:3983   */\n      0x00\n        /* \"#utility.yul\":4030:4032   */\n      0x20\n        /* \"#utility.yul\":4018:4027   */\n      dup3\n        /* \"#utility.yul\":4009:4016   */\n      dup5\n        /* \"#utility.yul\":4005:4028   */\n      sub\n        /* \"#utility.yul\":4001:4033   */\n      slt\n        /* \"#utility.yul\":3998:4050   */\n      iszero\n      tag_573\n      jumpi\n        /* \"#utility.yul\":4046:4047   */\n      0x00\n        /* \"#utility.yul\":4043:4044   */\n      dup1\n        /* \"#utility.yul\":4036:4048   */\n      revert\n        /* \"#utility.yul\":3998:4050   */\n    tag_573:\n        /* \"#utility.yul\":4069:4098   */\n      tag_367\n        /* \"#utility.yul\":4088:4097   */\n      dup3\n        /* \"#utility.yul\":4069:4098   */\n      tag_524\n      jump\t// in\n        /* \"#utility.yul\":4109:4269   */\n    tag_526:\n        /* \"#utility.yul\":4174:4194   */\n      dup1\n      calldataload\n        /* \"#utility.yul\":4230:4243   */\n      dup1\n      iszero\n        /* \"#utility.yul\":4223:4244   */\n      iszero\n        /* \"#utility.yul\":4213:4245   */\n      dup2\n      eq\n        /* \"#utility.yul\":4203:4263   */\n      tag_551\n      jumpi\n        /* \"#utility.yul\":4259:4260   */\n      0x00\n        /* \"#utility.yul\":4256:4257   */\n      dup1\n        /* \"#utility.yul\":4249:4261   */\n      revert\n        /* \"#utility.yul\":4274:4454   */\n    tag_135:\n        /* \"#utility.yul\":4330:4336   */\n      0x00\n        /* \"#utility.yul\":4383:4385   */\n      0x20\n        /* \"#utility.yul\":4371:4380   */\n      dup3\n        /* \"#utility.yul\":4362:4369   */\n      dup5\n        /* \"#utility.yul\":4358:4381   */\n      sub\n        /* \"#utility.yul\":4354:4386   */\n      slt\n        /* \"#utility.yul\":4351:4403   */\n      iszero\n      tag_578\n      jumpi\n        /* \"#utility.yul\":4399:4400   */\n      0x00\n        /* \"#utility.yul\":4396:4397   */\n      dup1\n        /* \"#utility.yul\":4389:4401   */\n      revert\n        /* \"#utility.yul\":4351:4403   */\n    tag_578:\n        /* \"#utility.yul\":4422:4448   */\n      tag_367\n        /* \"#utility.yul\":4438:4447   */\n      dup3\n        /* \"#utility.yul\":4422:4448   */\n      tag_526\n      jump\t// in\n        /* \"#utility.yul\":4459:4713   */\n    tag_163:\n        /* \"#utility.yul\":4524:4530   */\n      0x00\n        /* \"#utility.yul\":4532:4538   */\n      dup1\n        /* \"#utility.yul\":4585:4587   */\n      0x40\n        /* \"#utility.yul\":4573:4582   */\n      dup4\n        /* \"#utility.yul\":4564:4571   */\n      dup6\n        /* \"#utility.yul\":4560:4583   */\n      sub\n        /* \"#utility.yul\":4556:4588   */\n      slt\n        /* \"#utility.yul\":4553:4605   */\n      iszero\n      tag_581\n      jumpi\n        /* \"#utility.yul\":4601:4602   */\n      0x00\n        /* \"#utility.yul\":4598:4599   */\n      dup1\n        /* \"#utility.yul\":4591:4603   */\n      revert\n        /* \"#utility.yul\":4553:4605   */\n    tag_581:\n        /* \"#utility.yul\":4624:4653   */\n      tag_582\n        /* \"#utility.yul\":4643:4652   */\n      dup4\n        /* \"#utility.yul\":4624:4653   */\n      tag_524\n      jump\t// in\n    tag_582:\n        /* \"#utility.yul\":4614:4653   */\n      swap2\n      pop\n        /* \"#utility.yul\":4672:4707   */\n      tag_583\n        /* \"#utility.yul\":4703:4705   */\n      0x20\n        /* \"#utility.yul\":4692:4701   */\n      dup5\n        /* \"#utility.yul\":4688:4706   */\n      add\n        /* \"#utility.yul\":4672:4707   */\n      tag_526\n      jump\t// in\n    tag_583:\n        /* \"#utility.yul\":4662:4707   */\n      swap1\n      pop\n        /* \"#utility.yul\":4459:4713   */\n      swap3\n      pop\n      swap3\n      swap1\n      pop\n      jump\t// out\n        /* \"#utility.yul\":4718:5385   */\n    tag_172:\n        /* \"#utility.yul\":4813:4819   */\n      0x00\n        /* \"#utility.yul\":4821:4827   */\n      dup1\n        /* \"#utility.yul\":4829:4835   */\n      0x00\n        /* \"#utility.yul\":4837:4843   */\n      dup1\n        /* \"#utility.yul\":4890:4893   */\n      0x80\n        /* \"#utility.yul\":4878:4887   */\n      dup6\n        /* \"#utility.yul\":4869:4876   */\n      dup8\n        /* \"#utility.yul\":4865:4888   */\n      sub\n        /* \"#utility.yul\":4861:4894   */\n      slt\n        /* \"#utility.yul\":4858:4911   */\n      iszero\n      tag_585\n      jumpi\n        /* \"#utility.yul\":4907:4908   */\n      0x00\n        /* \"#utility.yul\":4904:4905   */\n      dup1\n        /* \"#utility.yul\":4897:4909   */\n      revert\n        /* \"#utility.yul\":4858:4911   */\n    tag_585:\n        /* \"#utility.yul\":4930:4959   */\n      tag_586\n        /* \"#utility.yul\":4949:4958   */\n      dup6\n        /* \"#utility.yul\":4930:4959   */\n      tag_524\n      jump\t// in\n    tag_586:\n        /* \"#utility.yul\":4920:4959   */\n      swap4\n      pop\n        /* \"#utility.yul\":4978:5016   */\n      tag_587\n        /* \"#utility.yul\":5012:5014   */\n      0x20\n        /* \"#utility.yul\":5001:5010   */\n      dup7\n        /* \"#utility.yul\":4997:5015   */\n      add\n        /* \"#utility.yul\":4978:5016   */\n      tag_524\n      jump\t// in\n    tag_587:\n        /* \"#utility.yul\":4968:5016   */\n      swap3\n      pop\n        /* \"#utility.yul\":5063:5065   */\n      0x40\n        /* \"#utility.yul\":5052:5061   */\n      dup6\n        /* \"#utility.yul\":5048:5066   */\n      add\n        /* \"#utility.yul\":5035:5067   */\n      calldataload\n        /* \"#utility.yul\":5025:5067   */\n      swap2\n      pop\n        /* \"#utility.yul\":5118:5120   */\n      0x60\n        /* \"#utility.yul\":5107:5116   */\n      dup6\n        /* \"#utility.yul\":5103:5121   */\n      add\n        /* \"#utility.yul\":5090:5122   */\n      calldataload\n        /* \"#utility.yul\":5145:5163   */\n      0xffffffffffffffff\n        /* \"#utility.yul\":5137:5143   */\n      dup2\n        /* \"#utility.yul\":5134:5164   */\n      gt\n        /* \"#utility.yul\":5131:5181   */\n      iszero\n      tag_588\n      jumpi\n        /* \"#utility.yul\":5177:5178   */\n      0x00\n        /* \"#utility.yul\":5174:5175   */\n      dup1\n        /* \"#utility.yul\":5167:5179   */\n      revert\n        /* \"#utility.yul\":5131:5181   */\n    tag_588:\n        /* \"#utility.yul\":5200:5222   */\n      dup6\n      add\n        /* \"#utility.yul\":5253:5257   */\n      0x1f\n        /* \"#utility.yul\":5245:5258   */\n      dup2\n      add\n        /* \"#utility.yul\":5241:5268   */\n      dup8\n      sgt\n        /* \"#utility.yul\":5231:5286   */\n      tag_589\n      jumpi\n        /* \"#utility.yul\":5282:5283   */\n      0x00\n        /* \"#utility.yul\":5279:5280   */\n      dup1\n        /* \"#utility.yul\":5272:5284   */\n      revert\n        /* \"#utility.yul\":5231:5286   */\n    tag_589:\n        /* \"#utility.yul\":5305:5379   */\n      tag_590\n        /* \"#utility.yul\":5371:5378   */\n      dup8\n        /* \"#utility.yul\":5366:5368   */\n      dup3\n        /* \"#utility.yul\":5353:5369   */\n      calldataload\n        /* \"#utility.yul\":5348:5350   */\n      0x20\n        /* \"#utility.yul\":5344:5346   */\n      dup5\n        /* \"#utility.yul\":5340:5351   */\n      add\n        /* \"#utility.yul\":5305:5379   */\n      tag_525\n      jump\t// in\n    tag_590:\n        /* \"#utility.yul\":5295:5379   */\n      swap2\n      pop\n      pop\n        /* \"#utility.yul\":4718:5385   */\n      swap3\n      swap6\n      swap2\n      swap5\n      pop\n      swap3\n      pop\n      jump\t// out\n        /* \"#utility.yul\":5390:5650   */\n    tag_189:\n        /* \"#utility.yul\":5458:5464   */\n      0x00\n        /* \"#utility.yul\":5466:5472   */\n      dup1\n        /* \"#utility.yul\":5519:5521   */\n      0x40\n        /* \"#utility.yul\":5507:5516   */\n      dup4\n        /* \"#utility.yul\":5498:5505   */\n      dup6\n        /* \"#utility.yul\":5494:5517   */\n      sub\n        /* \"#utility.yul\":5490:5522   */\n      slt\n        /* \"#utility.yul\":5487:5539   */\n      iszero\n      tag_592\n      jumpi\n        /* \"#utility.yul\":5535:5536   */\n      0x00\n        /* \"#utility.yul\":5532:5533   */\n      dup1\n        /* \"#utility.yul\":5525:5537   */\n      revert\n        /* \"#utility.yul\":5487:5539   */\n    tag_592:\n        /* \"#utility.yul\":5558:5587   */\n      tag_593\n        /* \"#utility.yul\":5577:5586   */\n      dup4\n        /* \"#utility.yul\":5558:5587   */\n      tag_524\n      jump\t// in\n    tag_593:\n        /* \"#utility.yul\":5548:5587   */\n      swap2\n      pop\n        /* \"#utility.yul\":5606:5644   */\n      tag_583\n        /* \"#utility.yul\":5640:5642   */\n      0x20\n        /* \"#utility.yul\":5629:5638   */\n      dup5\n        /* \"#utility.yul\":5625:5643   */\n      add\n        /* \"#utility.yul\":5606:5644   */\n      tag_524\n      jump\t// in\n        /* \"#utility.yul\":5655:6035   */\n    tag_207:\n        /* \"#utility.yul\":5734:5735   */\n      0x01\n        /* \"#utility.yul\":5730:5742   */\n      dup2\n      dup2\n      shr\n      swap1\n        /* \"#utility.yul\":5777:5789   */\n      dup3\n      and\n      dup1\n        /* \"#utility.yul\":5798:5859   */\n      tag_596\n      jumpi\n        /* \"#utility.yul\":5852:5856   */\n      0x7f\n        /* \"#utility.yul\":5844:5850   */\n      dup3\n        /* \"#utility.yul\":5840:5857   */\n      and\n        /* \"#utility.yul\":5830:5857   */\n      swap2\n      pop\n        /* \"#utility.yul\":5798:5859   */\n    tag_596:\n        /* \"#utility.yul\":5905:5907   */\n      0x20\n        /* \"#utility.yul\":5897:5903   */\n      dup3\n        /* \"#utility.yul\":5894:5908   */\n      lt\n        /* \"#utility.yul\":5874:5892   */\n      dup2\n        /* \"#utility.yul\":5871:5909   */\n      sub\n        /* \"#utility.yul\":5868:6029   */\n      tag_597\n      jumpi\n        /* \"#utility.yul\":5951:5961   */\n      0x4e487b71\n        /* \"#utility.yul\":5946:5949   */\n      0xe0\n        /* \"#utility.yul\":5942:5962   */\n      shl\n        /* \"#utility.yul\":5939:5940   */\n      0x00\n        /* \"#utility.yul\":5932:5963   */\n      mstore\n        /* \"#utility.yul\":5986:5990   */\n      0x22\n        /* \"#utility.yul\":5983:5984   */\n      0x04\n        /* \"#utility.yul\":5976:5991   */\n      mstore\n        /* \"#utility.yul\":6014:6018   */\n      0x24\n        /* \"#utility.yul\":6011:6012   */\n      0x00\n        /* \"#utility.yul\":6004:6019   */\n      revert\n        /* \"#utility.yul\":5868:6029   */\n    tag_597:\n      pop\n        /* \"#utility.yul\":5655:6035   */\n      swap2\n      swap1\n      pop\n      jump\t// out\n        /* \"#utility.yul\":7992:8119   */\n    tag_527:\n        /* \"#utility.yul\":8053:8063   */\n      0x4e487b71\n        /* \"#utility.yul\":8048:8051   */\n      0xe0\n        /* \"#utility.yul\":8044:8064   */\n      shl\n        /* \"#utility.yul\":8041:8042   */\n      0x00\n        /* \"#utility.yul\":8034:8065   */\n      mstore\n        /* \"#utility.yul\":8084:8088   */\n      0x11\n        /* \"#utility.yul\":8081:8082   */\n      0x04\n        /* \"#utility.yul\":8074:8089   */\n      mstore\n        /* \"#utility.yul\":8108:8112   */\n      0x24\n        /* \"#utility.yul\":8105:8106   */\n      0x00\n        /* \"#utility.yul\":8098:8113   */\n      revert\n        /* \"#utility.yul\":8124:8249   */\n    tag_253:\n        /* \"#utility.yul\":8189:8198   */\n      dup1\n      dup3\n      add\n        /* \"#utility.yul\":8210:8220   */\n      dup1\n      dup3\n      gt\n        /* \"#utility.yul\":8207:8243   */\n      iszero\n      tag_203\n      jumpi\n        /* \"#utility.yul\":8223:8241   */\n      tag_203\n      tag_527\n      jump\t// in\n        /* \"#utility.yul\":9074:9619   */\n    tag_529:\n        /* \"#utility.yul\":9176:9178   */\n      0x1f\n        /* \"#utility.yul\":9171:9174   */\n      dup3\n        /* \"#utility.yul\":9168:9179   */\n      gt\n        /* \"#utility.yul\":9165:9613   */\n      iszero\n      tag_231\n      jumpi\n        /* \"#utility.yul\":9212:9213   */\n      0x00\n        /* \"#utility.yul\":9237:9242   */\n      dup2\n        /* \"#utility.yul\":9233:9235   */\n      dup2\n        /* \"#utility.yul\":9226:9243   */\n      mstore\n        /* \"#utility.yul\":9282:9286   */\n      0x20\n        /* \"#utility.yul\":9278:9280   */\n      dup2\n        /* \"#utility.yul\":9268:9287   */\n      keccak256\n        /* \"#utility.yul\":9352:9354   */\n      0x1f\n        /* \"#utility.yul\":9340:9350   */\n      dup6\n        /* \"#utility.yul\":9336:9355   */\n      add\n        /* \"#utility.yul\":9333:9334   */\n      0x05\n        /* \"#utility.yul\":9329:9356   */\n      shr\n        /* \"#utility.yul\":9323:9327   */\n      dup2\n        /* \"#utility.yul\":9319:9357   */\n      add\n        /* \"#utility.yul\":9388:9392   */\n      0x20\n        /* \"#utility.yul\":9376:9386   */\n      dup7\n        /* \"#utility.yul\":9373:9393   */\n      lt\n        /* \"#utility.yul\":9370:9417   */\n      iszero\n      tag_612\n      jumpi\n      pop\n        /* \"#utility.yul\":9411:9415   */\n      dup1\n        /* \"#utility.yul\":9370:9417   */\n    tag_612:\n        /* \"#utility.yul\":9466:9468   */\n      0x1f\n        /* \"#utility.yul\":9461:9464   */\n      dup6\n        /* \"#utility.yul\":9457:9469   */\n      add\n        /* \"#utility.yul\":9454:9455   */\n      0x05\n        /* \"#utility.yul\":9450:9470   */\n      shr\n        /* \"#utility.yul\":9444:9448   */\n      dup3\n        /* \"#utility.yul\":9440:9471   */\n      add\n        /* \"#utility.yul\":9430:9471   */\n      swap2\n      pop\n        /* \"#utility.yul\":9521:9603   */\n    tag_613:\n        /* \"#utility.yul\":9539:9541   */\n      dup2\n        /* \"#utility.yul\":9532:9537   */\n      dup2\n        /* \"#utility.yul\":9529:9542   */\n      lt\n        /* \"#utility.yul\":9521:9603   */\n      iszero\n      tag_615\n      jumpi\n        /* \"#utility.yul\":9584:9601   */\n      dup3\n      dup2\n      sstore\n        /* \"#utility.yul\":9565:9566   */\n      0x01\n        /* \"#utility.yul\":9554:9567   */\n      add\n        /* \"#utility.yul\":9521:9603   */\n      jump(tag_613)\n    tag_615:\n        /* \"#utility.yul\":9525:9528   */\n      pop\n      pop\n      pop\n        /* \"#utility.yul\":9074:9619   */\n      pop\n      pop\n      pop\n      jump\t// out\n        /* \"#utility.yul\":9795:11147   */\n    tag_271:\n        /* \"#utility.yul\":9921:9924   */\n      dup2\n        /* \"#utility.yul\":9915:9925   */\n      mload\n        /* \"#utility.yul\":9948:9966   */\n      0xffffffffffffffff\n        /* \"#utility.yul\":9940:9946   */\n      dup2\n        /* \"#utility.yul\":9937:9967   */\n      gt\n        /* \"#utility.yul\":9934:9990   */\n      iszero\n      tag_619\n      jumpi\n        /* \"#utility.yul\":9970:9988   */\n      tag_619\n      tag_487\n      jump\t// in\n    tag_619:\n        /* \"#utility.yul\":9999:10096   */\n      tag_620\n        /* \"#utility.yul\":10089:10095   */\n      dup2\n        /* \"#utility.yul\":10049:10087   */\n      tag_621\n        /* \"#utility.yul\":10081:10085   */\n      dup5\n        /* \"#utility.yul\":10075:10086   */\n      sload\n        /* \"#utility.yul\":10049:10087   */\n      tag_207\n      jump\t// in\n    tag_621:\n        /* \"#utility.yul\":10043:10047   */\n      dup5\n        /* \"#utility.yul\":9999:10096   */\n      tag_529\n      jump\t// in\n    tag_620:\n        /* \"#utility.yul\":10151:10155   */\n      0x20\n      dup1\n        /* \"#utility.yul\":10215:10217   */\n      0x1f\n        /* \"#utility.yul\":10204:10218   */\n      dup4\n      gt\n        /* \"#utility.yul\":10232:10233   */\n      0x01\n        /* \"#utility.yul\":10227:10890   */\n      dup2\n      eq\n      tag_623\n      jumpi\n        /* \"#utility.yul\":10934:10935   */\n      0x00\n        /* \"#utility.yul\":10951:10957   */\n      dup5\n        /* \"#utility.yul\":10948:11037   */\n      iszero\n      tag_624\n      jumpi\n      pop\n        /* \"#utility.yul\":11003:11022   */\n      dup6\n      dup4\n      add\n        /* \"#utility.yul\":10997:11023   */\n      mload\n        /* \"#utility.yul\":10948:11037   */\n    tag_624:\n      not(0x00)\n        /* \"#utility.yul\":9752:9753   */\n      0x03\n        /* \"#utility.yul\":9748:9759   */\n      dup7\n      swap1\n      shl\n        /* \"#utility.yul\":9744:9768   */\n      shr\n        /* \"#utility.yul\":9740:9769   */\n      not\n        /* \"#utility.yul\":9730:9770   */\n      and\n        /* \"#utility.yul\":9776:9777   */\n      0x01\n        /* \"#utility.yul\":9772:9783   */\n      dup6\n      swap1\n      shl\n        /* \"#utility.yul\":9727:9784   */\n      or\n        /* \"#utility.yul\":11050:11131   */\n      dup6\n      sstore\n        /* \"#utility.yul\":10197:11141   */\n      jump(tag_615)\n        /* \"#utility.yul\":10227:10890   */\n    tag_623:\n        /* \"#utility.yul\":9021:9022   */\n      0x00\n        /* \"#utility.yul\":9014:9028   */\n      dup6\n      dup2\n      mstore\n        /* \"#utility.yul\":9058:9062   */\n      0x20\n        /* \"#utility.yul\":9045:9063   */\n      dup2\n      keccak256\n      not(0x1f)\n        /* \"#utility.yul\":10263:10283   */\n      dup7\n      and\n      swap2\n        /* \"#utility.yul\":10381:10617   */\n    tag_627:\n        /* \"#utility.yul\":10395:10402   */\n      dup3\n        /* \"#utility.yul\":10392:10393   */\n      dup2\n        /* \"#utility.yul\":10389:10403   */\n      lt\n        /* \"#utility.yul\":10381:10617   */\n      iszero\n      tag_629\n      jumpi\n        /* \"#utility.yul\":10484:10503   */\n      dup9\n      dup7\n      add\n        /* \"#utility.yul\":10478:10504   */\n      mload\n        /* \"#utility.yul\":10463:10505   */\n      dup3\n      sstore\n        /* \"#utility.yul\":10576:10603   */\n      swap5\n      dup5\n      add\n      swap5\n        /* \"#utility.yul\":10544:10545   */\n      0x01\n        /* \"#utility.yul\":10532:10546   */\n      swap1\n      swap2\n      add\n      swap1\n        /* \"#utility.yul\":10411:10430   */\n      dup5\n      add\n        /* \"#utility.yul\":10381:10617   */\n      jump(tag_627)\n    tag_629:\n        /* \"#utility.yul\":10385:10388   */\n      pop\n        /* \"#utility.yul\":10645:10651   */\n      dup6\n        /* \"#utility.yul\":10636:10643   */\n      dup3\n        /* \"#utility.yul\":10633:10652   */\n      lt\n        /* \"#utility.yul\":10630:10831   */\n      iszero\n      tag_630\n      jumpi\n        /* \"#utility.yul\":10706:10725   */\n      dup8\n      dup6\n      add\n        /* \"#utility.yul\":10700:10726   */\n      mload\n      not(0x00)\n        /* \"#utility.yul\":10789:10790   */\n      0x03\n        /* \"#utility.yul\":10785:10799   */\n      dup9\n      swap1\n      shl\n        /* \"#utility.yul\":10801:10804   */\n      0xf8\n        /* \"#utility.yul\":10781:10805   */\n      and\n        /* \"#utility.yul\":10777:10814   */\n      shr\n        /* \"#utility.yul\":10773:10815   */\n      not\n        /* \"#utility.yul\":10758:10816   */\n      and\n        /* \"#utility.yul\":10743:10817   */\n      dup2\n      sstore\n        /* \"#utility.yul\":10630:10831   */\n    tag_630:\n      pop\n      pop\n      pop\n      pop\n      pop\n        /* \"#utility.yul\":10877:10878   */\n      0x01\n        /* \"#utility.yul\":10861:10875   */\n      swap1\n      dup2\n      shl\n        /* \"#utility.yul\":10857:10879   */\n      add\n        /* \"#utility.yul\":10844:10880   */\n      swap1\n      sstore\n      pop\n        /* \"#utility.yul\":9795:11147   */\n      jump\t// out\n        /* \"#utility.yul\":11912:12080   */\n    tag_315:\n        /* \"#utility.yul\":11985:11994   */\n      dup1\n      dup3\n      mul\n        /* \"#utility.yul\":12016:12025   */\n      dup2\n      iszero\n        /* \"#utility.yul\":12033:12048   */\n      dup3\n      dup3\n      div\n        /* \"#utility.yul\":12027:12049   */\n      dup5\n      eq\n        /* \"#utility.yul\":12013:12050   */\n      or\n        /* \"#utility.yul\":12003:12074   */\n      tag_203\n      jumpi\n        /* \"#utility.yul\":12054:12072   */\n      tag_203\n      tag_527\n      jump\t// in\n        /* \"#utility.yul\":12085:12213   */\n    tag_318:\n        /* \"#utility.yul\":12152:12161   */\n      dup2\n      dup2\n      sub\n        /* \"#utility.yul\":12173:12184   */\n      dup2\n      dup2\n      gt\n        /* \"#utility.yul\":12170:12207   */\n      iszero\n      tag_203\n      jumpi\n        /* \"#utility.yul\":12187:12205   */\n      tag_203\n      tag_527\n      jump\t// in\n        /* \"#utility.yul\":12921:13336   */\n    tag_350:\n        /* \"#utility.yul\":13123:13125   */\n      0x20\n        /* \"#utility.yul\":13105:13126   */\n      dup1\n      dup3\n      mstore\n        /* \"#utility.yul\":13162:13164   */\n      0x33\n        /* \"#utility.yul\":13142:13160   */\n      swap1\n      dup3\n      add\n        /* \"#utility.yul\":13135:13165   */\n      mstore\n        /* \"#utility.yul\":13201:13235   */\n      0x455243373231413a207472616e7366657220746f206e6f6e2045524337323152\n        /* \"#utility.yul\":13196:13198   */\n      0x40\n        /* \"#utility.yul\":13181:13199   */\n      dup3\n      add\n        /* \"#utility.yul\":13174:13236   */\n      mstore\n      shl(0x69, 0x32b1b2b4bb32b91034b6b83632b6b2b73a32b9)\n        /* \"#utility.yul\":13267:13269   */\n      0x60\n        /* \"#utility.yul\":13252:13270   */\n      dup3\n      add\n        /* \"#utility.yul\":13245:13294   */\n      mstore\n        /* \"#utility.yul\":13326:13329   */\n      0x80\n        /* \"#utility.yul\":13311:13330   */\n      add\n      swap1\n        /* \"#utility.yul\":12921:13336   */\n      jump\t// out\n        /* \"#utility.yul\":14108:14604   */\n    tag_371:\n        /* \"#utility.yul\":14287:14290   */\n      0x00\n        /* \"#utility.yul\":14325:14331   */\n      dup4\n        /* \"#utility.yul\":14319:14332   */\n      mload\n        /* \"#utility.yul\":14341:14407   */\n      tag_645\n        /* \"#utility.yul\":14400:14406   */\n      dup2\n        /* \"#utility.yul\":14395:14398   */\n      dup5\n        /* \"#utility.yul\":14388:14392   */\n      0x20\n        /* \"#utility.yul\":14380:14386   */\n      dup9\n        /* \"#utility.yul\":14376:14393   */\n      add\n        /* \"#utility.yul\":14341:14407   */\n      tag_522\n      jump\t// in\n    tag_645:\n        /* \"#utility.yul\":14470:14483   */\n      dup4\n      mload\n        /* \"#utility.yul\":14429:14445   */\n      swap1\n      dup4\n      add\n      swap1\n        /* \"#utility.yul\":14492:14562   */\n      tag_646\n        /* \"#utility.yul\":14470:14483   */\n      dup2\n        /* \"#utility.yul\":14429:14445   */\n      dup4\n        /* \"#utility.yul\":14539:14543   */\n      0x20\n        /* \"#utility.yul\":14527:14544   */\n      dup9\n      add\n        /* \"#utility.yul\":14492:14562   */\n      tag_522\n      jump\t// in\n    tag_646:\n        /* \"#utility.yul\":14578:14598   */\n      add\n      swap5\n        /* \"#utility.yul\":14108:14604   */\n      swap4\n      pop\n      pop\n      pop\n      pop\n      jump\t// out\n        /* \"#utility.yul\":18431:18920   */\n    tag_456:\n      sub(shl(0xa0, 0x01), 0x01)\n        /* \"#utility.yul\":18700:18715   */\n      dup6\n      dup2\n      and\n        /* \"#utility.yul\":18682:18716   */\n      dup3\n      mstore\n        /* \"#utility.yul\":18752:18767   */\n      dup5\n      and\n        /* \"#utility.yul\":18747:18749   */\n      0x20\n        /* \"#utility.yul\":18732:18750   */\n      dup3\n      add\n        /* \"#utility.yul\":18725:18768   */\n      mstore\n        /* \"#utility.yul\":18799:18801   */\n      0x40\n        /* \"#utility.yul\":18784:18802   */\n      dup2\n      add\n        /* \"#utility.yul\":18777:18811   */\n      dup4\n      swap1\n      mstore\n        /* \"#utility.yul\":18847:18850   */\n      0x80\n        /* \"#utility.yul\":18842:18844   */\n      0x60\n        /* \"#utility.yul\":18827:18845   */\n      dup3\n      add\n        /* \"#utility.yul\":18820:18851   */\n      dup2\n      swap1\n      mstore\n        /* \"#utility.yul\":18625:18629   */\n      0x00\n      swap1\n        /* \"#utility.yul\":18868:18914   */\n      tag_658\n      swap1\n        /* \"#utility.yul\":18894:18913   */\n      dup4\n      add\n        /* \"#utility.yul\":18886:18892   */\n      dup5\n        /* \"#utility.yul\":18868:18914   */\n      tag_523\n      jump\t// in\n    tag_658:\n        /* \"#utility.yul\":18860:18914   */\n      swap7\n        /* \"#utility.yul\":18431:18920   */\n      swap6\n      pop\n      pop\n      pop\n      pop\n      pop\n      pop\n      jump\t// out\n        /* \"#utility.yul\":18925:19174   */\n    tag_459:\n        /* \"#utility.yul\":18994:19000   */\n      0x00\n        /* \"#utility.yul\":19047:19049   */\n      0x20\n        /* \"#utility.yul\":19035:19044   */\n      dup3\n        /* \"#utility.yul\":19026:19033   */\n      dup5\n        /* \"#utility.yul\":19022:19045   */\n      sub\n        /* \"#utility.yul\":19018:19050   */\n      slt\n        /* \"#utility.yul\":19015:19067   */\n      iszero\n      tag_660\n      jumpi\n        /* \"#utility.yul\":19063:19064   */\n      0x00\n        /* \"#utility.yul\":19060:19061   */\n      dup1\n        /* \"#utility.yul\":19053:19065   */\n      revert\n        /* \"#utility.yul\":19015:19067   */\n    tag_660:\n        /* \"#utility.yul\":19095:19104   */\n      dup2\n        /* \"#utility.yul\":19089:19105   */\n      mload\n        /* \"#utility.yul\":19114:19144   */\n      tag_367\n        /* \"#utility.yul\":19138:19143   */\n      dup2\n        /* \"#utility.yul\":19114:19144   */\n      tag_521\n      jump\t// in\n        /* \"#utility.yul\":19179:19314   */\n    tag_482:\n        /* \"#utility.yul\":19218:19221   */\n      0x00\n        /* \"#utility.yul\":19239:19256   */\n      0x01\n      dup3\n      add\n        /* \"#utility.yul\":19236:19279   */\n      tag_664\n      jumpi\n        /* \"#utility.yul\":19259:19277   */\n      tag_664\n      tag_527\n      jump\t// in\n    tag_664:\n      pop\n        /* \"#utility.yul\":19306:19307   */\n      0x01\n        /* \"#utility.yul\":19295:19308   */\n      add\n      swap1\n        /* \"#utility.yul\":19179:19314   */\n      jump\t// out\n        /* \"#utility.yul\":19319:19446   */\n    tag_531:\n        /* \"#utility.yul\":19380:19390   */\n      0x4e487b71\n        /* \"#utility.yul\":19375:19378   */\n      0xe0\n        /* \"#utility.yul\":19371:19391   */\n      shl\n        /* \"#utility.yul\":19368:19369   */\n      0x00\n        /* \"#utility.yul\":19361:19392   */\n      mstore\n        /* \"#utility.yul\":19411:19415   */\n      0x12\n        /* \"#utility.yul\":19408:19409   */\n      0x04\n        /* \"#utility.yul\":19401:19416   */\n      mstore\n        /* \"#utility.yul\":19435:19439   */\n      0x24\n        /* \"#utility.yul\":19432:19433   */\n      0x00\n        /* \"#utility.yul\":19425:19440   */\n      revert\n        /* \"#utility.yul\":19451:19571   */\n    tag_484:\n        /* \"#utility.yul\":19491:19492   */\n      0x00\n        /* \"#utility.yul\":19517:19518   */\n      dup3\n        /* \"#utility.yul\":19507:19542   */\n      tag_668\n      jumpi\n        /* \"#utility.yul\":19522:19540   */\n      tag_668\n      tag_531\n      jump\t// in\n    tag_668:\n      pop\n        /* \"#utility.yul\":19556:19565   */\n      div\n      swap1\n        /* \"#utility.yul\":19451:19571   */\n      jump\t// out\n        /* \"#utility.yul\":19576:19688   */\n    tag_493:\n        /* \"#utility.yul\":19608:19609   */\n      0x00\n        /* \"#utility.yul\":19634:19635   */\n      dup3\n        /* \"#utility.yul\":19624:19659   */\n      tag_671\n      jumpi\n        /* \"#utility.yul\":19639:19657   */\n      tag_671\n      tag_531\n      jump\t// in\n    tag_671:\n      pop\n        /* \"#utility.yul\":19673:19682   */\n      mod\n      swap1\n        /* \"#utility.yul\":19576:19688   */\n      jump\t// out\n        /* \"#utility.yul\":19693:19820   */\n    tag_497:\n        /* \"#utility.yul\":19754:19764   */\n      0x4e487b71\n        /* \"#utility.yul\":19749:19752   */\n      0xe0\n        /* \"#utility.yul\":19745:19765   */\n      shl\n        /* \"#utility.yul\":19742:19743   */\n      0x00\n        /* \"#utility.yul\":19735:19766   */\n      mstore\n        /* \"#utility.yul\":19785:19789   */\n      0x32\n        /* \"#utility.yul\":19782:19783   */\n      0x04\n        /* \"#utility.yul\":19775:19790   */\n      mstore\n        /* \"#utility.yul\":19809:19813   */\n      0x24\n        /* \"#utility.yul\":19806:19807   */\n      0x00\n        /* \"#utility.yul\":19799:19814   */\n      revert\n\n    auxdata: 0xa26469706673582212201c479dc284b44daf432fcb7e3fe228ba3c11e83b7ab1b774284a872d032c095564736f6c63430008110033\n}\n",
				"bytecode": {
					"linkReferences": {},
					"object": "60806040523480156200001157600080fd5b50604051620024d8380380620024d883398101604081905262000034916200017c565b60405180604001604052806008815260200167476c7574746f6e7960c01b81525060405180604001604052806007815260200166474c542d37445360c81b815250816001908162000086919062000324565b50600262000095828262000324565b505050620000b2620000ac620000fa60201b60201c565b620000fe565b60016008556009879055600a869055600b620000cf868262000324565b50600c93909355600d91909155600e805460ff1916911515919091179055600f5550620003f0915050565b3390565b600780546001600160a01b038381166001600160a01b0319831681179093556040519116919082907f8be0079c531659141344cd1fd0a4f28419497f9722a3daafe3b4186f6b6457e090600090a35050565b634e487b7160e01b600052604160045260246000fd5b805180151581146200017757600080fd5b919050565b600080600080600080600060e0888a0312156200019857600080fd5b87516020808a015160408b01519299509750906001600160401b0380821115620001c157600080fd5b818b0191508b601f830112620001d657600080fd5b815181811115620001eb57620001eb62000150565b604051601f8201601f19908116603f0116810190838211818310171562000216576200021662000150565b816040528281528e868487010111156200022f57600080fd5b600093505b8284101562000253578484018601518185018701529285019262000234565b6000868483010152809a5050505050505060608801519350608088015192506200028060a0890162000166565b915060c0880151905092959891949750929550565b600181811c90821680620002aa57607f821691505b602082108103620002cb57634e487b7160e01b600052602260045260246000fd5b50919050565b601f8211156200031f57600081815260208120601f850160051c81016020861015620002fa5750805b601f850160051c820191505b818110156200031b5782815560010162000306565b5050505b505050565b81516001600160401b0381111562000340576200034062000150565b620003588162000351845462000295565b84620002d1565b602080601f831160018114620003905760008415620003775750858301515b600019600386901b1c1916600185901b1785556200031b565b600085815260208120601f198616915b82811015620003c157888601518255948401946001909101908401620003a0565b5085821015620003e05787850151600019600388901b60f8161c191681555b5050505050600190811b01905550565b6120d880620004006000396000f3fe6080604052600436106102045760003560e01c8063715018a611610118578063a22cb465116100a0578063c87b56dd1161006f578063c87b56dd14610595578063d111515d146105b5578063e985e9c5146105ca578063f2fde38b146105ea578063fdb4953a1461060a57600080fd5b8063a22cb46514610515578063b0551ac414610535578063b88d4fde14610555578063c4e9374d1461057557600080fd5b80638d859f3e116100e75780638d859f3e146104995780638da5cb5b146104af57806391b7f5ed146104cd57806395d89b41146104ed578063a0712d681461050257600080fd5b8063715018a61461042a57806376d02b711461043f578063841718a6146104595780638b85e43d1461047957600080fd5b806332cb6b0c1161019b57806342842e0e1161016a57806342842e0e1461038a57806355f804b3146103aa578063616cdb1e146103ca5780636352211e146103ea57806370a082311461040a57600080fd5b806332cb6b0c146103295780633ccfd60b1461033f5780634065b85f14610354578063408cbf941461036a57600080fd5b806309ef6527116101d757806309ef6527146102ba57806310b0c052146102de57806318160ddd146102f457806323b872dd1461030957600080fd5b806301ffc9a71461020957806306fdde031461023e578063081812fc14610260578063095ea7b314610298575b600080fd5b34801561021557600080fd5b50610229610224366004611aaf565b610624565b60405190151581526020015b60405180910390f35b34801561024a57600080fd5b50610253610676565b6040516102359190611b1c565b34801561026c57600080fd5b5061028061027b366004611b2f565b610708565b6040516001600160a01b039091168152602001610235565b3480156102a457600080fd5b506102b86102b3366004611b64565b610798565b005b3480156102c657600080fd5b506102d0600d5481565b604051908152602001610235565b3480156102ea57600080fd5b506102d0600c5481565b34801561030057600080fd5b506000546102d0565b34801561031557600080fd5b506102b8610324366004611b8e565b6108af565b34801561033557600080fd5b506102d0600a5481565b34801561034b57600080fd5b506102b86108ba565b34801561036057600080fd5b506102d0600f5481565b34801561037657600080fd5b506102b8610385366004611b64565b610940565b34801561039657600080fd5b506102b86103a5366004611b8e565b6109fe565b3480156103b657600080fd5b506102b86103c5366004611c56565b610a19565b3480156103d657600080fd5b506102b86103e5366004611b2f565b610a77565b3480156103f657600080fd5b50610280610405366004611b2f565b610a84565b34801561041657600080fd5b506102d0610425366004611c9f565b610a96565b34801561043657600080fd5b506102b8610b27565b34801561044b57600080fd5b50600e546102299060ff1681565b34801561046557600080fd5b506102b8610474366004611cca565b610b3b565b34801561048557600080fd5b506102b8610494366004611b2f565b610b56565b3480156104a557600080fd5b506102d060095481565b3480156104bb57600080fd5b506007546001600160a01b0316610280565b3480156104d957600080fd5b506102b86104e8366004611b2f565b610b63565b3480156104f957600080fd5b50610253610b70565b6102b8610510366004611b2f565b610b7f565b34801561052157600080fd5b506102b8610530366004611ce5565b610d5a565b34801561054157600080fd5b506102b8610550366004611b2f565b610e1e565b34801561056157600080fd5b506102b8610570366004611d18565b610e2b565b34801561058157600080fd5b506102b8610590366004611b2f565b610e64565b3480156105a157600080fd5b506102536105b0366004611b2f565b610f06565b3480156105c157600080fd5b506102b8610fd3565b3480156105d657600080fd5b506102296105e5366004611d94565b610fea565b3480156105f657600080fd5b506102b8610605366004611c9f565b611018565b34801561061657600080fd5b506010546102299060ff1681565b60006001600160e01b031982166380ac58cd60e01b148061065557506001600160e01b03198216635b5e139f60e01b145b8061067057506301ffc9a760e01b6001600160e01b03198316145b92915050565b60606001805461068590611dbe565b80601f01602080910402602001604051908101604052809291908181526020018280546106b190611dbe565b80156106fe5780601f106106d3576101008083540402835291602001916106fe565b820191906000526020600020905b8154815290600101906020018083116106e157829003601f168201915b5050505050905090565b6000610715826000541190565b61077c5760405162461bcd60e51b815260206004820152602d60248201527f455243373231413a20617070726f76656420717565727920666f72206e6f6e6560448201526c3c34b9ba32b73a103a37b5b2b760991b60648201526084015b60405180910390fd5b506000908152600560205260409020546001600160a01b031690565b60006107a382610a84565b9050806001600160a01b0316836001600160a01b0316036108115760405162461bcd60e51b815260206004820152602260248201527f455243373231413a20617070726f76616c20746f2063757272656e74206f776e60448201526132b960f11b6064820152608401610773565b336001600160a01b038216148061082d575061082d8133610fea565b61089f5760405162461bcd60e51b815260206004820152603960248201527f455243373231413a20617070726f76652063616c6c6572206973206e6f74206f60448201527f776e6572206e6f7220617070726f76656420666f7220616c6c000000000000006064820152608401610773565b6108aa838383611091565b505050565b6108aa8383836110ed565b6108c26113d2565b6002600854036109145760405162461bcd60e51b815260206004820152601f60248201527f5265656e7472616e637947756172643a207265656e7472616e742063616c6c006044820152606401610773565b60026008554761093873c919ce1b37fc4e0405885a3350cc153b27dd06e08261142c565b506001600855565b806000811180156109535750600d548111155b6109965760405162461bcd60e51b8152602060048201526014602482015273496e76616c6964206d696e7420616d6f756e742160601b6044820152606401610773565b600a54816000546109a79190611e0e565b11156109ec5760405162461bcd60e51b81526020600482015260146024820152734d617820737570706c792065786365656465642160601b6044820152606401610773565b6109f46113d2565b6108aa8383611545565b6108aa83838360405180602001604052806000815250610e2b565b610a216113d2565b60105460ff1615610a675760405162461bcd60e51b815260206004820152601060248201526f4d657461646174612066726f7a656e2160801b6044820152606401610773565b600b610a738282611e6f565b5050565b610a7f6113d2565b600d55565b6000610a8f8261155f565b5192915050565b60006001600160a01b038216610b025760405162461bcd60e51b815260206004820152602b60248201527f455243373231413a2062616c616e636520717565727920666f7220746865207a60448201526a65726f206164647265737360a81b6064820152608401610773565b506001600160a01b03166000908152600460205260409020546001600160801b031690565b610b2f6113d2565b610b396000611636565b565b610b436113d2565b600e805460ff1916911515919091179055565b610b5e6113d2565b600f55565b610b6b6113d2565b600955565b60606002805461068590611dbe565b80600081118015610b925750600d548111155b610bd55760405162461bcd60e51b8152602060048201526014602482015273496e76616c6964206d696e7420616d6f756e742160601b6044820152606401610773565b600a5481600054610be69190611e0e565b1115610c2b5760405162461bcd60e51b81526020600482015260146024820152734d617820737570706c792065786365656465642160601b6044820152606401610773565b600e5460ff16610c735760405162461bcd60e51b815260206004820152601360248201527253616c65206973206e6f74206163746976652160681b6044820152606401610773565b600082600954610c839190611f2f565b9050600f546000541015610d0a5733600090815260116020526040812054600c54610cae9190611f46565b90508015610d0857808410610ce557600954610cca9082611f2f565b610cd49083611f46565b9150610ce03382611688565b610d08565b600954610cf29085611f2f565b610cfc9083611f46565b9150610d083385611688565b505b80341015610d505760405162461bcd60e51b8152602060048201526013602482015272496e73756666696369656e742066756e64732160681b6044820152606401610773565b6108aa3384611545565b336001600160a01b03831603610db25760405162461bcd60e51b815260206004820152601a60248201527f455243373231413a20617070726f766520746f2063616c6c65720000000000006044820152606401610773565b3360008181526006602090815260408083206001600160a01b03871680855290835292819020805460ff191686151590811790915590519081529192917f17307eab39ab6107e8899845ad3d59bd9653f200f220920489ca2b5937696c31910160405180910390a35050565b610e266113d2565b600c55565b610e368484846110ed565b610e42848484846116b9565b610e5e5760405162461bcd60e51b815260040161077390611f59565b50505050565b610e6c6113d2565b600a548110610eb65760405162461bcd60e51b8152602060048201526016602482015275496e76616c6964206e6577206d617820737570706c7960501b6044820152606401610773565b600054811015610f015760405162461bcd60e51b8152602060048201526016602482015275496e76616c6964206e6577206d617820737570706c7960501b6044820152606401610773565b600a55565b6060610f13826000541190565b610f775760405162461bcd60e51b815260206004820152602f60248201527f4552433732314d657461646174613a2055524920717565727920666f72206e6f60448201526e3732bc34b9ba32b73a103a37b5b2b760891b6064820152608401610773565b6000610f816117bb565b90508051600003610fa15760405180602001604052806000815250610fcc565b80610fab846117ca565b604051602001610fbc929190611fac565b6040516020818303038152906040525b9392505050565b610fdb6113d2565b6010805460ff19166001179055565b6001600160a01b03918216600090815260066020908152604080832093909416825291909152205460ff1690565b6110206113d2565b6001600160a01b0381166110855760405162461bcd60e51b815260206004820152602660248201527f4f776e61626c653a206e6577206f776e657220697320746865207a65726f206160448201526564647265737360d01b6064820152608401610773565b61108e81611636565b50565b60008281526005602052604080822080546001600160a01b0319166001600160a01b0387811691821790925591518593918516917f8c5be1e5ebec7d5bd14f71427d1e84f3dd0314c0f7b2291e5b200ac8c7c3b92591a4505050565b60006110f88261155f565b80519091506000906001600160a01b0316336001600160a01b0316148061112f57503361112484610708565b6001600160a01b0316145b80611141575081516111419033610fea565b9050806111ab5760405162461bcd60e51b815260206004820152603260248201527f455243373231413a207472616e736665722063616c6c6572206973206e6f74206044820152711bdddb995c881b9bdc88185c1c1c9bdd995960721b6064820152608401610773565b846001600160a01b031682600001516001600160a01b03161461121f5760405162461bcd60e51b815260206004820152602660248201527f455243373231413a207472616e736665722066726f6d20696e636f72726563746044820152651037bbb732b960d11b6064820152608401610773565b6001600160a01b0384166112835760405162461bcd60e51b815260206004820152602560248201527f455243373231413a207472616e7366657220746f20746865207a65726f206164604482015264647265737360d81b6064820152608401610773565b6112936000848460000151611091565b6001600160a01b03858116600090815260046020908152604080832080546001600160801b03198082166001600160801b03928316600019018316179092558986168086528386208054938416938316600190810190931693909317909255888552600390935281842080546001600160e01b031916909117600160a01b4267ffffffffffffffff16021790559086018083529120549091166113885761133b816000541190565b15611388578251600082815260036020908152604090912080549186015167ffffffffffffffff16600160a01b026001600160e01b03199092166001600160a01b03909316929092171790555b5082846001600160a01b0316866001600160a01b03167fddf252ad1be2c89b69c2b068fc378daa952ba7f163c4a11628f55a4df523b3ef60405160405180910390a45b5050505050565b6007546001600160a01b03163314610b395760405162461bcd60e51b815260206004820181905260248201527f4f776e61626c653a2063616c6c6572206973206e6f7420746865206f776e65726044820152606401610773565b8047101561147c5760405162461bcd60e51b815260206004820152601d60248201527f416464726573733a20696e73756666696369656e742062616c616e63650000006044820152606401610773565b6000826001600160a01b03168260405160006040518083038185875af1925050503d80600081146114c9576040519150601f19603f3d011682016040523d82523d6000602084013e6114ce565b606091505b50509050806108aa5760405162461bcd60e51b815260206004820152603a60248201527f416464726573733a20756e61626c6520746f2073656e642076616c75652c207260448201527f6563697069656e74206d617920686176652072657665727465640000000000006064820152608401610773565b610a738282604051806020016040528060008152506118cb565b604080518082019091526000808252602082015261157e826000541190565b6115dd5760405162461bcd60e51b815260206004820152602a60248201527f455243373231413a206f776e657220717565727920666f72206e6f6e657869736044820152693a32b73a103a37b5b2b760b11b6064820152608401610773565b815b6000818152600360209081526040918290208251808401909352546001600160a01b038116808452600160a01b90910467ffffffffffffffff16918301919091521561162c579392505050565b50600019016115df565b600780546001600160a01b038381166001600160a01b0319831681179093556040519116919082907f8be0079c531659141344cd1fd0a4f28419497f9722a3daafe3b4186f6b6457e090600090a35050565b6001600160a01b038216600090815260116020526040812080548392906116b0908490611e0e565b90915550505050565b60006001600160a01b0384163b156117af57604051630a85bd0160e11b81526001600160a01b0385169063150b7a02906116fd903390899088908890600401611fdb565b6020604051808303816000875af1925050508015611738575060408051601f3d908101601f1916820190925261173591810190612018565b60015b611795573d808015611766576040519150601f19603f3d011682016040523d82523d6000602084013e61176b565b606091505b50805160000361178d5760405162461bcd60e51b815260040161077390611f59565b805181602001fd5b6001600160e01b031916630a85bd0160e11b1490506117b3565b5060015b949350505050565b6060600b805461068590611dbe565b6060816000036117f15750506040805180820190915260018152600360fc1b602082015290565b8160005b811561181b578061180581612035565b91506118149050600a83612064565b91506117f5565b60008167ffffffffffffffff81111561183657611836611bca565b6040519080825280601f01601f191660200182016040528015611860576020820181803683370190505b5090505b84156117b357611875600183611f46565b9150611882600a86612078565b61188d906030611e0e565b60f81b8183815181106118a2576118a261208c565b60200101906001600160f81b031916908160001a9053506118c4600a86612064565b9450611864565b6108aa83838360016000546001600160a01b0385166119365760405162461bcd60e51b815260206004820152602160248201527f455243373231413a206d696e7420746f20746865207a65726f206164647265736044820152607360f81b6064820152608401610773565b836000036119975760405162461bcd60e51b815260206004820152602860248201527f455243373231413a207175616e74697479206d75737420626520677265617465604482015267072207468616e20360c41b6064820152608401610773565b6001600160a01b03851660008181526004602090815260408083208054600160801b6001600160801b031982166001600160801b039283168c01831690811782900483168c01909216021790558483526003909152812080546001600160e01b031916909217600160a01b4267ffffffffffffffff16021790915581905b85811015611a905760405182906001600160a01b038916906000907fddf252ad1be2c89b69c2b068fc378daa952ba7f163c4a11628f55a4df523b3ef908290a48315611a8457611a6860008884886116b9565b611a845760405162461bcd60e51b815260040161077390611f59565b60019182019101611a15565b506000556113cb565b6001600160e01b03198116811461108e57600080fd5b600060208284031215611ac157600080fd5b8135610fcc81611a99565b60005b83811015611ae7578181015183820152602001611acf565b50506000910152565b60008151808452611b08816020860160208601611acc565b601f01601f19169290920160200192915050565b602081526000610fcc6020830184611af0565b600060208284031215611b4157600080fd5b5035919050565b80356001600160a01b0381168114611b5f57600080fd5b919050565b60008060408385031215611b7757600080fd5b611b8083611b48565b946020939093013593505050565b600080600060608486031215611ba357600080fd5b611bac84611b48565b9250611bba60208501611b48565b9150604084013590509250925092565b634e487b7160e01b600052604160045260246000fd5b600067ffffffffffffffff80841115611bfb57611bfb611bca565b604051601f8501601f19908116603f01168101908282118183101715611c2357611c23611bca565b81604052809350858152868686011115611c3c57600080fd5b858560208301376000602087830101525050509392505050565b600060208284031215611c6857600080fd5b813567ffffffffffffffff811115611c7f57600080fd5b8201601f81018413611c9057600080fd5b6117b384823560208401611be0565b600060208284031215611cb157600080fd5b610fcc82611b48565b80358015158114611b5f57600080fd5b600060208284031215611cdc57600080fd5b610fcc82611cba565b60008060408385031215611cf857600080fd5b611d0183611b48565b9150611d0f60208401611cba565b90509250929050565b60008060008060808587031215611d2e57600080fd5b611d3785611b48565b9350611d4560208601611b48565b925060408501359150606085013567ffffffffffffffff811115611d6857600080fd5b8501601f81018713611d7957600080fd5b611d8887823560208401611be0565b91505092959194509250565b60008060408385031215611da757600080fd5b611db083611b48565b9150611d0f60208401611b48565b600181811c90821680611dd257607f821691505b602082108103611df257634e487b7160e01b600052602260045260246000fd5b50919050565b634e487b7160e01b600052601160045260246000fd5b8082018082111561067057610670611df8565b601f8211156108aa57600081815260208120601f850160051c81016020861015611e485750805b601f850160051c820191505b81811015611e6757828155600101611e54565b505050505050565b815167ffffffffffffffff811115611e8957611e89611bca565b611e9d81611e978454611dbe565b84611e21565b602080601f831160018114611ed25760008415611eba5750858301515b600019600386901b1c1916600185901b178555611e67565b600085815260208120601f198616915b82811015611f0157888601518255948401946001909101908401611ee2565b5085821015611f1f5787850151600019600388901b60f8161c191681555b5050505050600190811b01905550565b808202811582820484141761067057610670611df8565b8181038181111561067057610670611df8565b60208082526033908201527f455243373231413a207472616e7366657220746f206e6f6e204552433732315260408201527232b1b2b4bb32b91034b6b83632b6b2b73a32b960691b606082015260800190565b60008351611fbe818460208801611acc565b835190830190611fd2818360208801611acc565b01949350505050565b6001600160a01b038581168252841660208201526040810183905260806060820181905260009061200e90830184611af0565b9695505050505050565b60006020828403121561202a57600080fd5b8151610fcc81611a99565b60006001820161204757612047611df8565b5060010190565b634e487b7160e01b600052601260045260246000fd5b6000826120735761207361204e565b500490565b6000826120875761208761204e565b500690565b634e487b7160e01b600052603260045260246000fdfea26469706673582212201c479dc284b44daf432fcb7e3fe228ba3c11e83b7ab1b774284a872d032c095564736f6c63430008110033",
					"opcodes": "PUSH1 0x80 PUSH1 0x40 MSTORE CALLVALUE DUP1 ISZERO PUSH3 0x11 JUMPI PUSH1 0x0 DUP1 REVERT JUMPDEST POP PUSH1 0x40 MLOAD PUSH3 0x24D8 CODESIZE SUB DUP1 PUSH3 0x24D8 DUP4 CODECOPY DUP2 ADD PUSH1 0x40 DUP2 SWAP1 MSTORE PUSH3 0x34 SWAP2 PUSH3 0x17C JUMP JUMPDEST PUSH1 0x40 MLOAD DUP1 PUSH1 0x40 ADD PUSH1 0x40 MSTORE DUP1 PUSH1 0x8 DUP2 MSTORE PUSH1 0x20 ADD PUSH8 0x476C7574746F6E79 PUSH1 0xC0 SHL DUP2 MSTORE POP PUSH1 0x40 MLOAD DUP1 PUSH1 0x40 ADD PUSH1 0x40 MSTORE DUP1 PUSH1 0x7 DUP2 MSTORE PUSH1 0x20 ADD PUSH7 0x474C542D374453 PUSH1 0xC8 SHL DUP2 MSTORE POP DUP2 PUSH1 0x1 SWAP1 DUP2 PUSH3 0x86 SWAP2 SWAP1 PUSH3 0x324 JUMP JUMPDEST POP PUSH1 0x2 PUSH3 0x95 DUP3 DUP3 PUSH3 0x324 JUMP JUMPDEST POP POP POP PUSH3 0xB2 PUSH3 0xAC PUSH3 0xFA PUSH1 0x20 SHL PUSH1 0x20 SHR JUMP JUMPDEST PUSH3 0xFE JUMP JUMPDEST PUSH1 0x1 PUSH1 0x8 SSTORE PUSH1 0x9 DUP8 SWAP1 SSTORE PUSH1 0xA DUP7 SWAP1 SSTORE PUSH1 0xB PUSH3 0xCF DUP7 DUP3 PUSH3 0x324 JUMP JUMPDEST POP PUSH1 0xC SWAP4 SWAP1 SWAP4 SSTORE PUSH1 0xD SWAP2 SWAP1 SWAP2 SSTORE PUSH1 0xE DUP1 SLOAD PUSH1 0xFF NOT AND SWAP2 ISZERO ISZERO SWAP2 SWAP1 SWAP2 OR SWAP1 SSTORE PUSH1 0xF SSTORE POP PUSH3 0x3F0 SWAP2 POP POP JUMP JUMPDEST CALLER SWAP1 JUMP JUMPDEST PUSH1 0x7 DUP1 SLOAD PUSH1 0x1 PUSH1 0x1 PUSH1 0xA0 SHL SUB DUP4 DUP2 AND PUSH1 0x1 PUSH1 0x1 PUSH1 0xA0 SHL SUB NOT DUP4 AND DUP2 OR SWAP1 SWAP4 SSTORE PUSH1 0x40 MLOAD SWAP2 AND SWAP2 SWAP1 DUP3 SWAP1 PUSH32 0x8BE0079C531659141344CD1FD0A4F28419497F9722A3DAAFE3B4186F6B6457E0 SWAP1 PUSH1 0x0 SWAP1 LOG3 POP POP JUMP JUMPDEST PUSH4 0x4E487B71 PUSH1 0xE0 SHL PUSH1 0x0 MSTORE PUSH1 0x41 PUSH1 0x4 MSTORE PUSH1 0x24 PUSH1 0x0 REVERT JUMPDEST DUP1 MLOAD DUP1 ISZERO ISZERO DUP2 EQ PUSH3 0x177 JUMPI PUSH1 0x0 DUP1 REVERT JUMPDEST SWAP2 SWAP1 POP JUMP JUMPDEST PUSH1 0x0 DUP1 PUSH1 0x0 DUP1 PUSH1 0x0 DUP1 PUSH1 0x0 PUSH1 0xE0 DUP9 DUP11 SUB SLT ISZERO PUSH3 0x198 JUMPI PUSH1 0x0 DUP1 REVERT JUMPDEST DUP8 MLOAD PUSH1 0x20 DUP1 DUP11 ADD MLOAD PUSH1 0x40 DUP12 ADD MLOAD SWAP3 SWAP10 POP SWAP8 POP SWAP1 PUSH1 0x1 PUSH1 0x1 PUSH1 0x40 SHL SUB DUP1 DUP3 GT ISZERO PUSH3 0x1C1 JUMPI PUSH1 0x0 DUP1 REVERT JUMPDEST DUP2 DUP12 ADD SWAP2 POP DUP12 PUSH1 0x1F DUP4 ADD SLT PUSH3 0x1D6 JUMPI PUSH1 0x0 DUP1 REVERT JUMPDEST DUP2 MLOAD DUP2 DUP2 GT ISZERO PUSH3 0x1EB JUMPI PUSH3 0x1EB PUSH3 0x150 JUMP JUMPDEST PUSH1 0x40 MLOAD PUSH1 0x1F DUP3 ADD PUSH1 0x1F NOT SWAP1 DUP2 AND PUSH1 0x3F ADD AND DUP2 ADD SWAP1 DUP4 DUP3 GT DUP2 DUP4 LT OR ISZERO PUSH3 0x216 JUMPI PUSH3 0x216 PUSH3 0x150 JUMP JUMPDEST DUP2 PUSH1 0x40 MSTORE DUP3 DUP2 MSTORE DUP15 DUP7 DUP5 DUP8 ADD ADD GT ISZERO PUSH3 0x22F JUMPI PUSH1 0x0 DUP1 REVERT JUMPDEST PUSH1 0x0 SWAP4 POP JUMPDEST DUP3 DUP5 LT ISZERO PUSH3 0x253 JUMPI DUP5 DUP5 ADD DUP7 ADD MLOAD DUP2 DUP6 ADD DUP8 ADD MSTORE SWAP3 DUP6 ADD SWAP3 PUSH3 0x234 JUMP JUMPDEST PUSH1 0x0 DUP7 DUP5 DUP4 ADD ADD MSTORE DUP1 SWAP11 POP POP POP POP POP POP POP PUSH1 0x60 DUP9 ADD MLOAD SWAP4 POP PUSH1 0x80 DUP9 ADD MLOAD SWAP3 POP PUSH3 0x280 PUSH1 0xA0 DUP10 ADD PUSH3 0x166 JUMP JUMPDEST SWAP2 POP PUSH1 0xC0 DUP9 ADD MLOAD SWAP1 POP SWAP3 SWAP6 SWAP9 SWAP2 SWAP5 SWAP8 POP SWAP3 SWAP6 POP JUMP JUMPDEST PUSH1 0x1 DUP2 DUP2 SHR SWAP1 DUP3 AND DUP1 PUSH3 0x2AA JUMPI PUSH1 0x7F DUP3 AND SWAP2 POP JUMPDEST PUSH1 0x20 DUP3 LT DUP2 SUB PUSH3 0x2CB JUMPI PUSH4 0x4E487B71 PUSH1 0xE0 SHL PUSH1 0x0 MSTORE PUSH1 0x22 PUSH1 0x4 MSTORE PUSH1 0x24 PUSH1 0x0 REVERT JUMPDEST POP SWAP2 SWAP1 POP JUMP JUMPDEST PUSH1 0x1F DUP3 GT ISZERO PUSH3 0x31F JUMPI PUSH1 0x0 DUP2 DUP2 MSTORE PUSH1 0x20 DUP2 KECCAK256 PUSH1 0x1F DUP6 ADD PUSH1 0x5 SHR DUP2 ADD PUSH1 0x20 DUP7 LT ISZERO PUSH3 0x2FA JUMPI POP DUP1 JUMPDEST PUSH1 0x1F DUP6 ADD PUSH1 0x5 SHR DUP3 ADD SWAP2 POP JUMPDEST DUP2 DUP2 LT ISZERO PUSH3 0x31B JUMPI DUP3 DUP2 SSTORE PUSH1 0x1 ADD PUSH3 0x306 JUMP JUMPDEST POP POP POP JUMPDEST POP POP POP JUMP JUMPDEST DUP2 MLOAD PUSH1 0x1 PUSH1 0x1 PUSH1 0x40 SHL SUB DUP2 GT ISZERO PUSH3 0x340 JUMPI PUSH3 0x340 PUSH3 0x150 JUMP JUMPDEST PUSH3 0x358 DUP2 PUSH3 0x351 DUP5 SLOAD PUSH3 0x295 JUMP JUMPDEST DUP5 PUSH3 0x2D1 JUMP JUMPDEST PUSH1 0x20 DUP1 PUSH1 0x1F DUP4 GT PUSH1 0x1 DUP2 EQ PUSH3 0x390 JUMPI PUSH1 0x0 DUP5 ISZERO PUSH3 0x377 JUMPI POP DUP6 DUP4 ADD MLOAD JUMPDEST PUSH1 0x0 NOT PUSH1 0x3 DUP7 SWAP1 SHL SHR NOT AND PUSH1 0x1 DUP6 SWAP1 SHL OR DUP6 SSTORE PUSH3 0x31B JUMP JUMPDEST PUSH1 0x0 DUP6 DUP2 MSTORE PUSH1 0x20 DUP2 KECCAK256 PUSH1 0x1F NOT DUP7 AND SWAP2 JUMPDEST DUP3 DUP2 LT ISZERO PUSH3 0x3C1 JUMPI DUP9 DUP7 ADD MLOAD DUP3 SSTORE SWAP5 DUP5 ADD SWAP5 PUSH1 0x1 SWAP1 SWAP2 ADD SWAP1 DUP5 ADD PUSH3 0x3A0 JUMP JUMPDEST POP DUP6 DUP3 LT ISZERO PUSH3 0x3E0 JUMPI DUP8 DUP6 ADD MLOAD PUSH1 0x0 NOT PUSH1 0x3 DUP9 SWAP1 SHL PUSH1 0xF8 AND SHR NOT AND DUP2 SSTORE JUMPDEST POP POP POP POP POP PUSH1 0x1 SWAP1 DUP2 SHL ADD SWAP1 SSTORE POP JUMP JUMPDEST PUSH2 0x20D8 DUP1 PUSH3 0x400 PUSH1 0x0 CODECOPY PUSH1 0x0 RETURN INVALID PUSH1 0x80 PUSH1 0x40 MSTORE PUSH1 0x4 CALLDATASIZE LT PUSH2 0x204 JUMPI PUSH1 0x0 CALLDATALOAD PUSH1 0xE0 SHR DUP1 PUSH4 0x715018A6 GT PUSH2 0x118 JUMPI DUP1 PUSH4 0xA22CB465 GT PUSH2 0xA0 JUMPI DUP1 PUSH4 0xC87B56DD GT PUSH2 0x6F JUMPI DUP1 PUSH4 0xC87B56DD EQ PUSH2 0x595 JUMPI DUP1 PUSH4 0xD111515D EQ PUSH2 0x5B5 JUMPI DUP1 PUSH4 0xE985E9C5 EQ PUSH2 0x5CA JUMPI DUP1 PUSH4 0xF2FDE38B EQ PUSH2 0x5EA JUMPI DUP1 PUSH4 0xFDB4953A EQ PUSH2 0x60A JUMPI PUSH1 0x0 DUP1 REVERT JUMPDEST DUP1 PUSH4 0xA22CB465 EQ PUSH2 0x515 JUMPI DUP1 PUSH4 0xB0551AC4 EQ PUSH2 0x535 JUMPI DUP1 PUSH4 0xB88D4FDE EQ PUSH2 0x555 JUMPI DUP1 PUSH4 0xC4E9374D EQ PUSH2 0x575 JUMPI PUSH1 0x0 DUP1 REVERT JUMPDEST DUP1 PUSH4 0x8D859F3E GT PUSH2 0xE7 JUMPI DUP1 PUSH4 0x8D859F3E EQ PUSH2 0x499 JUMPI DUP1 PUSH4 0x8DA5CB5B EQ PUSH2 0x4AF JUMPI DUP1 PUSH4 0x91B7F5ED EQ PUSH2 0x4CD JUMPI DUP1 PUSH4 0x95D89B41 EQ PUSH2 0x4ED JUMPI DUP1 PUSH4 0xA0712D68 EQ PUSH2 0x502 JUMPI PUSH1 0x0 DUP1 REVERT JUMPDEST DUP1 PUSH4 0x715018A6 EQ PUSH2 0x42A JUMPI DUP1 PUSH4 0x76D02B71 EQ PUSH2 0x43F JUMPI DUP1 PUSH4 0x841718A6 EQ PUSH2 0x459 JUMPI DUP1 PUSH4 0x8B85E43D EQ PUSH2 0x479 JUMPI PUSH1 0x0 DUP1 REVERT JUMPDEST DUP1 PUSH4 0x32CB6B0C GT PUSH2 0x19B JUMPI DUP1 PUSH4 0x42842E0E GT PUSH2 0x16A JUMPI DUP1 PUSH4 0x42842E0E EQ PUSH2 0x38A JUMPI DUP1 PUSH4 0x55F804B3 EQ PUSH2 0x3AA JUMPI DUP1 PUSH4 0x616CDB1E EQ PUSH2 0x3CA JUMPI DUP1 PUSH4 0x6352211E EQ PUSH2 0x3EA JUMPI DUP1 PUSH4 0x70A08231 EQ PUSH2 0x40A JUMPI PUSH1 0x0 DUP1 REVERT JUMPDEST DUP1 PUSH4 0x32CB6B0C EQ PUSH2 0x329 JUMPI DUP1 PUSH4 0x3CCFD60B EQ PUSH2 0x33F JUMPI DUP1 PUSH4 0x4065B85F EQ PUSH2 0x354 JUMPI DUP1 PUSH4 0x408CBF94 EQ PUSH2 0x36A JUMPI PUSH1 0x0 DUP1 REVERT JUMPDEST DUP1 PUSH4 0x9EF6527 GT PUSH2 0x1D7 JUMPI DUP1 PUSH4 0x9EF6527 EQ PUSH2 0x2BA JUMPI DUP1 PUSH4 0x10B0C052 EQ PUSH2 0x2DE JUMPI DUP1 PUSH4 0x18160DDD EQ PUSH2 0x2F4 JUMPI DUP1 PUSH4 0x23B872DD EQ PUSH2 0x309 JUMPI PUSH1 0x0 DUP1 REVERT JUMPDEST DUP1 PUSH4 0x1FFC9A7 EQ PUSH2 0x209 JUMPI DUP1 PUSH4 0x6FDDE03 EQ PUSH2 0x23E JUMPI DUP1 PUSH4 0x81812FC EQ PUSH2 0x260 JUMPI DUP1 PUSH4 0x95EA7B3 EQ PUSH2 0x298 JUMPI JUMPDEST PUSH1 0x0 DUP1 REVERT JUMPDEST CALLVALUE DUP1 ISZERO PUSH2 0x215 JUMPI PUSH1 0x0 DUP1 REVERT JUMPDEST POP PUSH2 0x229 PUSH2 0x224 CALLDATASIZE PUSH1 0x4 PUSH2 0x1AAF JUMP JUMPDEST PUSH2 0x624 JUMP JUMPDEST PUSH1 0x40 MLOAD SWAP1 ISZERO ISZERO DUP2 MSTORE PUSH1 0x20 ADD JUMPDEST PUSH1 0x40 MLOAD DUP1 SWAP2 SUB SWAP1 RETURN JUMPDEST CALLVALUE DUP1 ISZERO PUSH2 0x24A JUMPI PUSH1 0x0 DUP1 REVERT JUMPDEST POP PUSH2 0x253 PUSH2 0x676 JUMP JUMPDEST PUSH1 0x40 MLOAD PUSH2 0x235 SWAP2 SWAP1 PUSH2 0x1B1C JUMP JUMPDEST CALLVALUE DUP1 ISZERO PUSH2 0x26C JUMPI PUSH1 0x0 DUP1 REVERT JUMPDEST POP PUSH2 0x280 PUSH2 0x27B CALLDATASIZE PUSH1 0x4 PUSH2 0x1B2F JUMP JUMPDEST PUSH2 0x708 JUMP JUMPDEST PUSH1 0x40 MLOAD PUSH1 0x1 PUSH1 0x1 PUSH1 0xA0 SHL SUB SWAP1 SWAP2 AND DUP2 MSTORE PUSH1 0x20 ADD PUSH2 0x235 JUMP JUMPDEST CALLVALUE DUP1 ISZERO PUSH2 0x2A4 JUMPI PUSH1 0x0 DUP1 REVERT JUMPDEST POP PUSH2 0x2B8 PUSH2 0x2B3 CALLDATASIZE PUSH1 0x4 PUSH2 0x1B64 JUMP JUMPDEST PUSH2 0x798 JUMP JUMPDEST STOP JUMPDEST CALLVALUE DUP1 ISZERO PUSH2 0x2C6 JUMPI PUSH1 0x0 DUP1 REVERT JUMPDEST POP PUSH2 0x2D0 PUSH1 0xD SLOAD DUP2 JUMP JUMPDEST PUSH1 0x40 MLOAD SWAP1 DUP2 MSTORE PUSH1 0x20 ADD PUSH2 0x235 JUMP JUMPDEST CALLVALUE DUP1 ISZERO PUSH2 0x2EA JUMPI PUSH1 0x0 DUP1 REVERT JUMPDEST POP PUSH2 0x2D0 PUSH1 0xC SLOAD DUP2 JUMP JUMPDEST CALLVALUE DUP1 ISZERO PUSH2 0x300 JUMPI PUSH1 0x0 DUP1 REVERT JUMPDEST POP PUSH1 0x0 SLOAD PUSH2 0x2D0 JUMP JUMPDEST CALLVALUE DUP1 ISZERO PUSH2 0x315 JUMPI PUSH1 0x0 DUP1 REVERT JUMPDEST POP PUSH2 0x2B8 PUSH2 0x324 CALLDATASIZE PUSH1 0x4 PUSH2 0x1B8E JUMP JUMPDEST PUSH2 0x8AF JUMP JUMPDEST CALLVALUE DUP1 ISZERO PUSH2 0x335 JUMPI PUSH1 0x0 DUP1 REVERT JUMPDEST POP PUSH2 0x2D0 PUSH1 0xA SLOAD DUP2 JUMP JUMPDEST CALLVALUE DUP1 ISZERO PUSH2 0x34B JUMPI PUSH1 0x0 DUP1 REVERT JUMPDEST POP PUSH2 0x2B8 PUSH2 0x8BA JUMP JUMPDEST CALLVALUE DUP1 ISZERO PUSH2 0x360 JUMPI PUSH1 0x0 DUP1 REVERT JUMPDEST POP PUSH2 0x2D0 PUSH1 0xF SLOAD DUP2 JUMP JUMPDEST CALLVALUE DUP1 ISZERO PUSH2 0x376 JUMPI PUSH1 0x0 DUP1 REVERT JUMPDEST POP PUSH2 0x2B8 PUSH2 0x385 CALLDATASIZE PUSH1 0x4 PUSH2 0x1B64 JUMP JUMPDEST PUSH2 0x940 JUMP JUMPDEST CALLVALUE DUP1 ISZERO PUSH2 0x396 JUMPI PUSH1 0x0 DUP1 REVERT JUMPDEST POP PUSH2 0x2B8 PUSH2 0x3A5 CALLDATASIZE PUSH1 0x4 PUSH2 0x1B8E JUMP JUMPDEST PUSH2 0x9FE JUMP JUMPDEST CALLVALUE DUP1 ISZERO PUSH2 0x3B6 JUMPI PUSH1 0x0 DUP1 REVERT JUMPDEST POP PUSH2 0x2B8 PUSH2 0x3C5 CALLDATASIZE PUSH1 0x4 PUSH2 0x1C56 JUMP JUMPDEST PUSH2 0xA19 JUMP JUMPDEST CALLVALUE DUP1 ISZERO PUSH2 0x3D6 JUMPI PUSH1 0x0 DUP1 REVERT JUMPDEST POP PUSH2 0x2B8 PUSH2 0x3E5 CALLDATASIZE PUSH1 0x4 PUSH2 0x1B2F JUMP JUMPDEST PUSH2 0xA77 JUMP JUMPDEST CALLVALUE DUP1 ISZERO PUSH2 0x3F6 JUMPI PUSH1 0x0 DUP1 REVERT JUMPDEST POP PUSH2 0x280 PUSH2 0x405 CALLDATASIZE PUSH1 0x4 PUSH2 0x1B2F JUMP JUMPDEST PUSH2 0xA84 JUMP JUMPDEST CALLVALUE DUP1 ISZERO PUSH2 0x416 JUMPI PUSH1 0x0 DUP1 REVERT JUMPDEST POP PUSH2 0x2D0 PUSH2 0x425 CALLDATASIZE PUSH1 0x4 PUSH2 0x1C9F JUMP JUMPDEST PUSH2 0xA96 JUMP JUMPDEST CALLVALUE DUP1 ISZERO PUSH2 0x436 JUMPI PUSH1 0x0 DUP1 REVERT JUMPDEST POP PUSH2 0x2B8 PUSH2 0xB27 JUMP JUMPDEST CALLVALUE DUP1 ISZERO PUSH2 0x44B JUMPI PUSH1 0x0 DUP1 REVERT JUMPDEST POP PUSH1 0xE SLOAD PUSH2 0x229 SWAP1 PUSH1 0xFF AND DUP2 JUMP JUMPDEST CALLVALUE DUP1 ISZERO PUSH2 0x465 JUMPI PUSH1 0x0 DUP1 REVERT JUMPDEST POP PUSH2 0x2B8 PUSH2 0x474 CALLDATASIZE PUSH1 0x4 PUSH2 0x1CCA JUMP JUMPDEST PUSH2 0xB3B JUMP JUMPDEST CALLVALUE DUP1 ISZERO PUSH2 0x485 JUMPI PUSH1 0x0 DUP1 REVERT JUMPDEST POP PUSH2 0x2B8 PUSH2 0x494 CALLDATASIZE PUSH1 0x4 PUSH2 0x1B2F JUMP JUMPDEST PUSH2 0xB56 JUMP JUMPDEST CALLVALUE DUP1 ISZERO PUSH2 0x4A5 JUMPI PUSH1 0x0 DUP1 REVERT JUMPDEST POP PUSH2 0x2D0 PUSH1 0x9 SLOAD DUP2 JUMP JUMPDEST CALLVALUE DUP1 ISZERO PUSH2 0x4BB JUMPI PUSH1 0x0 DUP1 REVERT JUMPDEST POP PUSH1 0x7 SLOAD PUSH1 0x1 PUSH1 0x1 PUSH1 0xA0 SHL SUB AND PUSH2 0x280 JUMP JUMPDEST CALLVALUE DUP1 ISZERO PUSH2 0x4D9 JUMPI PUSH1 0x0 DUP1 REVERT JUMPDEST POP PUSH2 0x2B8 PUSH2 0x4E8 CALLDATASIZE PUSH1 0x4 PUSH2 0x1B2F JUMP JUMPDEST PUSH2 0xB63 JUMP JUMPDEST CALLVALUE DUP1 ISZERO PUSH2 0x4F9 JUMPI PUSH1 0x0 DUP1 REVERT JUMPDEST POP PUSH2 0x253 PUSH2 0xB70 JUMP JUMPDEST PUSH2 0x2B8 PUSH2 0x510 CALLDATASIZE PUSH1 0x4 PUSH2 0x1B2F JUMP JUMPDEST PUSH2 0xB7F JUMP JUMPDEST CALLVALUE DUP1 ISZERO PUSH2 0x521 JUMPI PUSH1 0x0 DUP1 REVERT JUMPDEST POP PUSH2 0x2B8 PUSH2 0x530 CALLDATASIZE PUSH1 0x4 PUSH2 0x1CE5 JUMP JUMPDEST PUSH2 0xD5A JUMP JUMPDEST CALLVALUE DUP1 ISZERO PUSH2 0x541 JUMPI PUSH1 0x0 DUP1 REVERT JUMPDEST POP PUSH2 0x2B8 PUSH2 0x550 CALLDATASIZE PUSH1 0x4 PUSH2 0x1B2F JUMP JUMPDEST PUSH2 0xE1E JUMP JUMPDEST CALLVALUE DUP1 ISZERO PUSH2 0x561 JUMPI PUSH1 0x0 DUP1 REVERT JUMPDEST POP PUSH2 0x2B8 PUSH2 0x570 CALLDATASIZE PUSH1 0x4 PUSH2 0x1D18 JUMP JUMPDEST PUSH2 0xE2B JUMP JUMPDEST CALLVALUE DUP1 ISZERO PUSH2 0x581 JUMPI PUSH1 0x0 DUP1 REVERT JUMPDEST POP PUSH2 0x2B8 PUSH2 0x590 CALLDATASIZE PUSH1 0x4 PUSH2 0x1B2F JUMP JUMPDEST PUSH2 0xE64 JUMP JUMPDEST CALLVALUE DUP1 ISZERO PUSH2 0x5A1 JUMPI PUSH1 0x0 DUP1 REVERT JUMPDEST POP PUSH2 0x253 PUSH2 0x5B0 CALLDATASIZE PUSH1 0x4 PUSH2 0x1B2F JUMP JUMPDEST PUSH2 0xF06 JUMP JUMPDEST CALLVALUE DUP1 ISZERO PUSH2 0x5C1 JUMPI PUSH1 0x0 DUP1 REVERT JUMPDEST POP PUSH2 0x2B8 PUSH2 0xFD3 JUMP JUMPDEST CALLVALUE DUP1 ISZERO PUSH2 0x5D6 JUMPI PUSH1 0x0 DUP1 REVERT JUMPDEST POP PUSH2 0x229 PUSH2 0x5E5 CALLDATASIZE PUSH1 0x4 PUSH2 0x1D94 JUMP JUMPDEST PUSH2 0xFEA JUMP JUMPDEST CALLVALUE DUP1 ISZERO PUSH2 0x5F6 JUMPI PUSH1 0x0 DUP1 REVERT JUMPDEST POP PUSH2 0x2B8 PUSH2 0x605 CALLDATASIZE PUSH1 0x4 PUSH2 0x1C9F JUMP JUMPDEST PUSH2 0x1018 JUMP JUMPDEST CALLVALUE DUP1 ISZERO PUSH2 0x616 JUMPI PUSH1 0x0 DUP1 REVERT JUMPDEST POP PUSH1 0x10 SLOAD PUSH2 0x229 SWAP1 PUSH1 0xFF AND DUP2 JUMP JUMPDEST PUSH1 0x0 PUSH1 0x1 PUSH1 0x1 PUSH1 0xE0 SHL SUB NOT DUP3 AND PUSH4 0x80AC58CD PUSH1 0xE0 SHL EQ DUP1 PUSH2 0x655 JUMPI POP PUSH1 0x1 PUSH1 0x1 PUSH1 0xE0 SHL SUB NOT DUP3 AND PUSH4 0x5B5E139F PUSH1 0xE0 SHL EQ JUMPDEST DUP1 PUSH2 0x670 JUMPI POP PUSH4 0x1FFC9A7 PUSH1 0xE0 SHL PUSH1 0x1 PUSH1 0x1 PUSH1 0xE0 SHL SUB NOT DUP4 AND EQ JUMPDEST SWAP3 SWAP2 POP POP JUMP JUMPDEST PUSH1 0x60 PUSH1 0x1 DUP1 SLOAD PUSH2 0x685 SWAP1 PUSH2 0x1DBE JUMP JUMPDEST DUP1 PUSH1 0x1F ADD PUSH1 0x20 DUP1 SWAP2 DIV MUL PUSH1 0x20 ADD PUSH1 0x40 MLOAD SWAP1 DUP2 ADD PUSH1 0x40 MSTORE DUP1 SWAP3 SWAP2 SWAP1 DUP2 DUP2 MSTORE PUSH1 0x20 ADD DUP3 DUP1 SLOAD PUSH2 0x6B1 SWAP1 PUSH2 0x1DBE JUMP JUMPDEST DUP1 ISZERO PUSH2 0x6FE JUMPI DUP1 PUSH1 0x1F LT PUSH2 0x6D3 JUMPI PUSH2 0x100 DUP1 DUP4 SLOAD DIV MUL DUP4 MSTORE SWAP2 PUSH1 0x20 ADD SWAP2 PUSH2 0x6FE JUMP JUMPDEST DUP3 ADD SWAP2 SWAP1 PUSH1 0x0 MSTORE PUSH1 0x20 PUSH1 0x0 KECCAK256 SWAP1 JUMPDEST DUP2 SLOAD DUP2 MSTORE SWAP1 PUSH1 0x1 ADD SWAP1 PUSH1 0x20 ADD DUP1 DUP4 GT PUSH2 0x6E1 JUMPI DUP3 SWAP1 SUB PUSH1 0x1F AND DUP3 ADD SWAP2 JUMPDEST POP POP POP POP POP SWAP1 POP SWAP1 JUMP JUMPDEST PUSH1 0x0 PUSH2 0x715 DUP3 PUSH1 0x0 SLOAD GT SWAP1 JUMP JUMPDEST PUSH2 0x77C JUMPI PUSH1 0x40 MLOAD PUSH3 0x461BCD PUSH1 0xE5 SHL DUP2 MSTORE PUSH1 0x20 PUSH1 0x4 DUP3 ADD MSTORE PUSH1 0x2D PUSH1 0x24 DUP3 ADD MSTORE PUSH32 0x455243373231413A20617070726F76656420717565727920666F72206E6F6E65 PUSH1 0x44 DUP3 ADD MSTORE PUSH13 0x3C34B9BA32B73A103A37B5B2B7 PUSH1 0x99 SHL PUSH1 0x64 DUP3 ADD MSTORE PUSH1 0x84 ADD JUMPDEST PUSH1 0x40 MLOAD DUP1 SWAP2 SUB SWAP1 REVERT JUMPDEST POP PUSH1 0x0 SWAP1 DUP2 MSTORE PUSH1 0x5 PUSH1 0x20 MSTORE PUSH1 0x40 SWAP1 KECCAK256 SLOAD PUSH1 0x1 PUSH1 0x1 PUSH1 0xA0 SHL SUB AND SWAP1 JUMP JUMPDEST PUSH1 0x0 PUSH2 0x7A3 DUP3 PUSH2 0xA84 JUMP JUMPDEST SWAP1 POP DUP1 PUSH1 0x1 PUSH1 0x1 PUSH1 0xA0 SHL SUB AND DUP4 PUSH1 0x1 PUSH1 0x1 PUSH1 0xA0 SHL SUB AND SUB PUSH2 0x811 JUMPI PUSH1 0x40 MLOAD PUSH3 0x461BCD PUSH1 0xE5 SHL DUP2 MSTORE PUSH1 0x20 PUSH1 0x4 DUP3 ADD MSTORE PUSH1 0x22 PUSH1 0x24 DUP3 ADD MSTORE PUSH32 0x455243373231413A20617070726F76616C20746F2063757272656E74206F776E PUSH1 0x44 DUP3 ADD MSTORE PUSH2 0x32B9 PUSH1 0xF1 SHL PUSH1 0x64 DUP3 ADD MSTORE PUSH1 0x84 ADD PUSH2 0x773 JUMP JUMPDEST CALLER PUSH1 0x1 PUSH1 0x1 PUSH1 0xA0 SHL SUB DUP3 AND EQ DUP1 PUSH2 0x82D JUMPI POP PUSH2 0x82D DUP2 CALLER PUSH2 0xFEA JUMP JUMPDEST PUSH2 0x89F JUMPI PUSH1 0x40 MLOAD PUSH3 0x461BCD PUSH1 0xE5 SHL DUP2 MSTORE PUSH1 0x20 PUSH1 0x4 DUP3 ADD MSTORE PUSH1 0x39 PUSH1 0x24 DUP3 ADD MSTORE PUSH32 0x455243373231413A20617070726F76652063616C6C6572206973206E6F74206F PUSH1 0x44 DUP3 ADD MSTORE PUSH32 0x776E6572206E6F7220617070726F76656420666F7220616C6C00000000000000 PUSH1 0x64 DUP3 ADD MSTORE PUSH1 0x84 ADD PUSH2 0x773 JUMP JUMPDEST PUSH2 0x8AA DUP4 DUP4 DUP4 PUSH2 0x1091 JUMP JUMPDEST POP POP POP JUMP JUMPDEST PUSH2 0x8AA DUP4 DUP4 DUP4 PUSH2 0x10ED JUMP JUMPDEST PUSH2 0x8C2 PUSH2 0x13D2 JUMP JUMPDEST PUSH1 0x2 PUSH1 0x8 SLOAD SUB PUSH2 0x914 JUMPI PUSH1 0x40 MLOAD PUSH3 0x461BCD PUSH1 0xE5 SHL DUP2 MSTORE PUSH1 0x20 PUSH1 0x4 DUP3 ADD MSTORE PUSH1 0x1F PUSH1 0x24 DUP3 ADD MSTORE PUSH32 0x5265656E7472616E637947756172643A207265656E7472616E742063616C6C00 PUSH1 0x44 DUP3 ADD MSTORE PUSH1 0x64 ADD PUSH2 0x773 JUMP JUMPDEST PUSH1 0x2 PUSH1 0x8 SSTORE SELFBALANCE PUSH2 0x938 PUSH20 0xC919CE1B37FC4E0405885A3350CC153B27DD06E0 DUP3 PUSH2 0x142C JUMP JUMPDEST POP PUSH1 0x1 PUSH1 0x8 SSTORE JUMP JUMPDEST DUP1 PUSH1 0x0 DUP2 GT DUP1 ISZERO PUSH2 0x953 JUMPI POP PUSH1 0xD SLOAD DUP2 GT ISZERO JUMPDEST PUSH2 0x996 JUMPI PUSH1 0x40 MLOAD PUSH3 0x461BCD PUSH1 0xE5 SHL DUP2 MSTORE PUSH1 0x20 PUSH1 0x4 DUP3 ADD MSTORE PUSH1 0x14 PUSH1 0x24 DUP3 ADD MSTORE PUSH20 0x496E76616C6964206D696E7420616D6F756E7421 PUSH1 0x60 SHL PUSH1 0x44 DUP3 ADD MSTORE PUSH1 0x64 ADD PUSH2 0x773 JUMP JUMPDEST PUSH1 0xA SLOAD DUP2 PUSH1 0x0 SLOAD PUSH2 0x9A7 SWAP2 SWAP1 PUSH2 0x1E0E JUMP JUMPDEST GT ISZERO PUSH2 0x9EC JUMPI PUSH1 0x40 MLOAD PUSH3 0x461BCD PUSH1 0xE5 SHL DUP2 MSTORE PUSH1 0x20 PUSH1 0x4 DUP3 ADD MSTORE PUSH1 0x14 PUSH1 0x24 DUP3 ADD MSTORE PUSH20 0x4D617820737570706C7920657863656564656421 PUSH1 0x60 SHL PUSH1 0x44 DUP3 ADD MSTORE PUSH1 0x64 ADD PUSH2 0x773 JUMP JUMPDEST PUSH2 0x9F4 PUSH2 0x13D2 JUMP JUMPDEST PUSH2 0x8AA DUP4 DUP4 PUSH2 0x1545 JUMP JUMPDEST PUSH2 0x8AA DUP4 DUP4 DUP4 PUSH1 0x40 MLOAD DUP1 PUSH1 0x20 ADD PUSH1 0x40 MSTORE DUP1 PUSH1 0x0 DUP2 MSTORE POP PUSH2 0xE2B JUMP JUMPDEST PUSH2 0xA21 PUSH2 0x13D2 JUMP JUMPDEST PUSH1 0x10 SLOAD PUSH1 0xFF AND ISZERO PUSH2 0xA67 JUMPI PUSH1 0x40 MLOAD PUSH3 0x461BCD PUSH1 0xE5 SHL DUP2 MSTORE PUSH1 0x20 PUSH1 0x4 DUP3 ADD MSTORE PUSH1 0x10 PUSH1 0x24 DUP3 ADD MSTORE PUSH16 0x4D657461646174612066726F7A656E21 PUSH1 0x80 SHL PUSH1 0x44 DUP3 ADD MSTORE PUSH1 0x64 ADD PUSH2 0x773 JUMP JUMPDEST PUSH1 0xB PUSH2 0xA73 DUP3 DUP3 PUSH2 0x1E6F JUMP JUMPDEST POP POP JUMP JUMPDEST PUSH2 0xA7F PUSH2 0x13D2 JUMP JUMPDEST PUSH1 0xD SSTORE JUMP JUMPDEST PUSH1 0x0 PUSH2 0xA8F DUP3 PUSH2 0x155F JUMP JUMPDEST MLOAD SWAP3 SWAP2 POP POP JUMP JUMPDEST PUSH1 0x0 PUSH1 0x1 PUSH1 0x1 PUSH1 0xA0 SHL SUB DUP3 AND PUSH2 0xB02 JUMPI PUSH1 0x40 MLOAD PUSH3 0x461BCD PUSH1 0xE5 SHL DUP2 MSTORE PUSH1 0x20 PUSH1 0x4 DUP3 ADD MSTORE PUSH1 0x2B PUSH1 0x24 DUP3 ADD MSTORE PUSH32 0x455243373231413A2062616C616E636520717565727920666F7220746865207A PUSH1 0x44 DUP3 ADD MSTORE PUSH11 0x65726F2061646472657373 PUSH1 0xA8 SHL PUSH1 0x64 DUP3 ADD MSTORE PUSH1 0x84 ADD PUSH2 0x773 JUMP JUMPDEST POP PUSH1 0x1 PUSH1 0x1 PUSH1 0xA0 SHL SUB AND PUSH1 0x0 SWAP1 DUP2 MSTORE PUSH1 0x4 PUSH1 0x20 MSTORE PUSH1 0x40 SWAP1 KECCAK256 SLOAD PUSH1 0x1 PUSH1 0x1 PUSH1 0x80 SHL SUB AND SWAP1 JUMP JUMPDEST PUSH2 0xB2F PUSH2 0x13D2 JUMP JUMPDEST PUSH2 0xB39 PUSH1 0x0 PUSH2 0x1636 JUMP JUMPDEST JUMP JUMPDEST PUSH2 0xB43 PUSH2 0x13D2 JUMP JUMPDEST PUSH1 0xE DUP1 SLOAD PUSH1 0xFF NOT AND SWAP2 ISZERO ISZERO SWAP2 SWAP1 SWAP2 OR SWAP1 SSTORE JUMP JUMPDEST PUSH2 0xB5E PUSH2 0x13D2 JUMP JUMPDEST PUSH1 0xF SSTORE JUMP JUMPDEST PUSH2 0xB6B PUSH2 0x13D2 JUMP JUMPDEST PUSH1 0x9 SSTORE JUMP JUMPDEST PUSH1 0x60 PUSH1 0x2 DUP1 SLOAD PUSH2 0x685 SWAP1 PUSH2 0x1DBE JUMP JUMPDEST DUP1 PUSH1 0x0 DUP2 GT DUP1 ISZERO PUSH2 0xB92 JUMPI POP PUSH1 0xD SLOAD DUP2 GT ISZERO JUMPDEST PUSH2 0xBD5 JUMPI PUSH1 0x40 MLOAD PUSH3 0x461BCD PUSH1 0xE5 SHL DUP2 MSTORE PUSH1 0x20 PUSH1 0x4 DUP3 ADD MSTORE PUSH1 0x14 PUSH1 0x24 DUP3 ADD MSTORE PUSH20 0x496E76616C6964206D696E7420616D6F756E7421 PUSH1 0x60 SHL PUSH1 0x44 DUP3 ADD MSTORE PUSH1 0x64 ADD PUSH2 0x773 JUMP JUMPDEST PUSH1 0xA SLOAD DUP2 PUSH1 0x0 SLOAD PUSH2 0xBE6 SWAP2 SWAP1 PUSH2 0x1E0E JUMP JUMPDEST GT ISZERO PUSH2 0xC2B JUMPI PUSH1 0x40 MLOAD PUSH3 0x461BCD PUSH1 0xE5 SHL DUP2 MSTORE PUSH1 0x20 PUSH1 0x4 DUP3 ADD MSTORE PUSH1 0x14 PUSH1 0x24 DUP3 ADD MSTORE PUSH20 0x4D617820737570706C7920657863656564656421 PUSH1 0x60 SHL PUSH1 0x44 DUP3 ADD MSTORE PUSH1 0x64 ADD PUSH2 0x773 JUMP JUMPDEST PUSH1 0xE SLOAD PUSH1 0xFF AND PUSH2 0xC73 JUMPI PUSH1 0x40 MLOAD PUSH3 0x461BCD PUSH1 0xE5 SHL DUP2 MSTORE PUSH1 0x20 PUSH1 0x4 DUP3 ADD MSTORE PUSH1 0x13 PUSH1 0x24 DUP3 ADD MSTORE PUSH19 0x53616C65206973206E6F742061637469766521 PUSH1 0x68 SHL PUSH1 0x44 DUP3 ADD MSTORE PUSH1 0x64 ADD PUSH2 0x773 JUMP JUMPDEST PUSH1 0x0 DUP3 PUSH1 0x9 SLOAD PUSH2 0xC83 SWAP2 SWAP1 PUSH2 0x1F2F JUMP JUMPDEST SWAP1 POP PUSH1 0xF SLOAD PUSH1 0x0 SLOAD LT ISZERO PUSH2 0xD0A JUMPI CALLER PUSH1 0x0 SWAP1 DUP2 MSTORE PUSH1 0x11 PUSH1 0x20 MSTORE PUSH1 0x40 DUP2 KECCAK256 SLOAD PUSH1 0xC SLOAD PUSH2 0xCAE SWAP2 SWAP1 PUSH2 0x1F46 JUMP JUMPDEST SWAP1 POP DUP1 ISZERO PUSH2 0xD08 JUMPI DUP1 DUP5 LT PUSH2 0xCE5 JUMPI PUSH1 0x9 SLOAD PUSH2 0xCCA SWAP1 DUP3 PUSH2 0x1F2F JUMP JUMPDEST PUSH2 0xCD4 SWAP1 DUP4 PUSH2 0x1F46 JUMP JUMPDEST SWAP2 POP PUSH2 0xCE0 CALLER DUP3 PUSH2 0x1688 JUMP JUMPDEST PUSH2 0xD08 JUMP JUMPDEST PUSH1 0x9 SLOAD PUSH2 0xCF2 SWAP1 DUP6 PUSH2 0x1F2F JUMP JUMPDEST PUSH2 0xCFC SWAP1 DUP4 PUSH2 0x1F46 JUMP JUMPDEST SWAP2 POP PUSH2 0xD08 CALLER DUP6 PUSH2 0x1688 JUMP JUMPDEST POP JUMPDEST DUP1 CALLVALUE LT ISZERO PUSH2 0xD50 JUMPI PUSH1 0x40 MLOAD PUSH3 0x461BCD PUSH1 0xE5 SHL DUP2 MSTORE PUSH1 0x20 PUSH1 0x4 DUP3 ADD MSTORE PUSH1 0x13 PUSH1 0x24 DUP3 ADD MSTORE PUSH19 0x496E73756666696369656E742066756E647321 PUSH1 0x68 SHL PUSH1 0x44 DUP3 ADD MSTORE PUSH1 0x64 ADD PUSH2 0x773 JUMP JUMPDEST PUSH2 0x8AA CALLER DUP5 PUSH2 0x1545 JUMP JUMPDEST CALLER PUSH1 0x1 PUSH1 0x1 PUSH1 0xA0 SHL SUB DUP4 AND SUB PUSH2 0xDB2 JUMPI PUSH1 0x40 MLOAD PUSH3 0x461BCD PUSH1 0xE5 SHL DUP2 MSTORE PUSH1 0x20 PUSH1 0x4 DUP3 ADD MSTORE PUSH1 0x1A PUSH1 0x24 DUP3 ADD MSTORE PUSH32 0x455243373231413A20617070726F766520746F2063616C6C6572000000000000 PUSH1 0x44 DUP3 ADD MSTORE PUSH1 0x64 ADD PUSH2 0x773 JUMP JUMPDEST CALLER PUSH1 0x0 DUP2 DUP2 MSTORE PUSH1 0x6 PUSH1 0x20 SWAP1 DUP2 MSTORE PUSH1 0x40 DUP1 DUP4 KECCAK256 PUSH1 0x1 PUSH1 0x1 PUSH1 0xA0 SHL SUB DUP8 AND DUP1 DUP6 MSTORE SWAP1 DUP4 MSTORE SWAP3 DUP2 SWAP1 KECCAK256 DUP1 SLOAD PUSH1 0xFF NOT AND DUP7 ISZERO ISZERO SWAP1 DUP2 OR SWAP1 SWAP2 SSTORE SWAP1 MLOAD SWAP1 DUP2 MSTORE SWAP2 SWAP3 SWAP2 PUSH32 0x17307EAB39AB6107E8899845AD3D59BD9653F200F220920489CA2B5937696C31 SWAP2 ADD PUSH1 0x40 MLOAD DUP1 SWAP2 SUB SWAP1 LOG3 POP POP JUMP JUMPDEST PUSH2 0xE26 PUSH2 0x13D2 JUMP JUMPDEST PUSH1 0xC SSTORE JUMP JUMPDEST PUSH2 0xE36 DUP5 DUP5 DUP5 PUSH2 0x10ED JUMP JUMPDEST PUSH2 0xE42 DUP5 DUP5 DUP5 DUP5 PUSH2 0x16B9 JUMP JUMPDEST PUSH2 0xE5E JUMPI PUSH1 0x40 MLOAD PUSH3 0x461BCD PUSH1 0xE5 SHL DUP2 MSTORE PUSH1 0x4 ADD PUSH2 0x773 SWAP1 PUSH2 0x1F59 JUMP JUMPDEST POP POP POP POP JUMP JUMPDEST PUSH2 0xE6C PUSH2 0x13D2 JUMP JUMPDEST PUSH1 0xA SLOAD DUP2 LT PUSH2 0xEB6 JUMPI PUSH1 0x40 MLOAD PUSH3 0x461BCD PUSH1 0xE5 SHL DUP2 MSTORE PUSH1 0x20 PUSH1 0x4 DUP3 ADD MSTORE PUSH1 0x16 PUSH1 0x24 DUP3 ADD MSTORE PUSH22 0x496E76616C6964206E6577206D617820737570706C79 PUSH1 0x50 SHL PUSH1 0x44 DUP3 ADD MSTORE PUSH1 0x64 ADD PUSH2 0x773 JUMP JUMPDEST PUSH1 0x0 SLOAD DUP2 LT ISZERO PUSH2 0xF01 JUMPI PUSH1 0x40 MLOAD PUSH3 0x461BCD PUSH1 0xE5 SHL DUP2 MSTORE PUSH1 0x20 PUSH1 0x4 DUP3 ADD MSTORE PUSH1 0x16 PUSH1 0x24 DUP3 ADD MSTORE PUSH22 0x496E76616C6964206E6577206D617820737570706C79 PUSH1 0x50 SHL PUSH1 0x44 DUP3 ADD MSTORE PUSH1 0x64 ADD PUSH2 0x773 JUMP JUMPDEST PUSH1 0xA SSTORE JUMP JUMPDEST PUSH1 0x60 PUSH2 0xF13 DUP3 PUSH1 0x0 SLOAD GT SWAP1 JUMP JUMPDEST PUSH2 0xF77 JUMPI PUSH1 0x40 MLOAD PUSH3 0x461BCD PUSH1 0xE5 SHL DUP2 MSTORE PUSH1 0x20 PUSH1 0x4 DUP3 ADD MSTORE PUSH1 0x2F PUSH1 0x24 DUP3 ADD MSTORE PUSH32 0x4552433732314D657461646174613A2055524920717565727920666F72206E6F PUSH1 0x44 DUP3 ADD MSTORE PUSH15 0x3732BC34B9BA32B73A103A37B5B2B7 PUSH1 0x89 SHL PUSH1 0x64 DUP3 ADD MSTORE PUSH1 0x84 ADD PUSH2 0x773 JUMP JUMPDEST PUSH1 0x0 PUSH2 0xF81 PUSH2 0x17BB JUMP JUMPDEST SWAP1 POP DUP1 MLOAD PUSH1 0x0 SUB PUSH2 0xFA1 JUMPI PUSH1 0x40 MLOAD DUP1 PUSH1 0x20 ADD PUSH1 0x40 MSTORE DUP1 PUSH1 0x0 DUP2 MSTORE POP PUSH2 0xFCC JUMP JUMPDEST DUP1 PUSH2 0xFAB DUP5 PUSH2 0x17CA JUMP JUMPDEST PUSH1 0x40 MLOAD PUSH1 0x20 ADD PUSH2 0xFBC SWAP3 SWAP2 SWAP1 PUSH2 0x1FAC JUMP JUMPDEST PUSH1 0x40 MLOAD PUSH1 0x20 DUP2 DUP4 SUB SUB DUP2 MSTORE SWAP1 PUSH1 0x40 MSTORE JUMPDEST SWAP4 SWAP3 POP POP POP JUMP JUMPDEST PUSH2 0xFDB PUSH2 0x13D2 JUMP JUMPDEST PUSH1 0x10 DUP1 SLOAD PUSH1 0xFF NOT AND PUSH1 0x1 OR SWAP1 SSTORE JUMP JUMPDEST PUSH1 0x1 PUSH1 0x1 PUSH1 0xA0 SHL SUB SWAP2 DUP3 AND PUSH1 0x0 SWAP1 DUP2 MSTORE PUSH1 0x6 PUSH1 0x20 SWAP1 DUP2 MSTORE PUSH1 0x40 DUP1 DUP4 KECCAK256 SWAP4 SWAP1 SWAP5 AND DUP3 MSTORE SWAP2 SWAP1 SWAP2 MSTORE KECCAK256 SLOAD PUSH1 0xFF AND SWAP1 JUMP JUMPDEST PUSH2 0x1020 PUSH2 0x13D2 JUMP JUMPDEST PUSH1 0x1 PUSH1 0x1 PUSH1 0xA0 SHL SUB DUP2 AND PUSH2 0x1085 JUMPI PUSH1 0x40 MLOAD PUSH3 0x461BCD PUSH1 0xE5 SHL DUP2 MSTORE PUSH1 0x20 PUSH1 0x4 DUP3 ADD MSTORE PUSH1 0x26 PUSH1 0x24 DUP3 ADD MSTORE PUSH32 0x4F776E61626C653A206E6577206F776E657220697320746865207A65726F2061 PUSH1 0x44 DUP3 ADD MSTORE PUSH6 0x646472657373 PUSH1 0xD0 SHL PUSH1 0x64 DUP3 ADD MSTORE PUSH1 0x84 ADD PUSH2 0x773 JUMP JUMPDEST PUSH2 0x108E DUP2 PUSH2 0x1636 JUMP JUMPDEST POP JUMP JUMPDEST PUSH1 0x0 DUP3 DUP2 MSTORE PUSH1 0x5 PUSH1 0x20 MSTORE PUSH1 0x40 DUP1 DUP3 KECCAK256 DUP1 SLOAD PUSH1 0x1 PUSH1 0x1 PUSH1 0xA0 SHL SUB NOT AND PUSH1 0x1 PUSH1 0x1 PUSH1 0xA0 SHL SUB DUP8 DUP2 AND SWAP2 DUP3 OR SWAP1 SWAP3 SSTORE SWAP2 MLOAD DUP6 SWAP4 SWAP2 DUP6 AND SWAP2 PUSH32 0x8C5BE1E5EBEC7D5BD14F71427D1E84F3DD0314C0F7B2291E5B200AC8C7C3B925 SWAP2 LOG4 POP POP POP JUMP JUMPDEST PUSH1 0x0 PUSH2 0x10F8 DUP3 PUSH2 0x155F JUMP JUMPDEST DUP1 MLOAD SWAP1 SWAP2 POP PUSH1 0x0 SWAP1 PUSH1 0x1 PUSH1 0x1 PUSH1 0xA0 SHL SUB AND CALLER PUSH1 0x1 PUSH1 0x1 PUSH1 0xA0 SHL SUB AND EQ DUP1 PUSH2 0x112F JUMPI POP CALLER PUSH2 0x1124 DUP5 PUSH2 0x708 JUMP JUMPDEST PUSH1 0x1 PUSH1 0x1 PUSH1 0xA0 SHL SUB AND EQ JUMPDEST DUP1 PUSH2 0x1141 JUMPI POP DUP2 MLOAD PUSH2 0x1141 SWAP1 CALLER PUSH2 0xFEA JUMP JUMPDEST SWAP1 POP DUP1 PUSH2 0x11AB JUMPI PUSH1 0x40 MLOAD PUSH3 0x461BCD PUSH1 0xE5 SHL DUP2 MSTORE PUSH1 0x20 PUSH1 0x4 DUP3 ADD MSTORE PUSH1 0x32 PUSH1 0x24 DUP3 ADD MSTORE PUSH32 0x455243373231413A207472616E736665722063616C6C6572206973206E6F7420 PUSH1 0x44 DUP3 ADD MSTORE PUSH18 0x1BDDDB995C881B9BDC88185C1C1C9BDD9959 PUSH1 0x72 SHL PUSH1 0x64 DUP3 ADD MSTORE PUSH1 0x84 ADD PUSH2 0x773 JUMP JUMPDEST DUP5 PUSH1 0x1 PUSH1 0x1 PUSH1 0xA0 SHL SUB AND DUP3 PUSH1 0x0 ADD MLOAD PUSH1 0x1 PUSH1 0x1 PUSH1 0xA0 SHL SUB AND EQ PUSH2 0x121F JUMPI PUSH1 0x40 MLOAD PUSH3 0x461BCD PUSH1 0xE5 SHL DUP2 MSTORE PUSH1 0x20 PUSH1 0x4 DUP3 ADD MSTORE PUSH1 0x26 PUSH1 0x24 DUP3 ADD MSTORE PUSH32 0x455243373231413A207472616E736665722066726F6D20696E636F7272656374 PUSH1 0x44 DUP3 ADD MSTORE PUSH6 0x1037BBB732B9 PUSH1 0xD1 SHL PUSH1 0x64 DUP3 ADD MSTORE PUSH1 0x84 ADD PUSH2 0x773 JUMP JUMPDEST PUSH1 0x1 PUSH1 0x1 PUSH1 0xA0 SHL SUB DUP5 AND PUSH2 0x1283 JUMPI PUSH1 0x40 MLOAD PUSH3 0x461BCD PUSH1 0xE5 SHL DUP2 MSTORE PUSH1 0x20 PUSH1 0x4 DUP3 ADD MSTORE PUSH1 0x25 PUSH1 0x24 DUP3 ADD MSTORE PUSH32 0x455243373231413A207472616E7366657220746F20746865207A65726F206164 PUSH1 0x44 DUP3 ADD MSTORE PUSH5 0x6472657373 PUSH1 0xD8 SHL PUSH1 0x64 DUP3 ADD MSTORE PUSH1 0x84 ADD PUSH2 0x773 JUMP JUMPDEST PUSH2 0x1293 PUSH1 0x0 DUP5 DUP5 PUSH1 0x0 ADD MLOAD PUSH2 0x1091 JUMP JUMPDEST PUSH1 0x1 PUSH1 0x1 PUSH1 0xA0 SHL SUB DUP6 DUP2 AND PUSH1 0x0 SWAP1 DUP2 MSTORE PUSH1 0x4 PUSH1 0x20 SWAP1 DUP2 MSTORE PUSH1 0x40 DUP1 DUP4 KECCAK256 DUP1 SLOAD PUSH1 0x1 PUSH1 0x1 PUSH1 0x80 SHL SUB NOT DUP1 DUP3 AND PUSH1 0x1 PUSH1 0x1 PUSH1 0x80 SHL SUB SWAP3 DUP4 AND PUSH1 0x0 NOT ADD DUP4 AND OR SWAP1 SWAP3 SSTORE DUP10 DUP7 AND DUP1 DUP7 MSTORE DUP4 DUP7 KECCAK256 DUP1 SLOAD SWAP4 DUP5 AND SWAP4 DUP4 AND PUSH1 0x1 SWAP1 DUP2 ADD SWAP1 SWAP4 AND SWAP4 SWAP1 SWAP4 OR SWAP1 SWAP3 SSTORE DUP9 DUP6 MSTORE PUSH1 0x3 SWAP1 SWAP4 MSTORE DUP2 DUP5 KECCAK256 DUP1 SLOAD PUSH1 0x1 PUSH1 0x1 PUSH1 0xE0 SHL SUB NOT AND SWAP1 SWAP2 OR PUSH1 0x1 PUSH1 0xA0 SHL TIMESTAMP PUSH8 0xFFFFFFFFFFFFFFFF AND MUL OR SWAP1 SSTORE SWAP1 DUP7 ADD DUP1 DUP4 MSTORE SWAP2 KECCAK256 SLOAD SWAP1 SWAP2 AND PUSH2 0x1388 JUMPI PUSH2 0x133B DUP2 PUSH1 0x0 SLOAD GT SWAP1 JUMP JUMPDEST ISZERO PUSH2 0x1388 JUMPI DUP3 MLOAD PUSH1 0x0 DUP3 DUP2 MSTORE PUSH1 0x3 PUSH1 0x20 SWAP1 DUP2 MSTORE PUSH1 0x40 SWAP1 SWAP2 KECCAK256 DUP1 SLOAD SWAP2 DUP7 ADD MLOAD PUSH8 0xFFFFFFFFFFFFFFFF AND PUSH1 0x1 PUSH1 0xA0 SHL MUL PUSH1 0x1 PUSH1 0x1 PUSH1 0xE0 SHL SUB NOT SWAP1 SWAP3 AND PUSH1 0x1 PUSH1 0x1 PUSH1 0xA0 SHL SUB SWAP1 SWAP4 AND SWAP3 SWAP1 SWAP3 OR OR SWAP1 SSTORE JUMPDEST POP DUP3 DUP5 PUSH1 0x1 PUSH1 0x1 PUSH1 0xA0 SHL SUB AND DUP7 PUSH1 0x1 PUSH1 0x1 PUSH1 0xA0 SHL SUB AND PUSH32 0xDDF252AD1BE2C89B69C2B068FC378DAA952BA7F163C4A11628F55A4DF523B3EF PUSH1 0x40 MLOAD PUSH1 0x40 MLOAD DUP1 SWAP2 SUB SWAP1 LOG4 JUMPDEST POP POP POP POP POP JUMP JUMPDEST PUSH1 0x7 SLOAD PUSH1 0x1 PUSH1 0x1 PUSH1 0xA0 SHL SUB AND CALLER EQ PUSH2 0xB39 JUMPI PUSH1 0x40 MLOAD PUSH3 0x461BCD PUSH1 0xE5 SHL DUP2 MSTORE PUSH1 0x20 PUSH1 0x4 DUP3 ADD DUP2 SWAP1 MSTORE PUSH1 0x24 DUP3 ADD MSTORE PUSH32 0x4F776E61626C653A2063616C6C6572206973206E6F7420746865206F776E6572 PUSH1 0x44 DUP3 ADD MSTORE PUSH1 0x64 ADD PUSH2 0x773 JUMP JUMPDEST DUP1 SELFBALANCE LT ISZERO PUSH2 0x147C JUMPI PUSH1 0x40 MLOAD PUSH3 0x461BCD PUSH1 0xE5 SHL DUP2 MSTORE PUSH1 0x20 PUSH1 0x4 DUP3 ADD MSTORE PUSH1 0x1D PUSH1 0x24 DUP3 ADD MSTORE PUSH32 0x416464726573733A20696E73756666696369656E742062616C616E6365000000 PUSH1 0x44 DUP3 ADD MSTORE PUSH1 0x64 ADD PUSH2 0x773 JUMP JUMPDEST PUSH1 0x0 DUP3 PUSH1 0x1 PUSH1 0x1 PUSH1 0xA0 SHL SUB AND DUP3 PUSH1 0x40 MLOAD PUSH1 0x0 PUSH1 0x40 MLOAD DUP1 DUP4 SUB DUP2 DUP6 DUP8 GAS CALL SWAP3 POP POP POP RETURNDATASIZE DUP1 PUSH1 0x0 DUP2 EQ PUSH2 0x14C9 JUMPI PUSH1 0x40 MLOAD SWAP2 POP PUSH1 0x1F NOT PUSH1 0x3F RETURNDATASIZE ADD AND DUP3 ADD PUSH1 0x40 MSTORE RETURNDATASIZE DUP3 MSTORE RETURNDATASIZE PUSH1 0x0 PUSH1 0x20 DUP5 ADD RETURNDATACOPY PUSH2 0x14CE JUMP JUMPDEST PUSH1 0x60 SWAP2 POP JUMPDEST POP POP SWAP1 POP DUP1 PUSH2 0x8AA JUMPI PUSH1 0x40 MLOAD PUSH3 0x461BCD PUSH1 0xE5 SHL DUP2 MSTORE PUSH1 0x20 PUSH1 0x4 DUP3 ADD MSTORE PUSH1 0x3A PUSH1 0x24 DUP3 ADD MSTORE PUSH32 0x416464726573733A20756E61626C6520746F2073656E642076616C75652C2072 PUSH1 0x44 DUP3 ADD MSTORE PUSH32 0x6563697069656E74206D61792068617665207265766572746564000000000000 PUSH1 0x64 DUP3 ADD MSTORE PUSH1 0x84 ADD PUSH2 0x773 JUMP JUMPDEST PUSH2 0xA73 DUP3 DUP3 PUSH1 0x40 MLOAD DUP1 PUSH1 0x20 ADD PUSH1 0x40 MSTORE DUP1 PUSH1 0x0 DUP2 MSTORE POP PUSH2 0x18CB JUMP JUMPDEST PUSH1 0x40 DUP1 MLOAD DUP1 DUP3 ADD SWAP1 SWAP2 MSTORE PUSH1 0x0 DUP1 DUP3 MSTORE PUSH1 0x20 DUP3 ADD MSTORE PUSH2 0x157E DUP3 PUSH1 0x0 SLOAD GT SWAP1 JUMP JUMPDEST PUSH2 0x15DD JUMPI PUSH1 0x40 MLOAD PUSH3 0x461BCD PUSH1 0xE5 SHL DUP2 MSTORE PUSH1 0x20 PUSH1 0x4 DUP3 ADD MSTORE PUSH1 0x2A PUSH1 0x24 DUP3 ADD MSTORE PUSH32 0x455243373231413A206F776E657220717565727920666F72206E6F6E65786973 PUSH1 0x44 DUP3 ADD MSTORE PUSH10 0x3A32B73A103A37B5B2B7 PUSH1 0xB1 SHL PUSH1 0x64 DUP3 ADD MSTORE PUSH1 0x84 ADD PUSH2 0x773 JUMP JUMPDEST DUP2 JUMPDEST PUSH1 0x0 DUP2 DUP2 MSTORE PUSH1 0x3 PUSH1 0x20 SWAP1 DUP2 MSTORE PUSH1 0x40 SWAP2 DUP3 SWAP1 KECCAK256 DUP3 MLOAD DUP1 DUP5 ADD SWAP1 SWAP4 MSTORE SLOAD PUSH1 0x1 PUSH1 0x1 PUSH1 0xA0 SHL SUB DUP2 AND DUP1 DUP5 MSTORE PUSH1 0x1 PUSH1 0xA0 SHL SWAP1 SWAP2 DIV PUSH8 0xFFFFFFFFFFFFFFFF AND SWAP2 DUP4 ADD SWAP2 SWAP1 SWAP2 MSTORE ISZERO PUSH2 0x162C JUMPI SWAP4 SWAP3 POP POP POP JUMP JUMPDEST POP PUSH1 0x0 NOT ADD PUSH2 0x15DF JUMP JUMPDEST PUSH1 0x7 DUP1 SLOAD PUSH1 0x1 PUSH1 0x1 PUSH1 0xA0 SHL SUB DUP4 DUP2 AND PUSH1 0x1 PUSH1 0x1 PUSH1 0xA0 SHL SUB NOT DUP4 AND DUP2 OR SWAP1 SWAP4 SSTORE PUSH1 0x40 MLOAD SWAP2 AND SWAP2 SWAP1 DUP3 SWAP1 PUSH32 0x8BE0079C531659141344CD1FD0A4F28419497F9722A3DAAFE3B4186F6B6457E0 SWAP1 PUSH1 0x0 SWAP1 LOG3 POP POP JUMP JUMPDEST PUSH1 0x1 PUSH1 0x1 PUSH1 0xA0 SHL SUB DUP3 AND PUSH1 0x0 SWAP1 DUP2 MSTORE PUSH1 0x11 PUSH1 0x20 MSTORE PUSH1 0x40 DUP2 KECCAK256 DUP1 SLOAD DUP4 SWAP3 SWAP1 PUSH2 0x16B0 SWAP1 DUP5 SWAP1 PUSH2 0x1E0E JUMP JUMPDEST SWAP1 SWAP2 SSTORE POP POP POP POP JUMP JUMPDEST PUSH1 0x0 PUSH1 0x1 PUSH1 0x1 PUSH1 0xA0 SHL SUB DUP5 AND EXTCODESIZE ISZERO PUSH2 0x17AF JUMPI PUSH1 0x40 MLOAD PUSH4 0xA85BD01 PUSH1 0xE1 SHL DUP2 MSTORE PUSH1 0x1 PUSH1 0x1 PUSH1 0xA0 SHL SUB DUP6 AND SWAP1 PUSH4 0x150B7A02 SWAP1 PUSH2 0x16FD SWAP1 CALLER SWAP1 DUP10 SWAP1 DUP9 SWAP1 DUP9 SWAP1 PUSH1 0x4 ADD PUSH2 0x1FDB JUMP JUMPDEST PUSH1 0x20 PUSH1 0x40 MLOAD DUP1 DUP4 SUB DUP2 PUSH1 0x0 DUP8 GAS CALL SWAP3 POP POP POP DUP1 ISZERO PUSH2 0x1738 JUMPI POP PUSH1 0x40 DUP1 MLOAD PUSH1 0x1F RETURNDATASIZE SWAP1 DUP2 ADD PUSH1 0x1F NOT AND DUP3 ADD SWAP1 SWAP3 MSTORE PUSH2 0x1735 SWAP2 DUP2 ADD SWAP1 PUSH2 0x2018 JUMP JUMPDEST PUSH1 0x1 JUMPDEST PUSH2 0x1795 JUMPI RETURNDATASIZE DUP1 DUP1 ISZERO PUSH2 0x1766 JUMPI PUSH1 0x40 MLOAD SWAP2 POP PUSH1 0x1F NOT PUSH1 0x3F RETURNDATASIZE ADD AND DUP3 ADD PUSH1 0x40 MSTORE RETURNDATASIZE DUP3 MSTORE RETURNDATASIZE PUSH1 0x0 PUSH1 0x20 DUP5 ADD RETURNDATACOPY PUSH2 0x176B JUMP JUMPDEST PUSH1 0x60 SWAP2 POP JUMPDEST POP DUP1 MLOAD PUSH1 0x0 SUB PUSH2 0x178D JUMPI PUSH1 0x40 MLOAD PUSH3 0x461BCD PUSH1 0xE5 SHL DUP2 MSTORE PUSH1 0x4 ADD PUSH2 0x773 SWAP1 PUSH2 0x1F59 JUMP JUMPDEST DUP1 MLOAD DUP2 PUSH1 0x20 ADD REVERT JUMPDEST PUSH1 0x1 PUSH1 0x1 PUSH1 0xE0 SHL SUB NOT AND PUSH4 0xA85BD01 PUSH1 0xE1 SHL EQ SWAP1 POP PUSH2 0x17B3 JUMP JUMPDEST POP PUSH1 0x1 JUMPDEST SWAP5 SWAP4 POP POP POP POP JUMP JUMPDEST PUSH1 0x60 PUSH1 0xB DUP1 SLOAD PUSH2 0x685 SWAP1 PUSH2 0x1DBE JUMP JUMPDEST PUSH1 0x60 DUP2 PUSH1 0x0 SUB PUSH2 0x17F1 JUMPI POP POP PUSH1 0x40 DUP1 MLOAD DUP1 DUP3 ADD SWAP1 SWAP2 MSTORE PUSH1 0x1 DUP2 MSTORE PUSH1 0x3 PUSH1 0xFC SHL PUSH1 0x20 DUP3 ADD MSTORE SWAP1 JUMP JUMPDEST DUP2 PUSH1 0x0 JUMPDEST DUP2 ISZERO PUSH2 0x181B JUMPI DUP1 PUSH2 0x1805 DUP2 PUSH2 0x2035 JUMP JUMPDEST SWAP2 POP PUSH2 0x1814 SWAP1 POP PUSH1 0xA DUP4 PUSH2 0x2064 JUMP JUMPDEST SWAP2 POP PUSH2 0x17F5 JUMP JUMPDEST PUSH1 0x0 DUP2 PUSH8 0xFFFFFFFFFFFFFFFF DUP2 GT ISZERO PUSH2 0x1836 JUMPI PUSH2 0x1836 PUSH2 0x1BCA JUMP JUMPDEST PUSH1 0x40 MLOAD SWAP1 DUP1 DUP3 MSTORE DUP1 PUSH1 0x1F ADD PUSH1 0x1F NOT AND PUSH1 0x20 ADD DUP3 ADD PUSH1 0x40 MSTORE DUP1 ISZERO PUSH2 0x1860 JUMPI PUSH1 0x20 DUP3 ADD DUP2 DUP1 CALLDATASIZE DUP4 CALLDATACOPY ADD SWAP1 POP JUMPDEST POP SWAP1 POP JUMPDEST DUP5 ISZERO PUSH2 0x17B3 JUMPI PUSH2 0x1875 PUSH1 0x1 DUP4 PUSH2 0x1F46 JUMP JUMPDEST SWAP2 POP PUSH2 0x1882 PUSH1 0xA DUP7 PUSH2 0x2078 JUMP JUMPDEST PUSH2 0x188D SWAP1 PUSH1 0x30 PUSH2 0x1E0E JUMP JUMPDEST PUSH1 0xF8 SHL DUP2 DUP4 DUP2 MLOAD DUP2 LT PUSH2 0x18A2 JUMPI PUSH2 0x18A2 PUSH2 0x208C JUMP JUMPDEST PUSH1 0x20 ADD ADD SWAP1 PUSH1 0x1 PUSH1 0x1 PUSH1 0xF8 SHL SUB NOT AND SWAP1 DUP2 PUSH1 0x0 BYTE SWAP1 MSTORE8 POP PUSH2 0x18C4 PUSH1 0xA DUP7 PUSH2 0x2064 JUMP JUMPDEST SWAP5 POP PUSH2 0x1864 JUMP JUMPDEST PUSH2 0x8AA DUP4 DUP4 DUP4 PUSH1 0x1 PUSH1 0x0 SLOAD PUSH1 0x1 PUSH1 0x1 PUSH1 0xA0 SHL SUB DUP6 AND PUSH2 0x1936 JUMPI PUSH1 0x40 MLOAD PUSH3 0x461BCD PUSH1 0xE5 SHL DUP2 MSTORE PUSH1 0x20 PUSH1 0x4 DUP3 ADD MSTORE PUSH1 0x21 PUSH1 0x24 DUP3 ADD MSTORE PUSH32 0x455243373231413A206D696E7420746F20746865207A65726F20616464726573 PUSH1 0x44 DUP3 ADD MSTORE PUSH1 0x73 PUSH1 0xF8 SHL PUSH1 0x64 DUP3 ADD MSTORE PUSH1 0x84 ADD PUSH2 0x773 JUMP JUMPDEST DUP4 PUSH1 0x0 SUB PUSH2 0x1997 JUMPI PUSH1 0x40 MLOAD PUSH3 0x461BCD PUSH1 0xE5 SHL DUP2 MSTORE PUSH1 0x20 PUSH1 0x4 DUP3 ADD MSTORE PUSH1 0x28 PUSH1 0x24 DUP3 ADD MSTORE PUSH32 0x455243373231413A207175616E74697479206D75737420626520677265617465 PUSH1 0x44 DUP3 ADD MSTORE PUSH8 0x72207468616E203 PUSH1 0xC4 SHL PUSH1 0x64 DUP3 ADD MSTORE PUSH1 0x84 ADD PUSH2 0x773 JUMP JUMPDEST PUSH1 0x1 PUSH1 0x1 PUSH1 0xA0 SHL SUB DUP6 AND PUSH1 0x0 DUP2 DUP2 MSTORE PUSH1 0x4 PUSH1 0x20 SWAP1 DUP2 MSTORE PUSH1 0x40 DUP1 DUP4 KECCAK256 DUP1 SLOAD PUSH1 0x1 PUSH1 0x80 SHL PUSH1 0x1 PUSH1 0x1 PUSH1 0x80 SHL SUB NOT DUP3 AND PUSH1 0x1 PUSH1 0x1 PUSH1 0x80 SHL SUB SWAP3 DUP4 AND DUP13 ADD DUP4 AND SWAP1 DUP2 OR DUP3 SWAP1 DIV DUP4 AND DUP13 ADD SWAP1 SWAP3 AND MUL OR SWAP1 SSTORE DUP5 DUP4 MSTORE PUSH1 0x3 SWAP1 SWAP2 MSTORE DUP2 KECCAK256 DUP1 SLOAD PUSH1 0x1 PUSH1 0x1 PUSH1 0xE0 SHL SUB NOT AND SWAP1 SWAP3 OR PUSH1 0x1 PUSH1 0xA0 SHL TIMESTAMP PUSH8 0xFFFFFFFFFFFFFFFF AND MUL OR SWAP1 SWAP2 SSTORE DUP2 SWAP1 JUMPDEST DUP6 DUP2 LT ISZERO PUSH2 0x1A90 JUMPI PUSH1 0x40 MLOAD DUP3 SWAP1 PUSH1 0x1 PUSH1 0x1 PUSH1 0xA0 SHL SUB DUP10 AND SWAP1 PUSH1 0x0 SWAP1 PUSH32 0xDDF252AD1BE2C89B69C2B068FC378DAA952BA7F163C4A11628F55A4DF523B3EF SWAP1 DUP3 SWAP1 LOG4 DUP4 ISZERO PUSH2 0x1A84 JUMPI PUSH2 0x1A68 PUSH1 0x0 DUP9 DUP5 DUP9 PUSH2 0x16B9 JUMP JUMPDEST PUSH2 0x1A84 JUMPI PUSH1 0x40 MLOAD PUSH3 0x461BCD PUSH1 0xE5 SHL DUP2 MSTORE PUSH1 0x4 ADD PUSH2 0x773 SWAP1 PUSH2 0x1F59 JUMP JUMPDEST PUSH1 0x1 SWAP2 DUP3 ADD SWAP2 ADD PUSH2 0x1A15 JUMP JUMPDEST POP PUSH1 0x0 SSTORE PUSH2 0x13CB JUMP JUMPDEST PUSH1 0x1 PUSH1 0x1 PUSH1 0xE0 SHL SUB NOT DUP2 AND DUP2 EQ PUSH2 0x108E JUMPI PUSH1 0x0 DUP1 REVERT JUMPDEST PUSH1 0x0 PUSH1 0x20 DUP3 DUP5 SUB SLT ISZERO PUSH2 0x1AC1 JUMPI PUSH1 0x0 DUP1 REVERT JUMPDEST DUP2 CALLDATALOAD PUSH2 0xFCC DUP2 PUSH2 0x1A99 JUMP JUMPDEST PUSH1 0x0 JUMPDEST DUP4 DUP2 LT ISZERO PUSH2 0x1AE7 JUMPI DUP2 DUP2 ADD MLOAD DUP4 DUP3 ADD MSTORE PUSH1 0x20 ADD PUSH2 0x1ACF JUMP JUMPDEST POP POP PUSH1 0x0 SWAP2 ADD MSTORE JUMP JUMPDEST PUSH1 0x0 DUP2 MLOAD DUP1 DUP5 MSTORE PUSH2 0x1B08 DUP2 PUSH1 0x20 DUP7 ADD PUSH1 0x20 DUP7 ADD PUSH2 0x1ACC JUMP JUMPDEST PUSH1 0x1F ADD PUSH1 0x1F NOT AND SWAP3 SWAP1 SWAP3 ADD PUSH1 0x20 ADD SWAP3 SWAP2 POP POP JUMP JUMPDEST PUSH1 0x20 DUP2 MSTORE PUSH1 0x0 PUSH2 0xFCC PUSH1 0x20 DUP4 ADD DUP5 PUSH2 0x1AF0 JUMP JUMPDEST PUSH1 0x0 PUSH1 0x20 DUP3 DUP5 SUB SLT ISZERO PUSH2 0x1B41 JUMPI PUSH1 0x0 DUP1 REVERT JUMPDEST POP CALLDATALOAD SWAP2 SWAP1 POP JUMP JUMPDEST DUP1 CALLDATALOAD PUSH1 0x1 PUSH1 0x1 PUSH1 0xA0 SHL SUB DUP2 AND DUP2 EQ PUSH2 0x1B5F JUMPI PUSH1 0x0 DUP1 REVERT JUMPDEST SWAP2 SWAP1 POP JUMP JUMPDEST PUSH1 0x0 DUP1 PUSH1 0x40 DUP4 DUP6 SUB SLT ISZERO PUSH2 0x1B77 JUMPI PUSH1 0x0 DUP1 REVERT JUMPDEST PUSH2 0x1B80 DUP4 PUSH2 0x1B48 JUMP JUMPDEST SWAP5 PUSH1 0x20 SWAP4 SWAP1 SWAP4 ADD CALLDATALOAD SWAP4 POP POP POP JUMP JUMPDEST PUSH1 0x0 DUP1 PUSH1 0x0 PUSH1 0x60 DUP5 DUP7 SUB SLT ISZERO PUSH2 0x1BA3 JUMPI PUSH1 0x0 DUP1 REVERT JUMPDEST PUSH2 0x1BAC DUP5 PUSH2 0x1B48 JUMP JUMPDEST SWAP3 POP PUSH2 0x1BBA PUSH1 0x20 DUP6 ADD PUSH2 0x1B48 JUMP JUMPDEST SWAP2 POP PUSH1 0x40 DUP5 ADD CALLDATALOAD SWAP1 POP SWAP3 POP SWAP3 POP SWAP3 JUMP JUMPDEST PUSH4 0x4E487B71 PUSH1 0xE0 SHL PUSH1 0x0 MSTORE PUSH1 0x41 PUSH1 0x4 MSTORE PUSH1 0x24 PUSH1 0x0 REVERT JUMPDEST PUSH1 0x0 PUSH8 0xFFFFFFFFFFFFFFFF DUP1 DUP5 GT ISZERO PUSH2 0x1BFB JUMPI PUSH2 0x1BFB PUSH2 0x1BCA JUMP JUMPDEST PUSH1 0x40 MLOAD PUSH1 0x1F DUP6 ADD PUSH1 0x1F NOT SWAP1 DUP2 AND PUSH1 0x3F ADD AND DUP2 ADD SWAP1 DUP3 DUP3 GT DUP2 DUP4 LT OR ISZERO PUSH2 0x1C23 JUMPI PUSH2 0x1C23 PUSH2 0x1BCA JUMP JUMPDEST DUP2 PUSH1 0x40 MSTORE DUP1 SWAP4 POP DUP6 DUP2 MSTORE DUP7 DUP7 DUP7 ADD GT ISZERO PUSH2 0x1C3C JUMPI PUSH1 0x0 DUP1 REVERT JUMPDEST DUP6 DUP6 PUSH1 0x20 DUP4 ADD CALLDATACOPY PUSH1 0x0 PUSH1 0x20 DUP8 DUP4 ADD ADD MSTORE POP POP POP SWAP4 SWAP3 POP POP POP JUMP JUMPDEST PUSH1 0x0 PUSH1 0x20 DUP3 DUP5 SUB SLT ISZERO PUSH2 0x1C68 JUMPI PUSH1 0x0 DUP1 REVERT JUMPDEST DUP2 CALLDATALOAD PUSH8 0xFFFFFFFFFFFFFFFF DUP2 GT ISZERO PUSH2 0x1C7F JUMPI PUSH1 0x0 DUP1 REVERT JUMPDEST DUP3 ADD PUSH1 0x1F DUP2 ADD DUP5 SGT PUSH2 0x1C90 JUMPI PUSH1 0x0 DUP1 REVERT JUMPDEST PUSH2 0x17B3 DUP5 DUP3 CALLDATALOAD PUSH1 0x20 DUP5 ADD PUSH2 0x1BE0 JUMP JUMPDEST PUSH1 0x0 PUSH1 0x20 DUP3 DUP5 SUB SLT ISZERO PUSH2 0x1CB1 JUMPI PUSH1 0x0 DUP1 REVERT JUMPDEST PUSH2 0xFCC DUP3 PUSH2 0x1B48 JUMP JUMPDEST DUP1 CALLDATALOAD DUP1 ISZERO ISZERO DUP2 EQ PUSH2 0x1B5F JUMPI PUSH1 0x0 DUP1 REVERT JUMPDEST PUSH1 0x0 PUSH1 0x20 DUP3 DUP5 SUB SLT ISZERO PUSH2 0x1CDC JUMPI PUSH1 0x0 DUP1 REVERT JUMPDEST PUSH2 0xFCC DUP3 PUSH2 0x1CBA JUMP JUMPDEST PUSH1 0x0 DUP1 PUSH1 0x40 DUP4 DUP6 SUB SLT ISZERO PUSH2 0x1CF8 JUMPI PUSH1 0x0 DUP1 REVERT JUMPDEST PUSH2 0x1D01 DUP4 PUSH2 0x1B48 JUMP JUMPDEST SWAP2 POP PUSH2 0x1D0F PUSH1 0x20 DUP5 ADD PUSH2 0x1CBA JUMP JUMPDEST SWAP1 POP SWAP3 POP SWAP3 SWAP1 POP JUMP JUMPDEST PUSH1 0x0 DUP1 PUSH1 0x0 DUP1 PUSH1 0x80 DUP6 DUP8 SUB SLT ISZERO PUSH2 0x1D2E JUMPI PUSH1 0x0 DUP1 REVERT JUMPDEST PUSH2 0x1D37 DUP6 PUSH2 0x1B48 JUMP JUMPDEST SWAP4 POP PUSH2 0x1D45 PUSH1 0x20 DUP7 ADD PUSH2 0x1B48 JUMP JUMPDEST SWAP3 POP PUSH1 0x40 DUP6 ADD CALLDATALOAD SWAP2 POP PUSH1 0x60 DUP6 ADD CALLDATALOAD PUSH8 0xFFFFFFFFFFFFFFFF DUP2 GT ISZERO PUSH2 0x1D68 JUMPI PUSH1 0x0 DUP1 REVERT JUMPDEST DUP6 ADD PUSH1 0x1F DUP2 ADD DUP8 SGT PUSH2 0x1D79 JUMPI PUSH1 0x0 DUP1 REVERT JUMPDEST PUSH2 0x1D88 DUP8 DUP3 CALLDATALOAD PUSH1 0x20 DUP5 ADD PUSH2 0x1BE0 JUMP JUMPDEST SWAP2 POP POP SWAP3 SWAP6 SWAP2 SWAP5 POP SWAP3 POP JUMP JUMPDEST PUSH1 0x0 DUP1 PUSH1 0x40 DUP4 DUP6 SUB SLT ISZERO PUSH2 0x1DA7 JUMPI PUSH1 0x0 DUP1 REVERT JUMPDEST PUSH2 0x1DB0 DUP4 PUSH2 0x1B48 JUMP JUMPDEST SWAP2 POP PUSH2 0x1D0F PUSH1 0x20 DUP5 ADD PUSH2 0x1B48 JUMP JUMPDEST PUSH1 0x1 DUP2 DUP2 SHR SWAP1 DUP3 AND DUP1 PUSH2 0x1DD2 JUMPI PUSH1 0x7F DUP3 AND SWAP2 POP JUMPDEST PUSH1 0x20 DUP3 LT DUP2 SUB PUSH2 0x1DF2 JUMPI PUSH4 0x4E487B71 PUSH1 0xE0 SHL PUSH1 0x0 MSTORE PUSH1 0x22 PUSH1 0x4 MSTORE PUSH1 0x24 PUSH1 0x0 REVERT JUMPDEST POP SWAP2 SWAP1 POP JUMP JUMPDEST PUSH4 0x4E487B71 PUSH1 0xE0 SHL PUSH1 0x0 MSTORE PUSH1 0x11 PUSH1 0x4 MSTORE PUSH1 0x24 PUSH1 0x0 REVERT JUMPDEST DUP1 DUP3 ADD DUP1 DUP3 GT ISZERO PUSH2 0x670 JUMPI PUSH2 0x670 PUSH2 0x1DF8 JUMP JUMPDEST PUSH1 0x1F DUP3 GT ISZERO PUSH2 0x8AA JUMPI PUSH1 0x0 DUP2 DUP2 MSTORE PUSH1 0x20 DUP2 KECCAK256 PUSH1 0x1F DUP6 ADD PUSH1 0x5 SHR DUP2 ADD PUSH1 0x20 DUP7 LT ISZERO PUSH2 0x1E48 JUMPI POP DUP1 JUMPDEST PUSH1 0x1F DUP6 ADD PUSH1 0x5 SHR DUP3 ADD SWAP2 POP JUMPDEST DUP2 DUP2 LT ISZERO PUSH2 0x1E67 JUMPI DUP3 DUP2 SSTORE PUSH1 0x1 ADD PUSH2 0x1E54 JUMP JUMPDEST POP POP POP POP POP POP JUMP JUMPDEST DUP2 MLOAD PUSH8 0xFFFFFFFFFFFFFFFF DUP2 GT ISZERO PUSH2 0x1E89 JUMPI PUSH2 0x1E89 PUSH2 0x1BCA JUMP JUMPDEST PUSH2 0x1E9D DUP2 PUSH2 0x1E97 DUP5 SLOAD PUSH2 0x1DBE JUMP JUMPDEST DUP5 PUSH2 0x1E21 JUMP JUMPDEST PUSH1 0x20 DUP1 PUSH1 0x1F DUP4 GT PUSH1 0x1 DUP2 EQ PUSH2 0x1ED2 JUMPI PUSH1 0x0 DUP5 ISZERO PUSH2 0x1EBA JUMPI POP DUP6 DUP4 ADD MLOAD JUMPDEST PUSH1 0x0 NOT PUSH1 0x3 DUP7 SWAP1 SHL SHR NOT AND PUSH1 0x1 DUP6 SWAP1 SHL OR DUP6 SSTORE PUSH2 0x1E67 JUMP JUMPDEST PUSH1 0x0 DUP6 DUP2 MSTORE PUSH1 0x20 DUP2 KECCAK256 PUSH1 0x1F NOT DUP7 AND SWAP2 JUMPDEST DUP3 DUP2 LT ISZERO PUSH2 0x1F01 JUMPI DUP9 DUP7 ADD MLOAD DUP3 SSTORE SWAP5 DUP5 ADD SWAP5 PUSH1 0x1 SWAP1 SWAP2 ADD SWAP1 DUP5 ADD PUSH2 0x1EE2 JUMP JUMPDEST POP DUP6 DUP3 LT ISZERO PUSH2 0x1F1F JUMPI DUP8 DUP6 ADD MLOAD PUSH1 0x0 NOT PUSH1 0x3 DUP9 SWAP1 SHL PUSH1 0xF8 AND SHR NOT AND DUP2 SSTORE JUMPDEST POP POP POP POP POP PUSH1 0x1 SWAP1 DUP2 SHL ADD SWAP1 SSTORE POP JUMP JUMPDEST DUP1 DUP3 MUL DUP2 ISZERO DUP3 DUP3 DIV DUP5 EQ OR PUSH2 0x670 JUMPI PUSH2 0x670 PUSH2 0x1DF8 JUMP JUMPDEST DUP2 DUP2 SUB DUP2 DUP2 GT ISZERO PUSH2 0x670 JUMPI PUSH2 0x670 PUSH2 0x1DF8 JUMP JUMPDEST PUSH1 0x20 DUP1 DUP3 MSTORE PUSH1 0x33 SWAP1 DUP3 ADD MSTORE PUSH32 0x455243373231413A207472616E7366657220746F206E6F6E2045524337323152 PUSH1 0x40 DUP3 ADD MSTORE PUSH19 0x32B1B2B4BB32B91034B6B83632B6B2B73A32B9 PUSH1 0x69 SHL PUSH1 0x60 DUP3 ADD MSTORE PUSH1 0x80 ADD SWAP1 JUMP JUMPDEST PUSH1 0x0 DUP4 MLOAD PUSH2 0x1FBE DUP2 DUP5 PUSH1 0x20 DUP9 ADD PUSH2 0x1ACC JUMP JUMPDEST DUP4 MLOAD SWAP1 DUP4 ADD SWAP1 PUSH2 0x1FD2 DUP2 DUP4 PUSH1 0x20 DUP9 ADD PUSH2 0x1ACC JUMP JUMPDEST ADD SWAP5 SWAP4 POP POP POP POP JUMP JUMPDEST PUSH1 0x1 PUSH1 0x1 PUSH1 0xA0 SHL SUB DUP6 DUP2 AND DUP3 MSTORE DUP5 AND PUSH1 0x20 DUP3 ADD MSTORE PUSH1 0x40 DUP2 ADD DUP4 SWAP1 MSTORE PUSH1 0x80 PUSH1 0x60 DUP3 ADD DUP2 SWAP1 MSTORE PUSH1 0x0 SWAP1 PUSH2 0x200E SWAP1 DUP4 ADD DUP5 PUSH2 0x1AF0 JUMP JUMPDEST SWAP7 SWAP6 POP POP POP POP POP POP JUMP JUMPDEST PUSH1 0x0 PUSH1 0x20 DUP3 DUP5 SUB SLT ISZERO PUSH2 0x202A JUMPI PUSH1 0x0 DUP1 REVERT JUMPDEST DUP2 MLOAD PUSH2 0xFCC DUP2 PUSH2 0x1A99 JUMP JUMPDEST PUSH1 0x0 PUSH1 0x1 DUP3 ADD PUSH2 0x2047 JUMPI PUSH2 0x2047 PUSH2 0x1DF8 JUMP JUMPDEST POP PUSH1 0x1 ADD SWAP1 JUMP JUMPDEST PUSH4 0x4E487B71 PUSH1 0xE0 SHL PUSH1 0x0 MSTORE PUSH1 0x12 PUSH1 0x4 MSTORE PUSH1 0x24 PUSH1 0x0 REVERT JUMPDEST PUSH1 0x0 DUP3 PUSH2 0x2073 JUMPI PUSH2 0x2073 PUSH2 0x204E JUMP JUMPDEST POP DIV SWAP1 JUMP JUMPDEST PUSH1 0x0 DUP3 PUSH2 0x2087 JUMPI PUSH2 0x2087 PUSH2 0x204E JUMP JUMPDEST POP MOD SWAP1 JUMP JUMPDEST PUSH4 0x4E487B71 PUSH1 0xE0 SHL PUSH1 0x0 MSTORE PUSH1 0x32 PUSH1 0x4 MSTORE PUSH1 0x24 PUSH1 0x0 REVERT INVALID LOG2 PUSH5 0x6970667358 0x22 SLT KECCAK256 SHR SELFBALANCE SWAP14 0xC2 DUP5 0xB4 0x4D 0xAF NUMBER 0x2F 0xCB PUSH31 0x3FE228BA3C11E83B7AB1B774284A872D032C095564736F6C63430008110033 "
				},
				"gasEstimates": {
					"creation": {
						"codeDepositCost": "1681600",
						"executionCost": "infinite",
						"totalCost": "infinite"
					},
					"external": {
						"FREE_MINT_IS_ALLOWED_UNTIL()": "2385",
						"FREE_MINT_LIMIT_PER_WALLET()": "2363",
						"IS_SALE_ACTIVE()": "2367",
						"MAX_MINT_AMOUNT_PER_TX()": "2341",
						"MAX_SUPPLY()": "2341",
						"METADATA_FROZEN()": "2431",
						"PRICE()": "2340",
						"approve(address,uint256)": "infinite",
						"balanceOf(address)": "2740",
						"freezeMetadata()": "26598",
						"getApproved(uint256)": "4723",
						"isApprovedForAll(address,address)": "infinite",
						"lowerMaxSupply(uint256)": "28848",
						"mint(uint256)": "infinite",
						"mintOwner(address,uint256)": "infinite",
						"name()": "infinite",
						"owner()": "2398",
						"ownerOf(uint256)": "infinite",
						"renounceOwnership()": "infinite",
						"safeTransferFrom(address,address,uint256)": "infinite",
						"safeTransferFrom(address,address,uint256,bytes)": "infinite",
						"setApprovalForAll(address,bool)": "infinite",
						"setBaseURI(string)": "infinite",
						"setFreeMintAllowance(uint256)": "24555",
						"setFreeMintAllowedUntil(uint256)": "24600",
						"setMaxMintPerTx(uint256)": "24577",
						"setPrice(uint256)": "24577",
						"setSaleActive(bool)": "26783",
						"supportsInterface(bytes4)": "557",
						"symbol()": "infinite",
						"tokenURI(uint256)": "infinite",
						"totalSupply()": "2382",
						"transferFrom(address,address,uint256)": "infinite",
						"transferOwnership(address)": "28446",
						"withdraw()": "infinite"
					},
					"internal": {
						"_baseURI()": "infinite",
						"updateFreeMintCount(address,uint256)": "24409"
					}
				},
				"methodIdentifiers": {
					"FREE_MINT_IS_ALLOWED_UNTIL()": "4065b85f",
					"FREE_MINT_LIMIT_PER_WALLET()": "10b0c052",
					"IS_SALE_ACTIVE()": "76d02b71",
					"MAX_MINT_AMOUNT_PER_TX()": "09ef6527",
					"MAX_SUPPLY()": "32cb6b0c",
					"METADATA_FROZEN()": "fdb4953a",
					"PRICE()": "8d859f3e",
					"approve(address,uint256)": "095ea7b3",
					"balanceOf(address)": "70a08231",
					"freezeMetadata()": "d111515d",
					"getApproved(uint256)": "081812fc",
					"isApprovedForAll(address,address)": "e985e9c5",
					"lowerMaxSupply(uint256)": "c4e9374d",
					"mint(uint256)": "a0712d68",
					"mintOwner(address,uint256)": "408cbf94",
					"name()": "06fdde03",
					"owner()": "8da5cb5b",
					"ownerOf(uint256)": "6352211e",
					"renounceOwnership()": "715018a6",
					"safeTransferFrom(address,address,uint256)": "42842e0e",
					"safeTransferFrom(address,address,uint256,bytes)": "b88d4fde",
					"setApprovalForAll(address,bool)": "a22cb465",
					"setBaseURI(string)": "55f804b3",
					"setFreeMintAllowance(uint256)": "b0551ac4",
					"setFreeMintAllowedUntil(uint256)": "8b85e43d",
					"setMaxMintPerTx(uint256)": "616cdb1e",
					"setPrice(uint256)": "91b7f5ed",
					"setSaleActive(bool)": "841718a6",
					"supportsInterface(bytes4)": "01ffc9a7",
					"symbol()": "95d89b41",
					"tokenURI(uint256)": "c87b56dd",
					"totalSupply()": "18160ddd",
					"transferFrom(address,address,uint256)": "23b872dd",
					"transferOwnership(address)": "f2fde38b",
					"withdraw()": "3ccfd60b"
				}
			},
			"storageLayout": {
				"storage": [
					{
						"astId": 928,
						"contract": "contracts/Gluttony.sol:Gluttony",
						"label": "currentIndex",
						"offset": 0,
						"slot": "0",
						"type": "t_uint256"
					},
					{
						"astId": 930,
						"contract": "contracts/Gluttony.sol:Gluttony",
						"label": "_name",
						"offset": 0,
						"slot": "1",
						"type": "t_string_storage"
					},
					{
						"astId": 932,
						"contract": "contracts/Gluttony.sol:Gluttony",
						"label": "_symbol",
						"offset": 0,
						"slot": "2",
						"type": "t_string_storage"
					},
					{
						"astId": 937,
						"contract": "contracts/Gluttony.sol:Gluttony",
						"label": "_ownerships",
						"offset": 0,
						"slot": "3",
						"type": "t_mapping(t_uint256,t_struct(TokenOwnership)921_storage)"
					},
					{
						"astId": 942,
						"contract": "contracts/Gluttony.sol:Gluttony",
						"label": "_addressData",
						"offset": 0,
						"slot": "4",
						"type": "t_mapping(t_address,t_struct(AddressData)926_storage)"
					},
					{
						"astId": 946,
						"contract": "contracts/Gluttony.sol:Gluttony",
						"label": "_tokenApprovals",
						"offset": 0,
						"slot": "5",
						"type": "t_mapping(t_uint256,t_address)"
					},
					{
						"astId": 952,
						"contract": "contracts/Gluttony.sol:Gluttony",
						"label": "_operatorApprovals",
						"offset": 0,
						"slot": "6",
						"type": "t_mapping(t_address,t_mapping(t_address,t_bool))"
					},
					{
						"astId": 7,
						"contract": "contracts/Gluttony.sol:Gluttony",
						"label": "_owner",
						"offset": 0,
						"slot": "7",
						"type": "t_address"
					},
					{
						"astId": 123,
						"contract": "contracts/Gluttony.sol:Gluttony",
						"label": "_status",
						"offset": 0,
						"slot": "8",
						"type": "t_uint256"
					},
					{
						"astId": 1863,
						"contract": "contracts/Gluttony.sol:Gluttony",
						"label": "PRICE",
						"offset": 0,
						"slot": "9",
						"type": "t_uint256"
					},
					{
						"astId": 1865,
						"contract": "contracts/Gluttony.sol:Gluttony",
						"label": "MAX_SUPPLY",
						"offset": 0,
						"slot": "10",
						"type": "t_uint256"
					},
					{
						"astId": 1867,
						"contract": "contracts/Gluttony.sol:Gluttony",
						"label": "BASE_URI",
						"offset": 0,
						"slot": "11",
						"type": "t_string_storage"
					},
					{
						"astId": 1869,
						"contract": "contracts/Gluttony.sol:Gluttony",
						"label": "FREE_MINT_LIMIT_PER_WALLET",
						"offset": 0,
						"slot": "12",
						"type": "t_uint256"
					},
					{
						"astId": 1871,
						"contract": "contracts/Gluttony.sol:Gluttony",
						"label": "MAX_MINT_AMOUNT_PER_TX",
						"offset": 0,
						"slot": "13",
						"type": "t_uint256"
					},
					{
						"astId": 1873,
						"contract": "contracts/Gluttony.sol:Gluttony",
						"label": "IS_SALE_ACTIVE",
						"offset": 0,
						"slot": "14",
						"type": "t_bool"
					},
					{
						"astId": 1875,
						"contract": "contracts/Gluttony.sol:Gluttony",
						"label": "FREE_MINT_IS_ALLOWED_UNTIL",
						"offset": 0,
						"slot": "15",
						"type": "t_uint256"
					},
					{
						"astId": 1877,
						"contract": "contracts/Gluttony.sol:Gluttony",
						"label": "METADATA_FROZEN",
						"offset": 0,
						"slot": "16",
						"type": "t_bool"
					},
					{
						"astId": 1881,
						"contract": "contracts/Gluttony.sol:Gluttony",
						"label": "freeMintCountMap",
						"offset": 0,
						"slot": "17",
						"type": "t_mapping(t_address,t_uint256)"
					}
				],
				"types": {
					"t_address": {
						"encoding": "inplace",
						"label": "address",
						"numberOfBytes": "20"
					},
					"t_bool": {
						"encoding": "inplace",
						"label": "bool",
						"numberOfBytes": "1"
					},
					"t_mapping(t_address,t_bool)": {
						"encoding": "mapping",
						"key": "t_address",
						"label": "mapping(address => bool)",
						"numberOfBytes": "32",
						"value": "t_bool"
					},
					"t_mapping(t_address,t_mapping(t_address,t_bool))": {
						"encoding": "mapping",
						"key": "t_address",
						"label": "mapping(address => mapping(address => bool))",
						"numberOfBytes": "32",
						"value": "t_mapping(t_address,t_bool)"
					},
					"t_mapping(t_address,t_struct(AddressData)926_storage)": {
						"encoding": "mapping",
						"key": "t_address",
						"label": "mapping(address => struct ERC721A.AddressData)",
						"numberOfBytes": "32",
						"value": "t_struct(AddressData)926_storage"
					},
					"t_mapping(t_address,t_uint256)": {
						"encoding": "mapping",
						"key": "t_address",
						"label": "mapping(address => uint256)",
						"numberOfBytes": "32",
						"value": "t_uint256"
					},
					"t_mapping(t_uint256,t_address)": {
						"encoding": "mapping",
						"key": "t_uint256",
						"label": "mapping(uint256 => address)",
						"numberOfBytes": "32",
						"value": "t_address"
					},
					"t_mapping(t_uint256,t_struct(TokenOwnership)921_storage)": {
						"encoding": "mapping",
						"key": "t_uint256",
						"label": "mapping(uint256 => struct ERC721A.TokenOwnership)",
						"numberOfBytes": "32",
						"value": "t_struct(TokenOwnership)921_storage"
					},
					"t_string_storage": {
						"encoding": "bytes",
						"label": "string",
						"numberOfBytes": "32"
					},
					"t_struct(AddressData)926_storage": {
						"encoding": "inplace",
						"label": "struct ERC721A.AddressData",
						"members": [
							{
								"astId": 923,
								"contract": "contracts/Gluttony.sol:Gluttony",
								"label": "balance",
								"offset": 0,
								"slot": "0",
								"type": "t_uint128"
							},
							{
								"astId": 925,
								"contract": "contracts/Gluttony.sol:Gluttony",
								"label": "numberMinted",
								"offset": 16,
								"slot": "0",
								"type": "t_uint128"
							}
						],
						"numberOfBytes": "32"
					},
					"t_struct(TokenOwnership)921_storage": {
						"encoding": "inplace",
						"label": "struct ERC721A.TokenOwnership",
						"members": [
							{
								"astId": 918,
								"contract": "contracts/Gluttony.sol:Gluttony",
								"label": "addr",
								"offset": 0,
								"slot": "0",
								"type": "t_address"
							},
							{
								"astId": 920,
								"contract": "contracts/Gluttony.sol:Gluttony",
								"label": "startTimestamp",
								"offset": 20,
								"slot": "0",
								"type": "t_uint64"
							}
						],
						"numberOfBytes": "32"
					},
					"t_uint128": {
						"encoding": "inplace",
						"label": "uint128",
						"numberOfBytes": "16"
					},
					"t_uint256": {
						"encoding": "inplace",
						"label": "uint256",
						"numberOfBytes": "32"
					},
					"t_uint64": {
						"encoding": "inplace",
						"label": "uint64",
						"numberOfBytes": "8"
					}
				}
			},
			"userdoc": {
				"kind": "user",
				"methods": {
					"setPrice(uint256)": {
						"notice": "SETTERS *"
					}
				},
				"version": 1
			}
		}
	}
}